:1000000080440020392100006D5C00000D210000BB
:100010000D2100000D2100000D2100000000000056
:100020000000000000000000000000006D1C000047
:100030000D210000000000000D2100000D21000036
:10004000ED1C0000ED1C0000ED1C0000ED1C00008C
:10005000ED1C0000ED1C0000ED1C0000ED1C00007C
:10006000ED1C0000ED1C0000ED1C0000ED1C00006C
:10007000ED1C0000ED1C0000ED1C0000ED1C00005C
:10008000ED1C0000ED1C0000ED1C0000ED1C00004C
:10009000ED1C0000ED1C0000ED1C0000ED1C00003C
:1000A000ED1C0000ED1C0000ED1C0000ED1C00002C
:1000B000ED1C0000ED1C0000ED1C0000ED1C00001C
:1000C000ED1C0000ED1C0000ED1C0000ED1C00000C
:1000D000ED1C0000ED1C0000ED1C0000ED1C0000FC
:1000E000ED1C0000ED1C0000ED1C0000ED1C0000EC
:1000F000ED1C0000ED1C0000ED1C0000ED1C0000DC
:1001000053B94AB9002908BF00281CBF4FF0FF317E
:100110004FF0FF3000F00CB8ADF1080C6DE904CEE3
:1001200000F008F8DDF804E0DDE9022304B07047D0
:10013000704700BF2DE9F04786468C460846089E6A
:10014000154674461946002B40F0C2808542B2FA2B
:1001500082F245D94AB1C2F1200300FA02FC2EFA1C
:1001600003F3954043EA0C0C94404FEA154EA8B2B5
:10017000BCFBFEF8230C0EFB18CC08FB00F943EA8D
:100180000C43994528D9EB1808F1FF3704D299455B
:1001900002D9A8F102072B44A3EB0903A4B2B3FBD5
:1001A000FEFC0EFB1C330CFB00F044EA0344A042AF
:1001B00014D92C190CF1FF3304D2A04202D9ACF1AE
:1001C00002032C44241A43EA07401EB1D440002302
:1001D00034607360BDE8F0874746DDE76346F1E7CA
:1001E00092BB431B01214FEA154EAFB2B3FBFEFC9D
:1001F000200C0EFB1C330CFB07F840EA0343984528
:1002000062D9EB180CF1FF3004D2984502D9ACF159
:1002100002002B44A3EB0803A4B2B3FBFEFC0EFBCD
:100220001C330CFB07F744EA0344A7424ED92C19B0
:100230000CF1FF3304D2A74202D9ACF102032C44E3
:10024000E41B43EA0040C0E7C2F1200320FA03F1B7
:10025000954090402EFA03F303434FEA154EAFB298
:10026000B1FBFEFC0EFB1C10190C0CFB07F841EA5D
:100270000041884504FA02F422D969180CF1FF30D4
:1002800004D2884502D9ACF102002944A1EB08014F
:100290009BB2B1FBFEFC0EFB1C110CFB07F743EA03
:1002A00001439F420ED9EB180CF1FF3104D29F425B
:1002B00002D9ACF102012B44DB1B41EA004192E779
:1002C0006046E3E76146F7E76046A3E76346B7E7C2
:1002D000834206D916B9002108467BE7C6E900E04B
:1002E000F9E7B3FA83F78FB9834201D3724508D88F
:1002F000BEEB020460EB030301209C461EB9002103
:1003000068E73846FAE7C6E9004CF8E7C7F1200C81
:10031000BB4022FA0CF41C432EFA0CF120FA0CF329
:10032000B84001434FEA14490EFA07F5B3FBF9F858
:100330001FFA84FE09FB18300B0C08FB0EFA43EA87
:1003400000439A4502FA07F240D9E31808F1FF305A
:1003500004D29A4502D9A8F102002344A3EB0A0370
:1003600089B2B3FBF9F809FB183308FB0EFE41EA2A
:1003700003418E452CD9611808F1FF3304D28E4514
:1003800002D9A8F10203214443EA0040A0FB0298ED
:10039000A1EB0E014145CE46434602D306D14D4561
:1003A00004D2B9EB020E68EB04030138002EA6D08C
:1003B000B5EB0E0261EB030101FA0CFC22FA07F324
:1003C0004CEA0303F940C6E9003198E74046C5E727
:1003D0004346D9E7F0B52D4B2D4AC3F800262D48EA
:1003E000C3F8042685B0C3F808264921C3F80C26B3
:1003F000C3F81026C3F81426C3F81826C3F81C2621
:1004000005F0A9FB04F051FF01A800F07BFC224B92
:100410001B68834204D02148452105F09CFBFEE780
:10042000039A1F48492105F096FB1E48492105F013
:1004300092FB4FF44041002005F025FE044620B118
:100440001948452105F087FBFEE769469DF808003D
:1004500000F02EF8009B039D1D44019B1E8900F0B7
:1004600065FFAF1900F038FF01F090FEAB5983F340
:10047000088884F31488BFF36F8FBFF36F8F7B6896
:1004800098470A48452105F066FBFEE70000014059
:100490003546526E106900005001002029690000A5
:1004A0004C6900007B690000A0690000D36900006E
:1004B00008B5024638B105480023452105F04BFB3D
:1004C0006FF0150008BD0860FCE700BFF66900008A
:1004D0001FB50C46014601AA044805F0DAFC18B91C
:1004E000019B2360029B636004B010BDCC630000DD
:1004F0002DE9F04F1E46DBB0824BDDF8A0B1D3F8FA
:100500000080DDE96657144600F0B0FE7E4B012204
:10051000C3F800253AA803F0FDFD35B1002F04DD36
:100520003A4629463AA805F011FA638927891F44FB
:10053000E3684FF000091F444F4525D80DA93AA89C
:1005400003F05AFE704B0022C3F80025C3F80025C3
:10055000BBF1000F04D020220DA9584605F0AEFBD8
:100560000023009332464FF6FF73214607A804F09C
:100570009DFE0546D0B930460C9C00F083F98442BC
:100580001FD94FF0FF3511E0659B649AA7EB090A6C
:100590009A4528BF9A4653464946304605F0E9FA3F
:1005A000054638B1584B0022C3F8002528465BB0F9
:1005B000BDE8F08F649952463AA805F0C7F9D144D6
:1005C000BAE7DFF850B1DFF840914FF0FF370DF197
:1005D000160305AA06A907A804F0B6FE041EC0F279
:1005E0008F8040F08280BDF816A0BAF1100F18D1AC
:1005F000BDF81450202DC4D106992B463AAA304696
:1006000005F0B7FA044600287AD12A463AA90DA87F
:1006100004F012FF05463D4B1B688342C6D10125FD
:10062000D5E7BAF1010F3ED1BDF81430202BA8D880
:1006300006993AAA304605F09CFA044600285FD194
:100640009DF814300293202B09D8DBF80030304F8E
:100650000393039B9C4205DB0023C9F800354FF050
:10066000FF341CE000F002FEC9F800A51DA803F04D
:1006700051FD7A6857F8081B12681DA805F066F945
:1006800015A91DA803F0B8FD0022C9F80025029A9B
:100690003AA915A805F002FB18B9C9F800052746C4
:1006A00095E70134D5E7BAF1220F90D17B1C8ED0AB
:1006B000DBF80030BB4215DDBDF81430802B3FF66F
:1006C00060AF06993AAA304605F053FA0446B8B925
:1006D000FFB2BDF8143000973AAA20210DA800F00F
:1006E0001BF880464FF0FF3771E745B1074B1B6899
:1006F00043451CBF034BD3F80080454656E7012411
:10070000254653E70000002000A0025050010020C1
:10071000FC650000F86500002DE9F04196B0174631
:100720001D469DF87020354B0E4653F8321001914E
:1007300003EBC20380465B68186802AA01443023B9
:1007400001A805F091F820B14FF0FF3016B0BDE8D8
:10075000F081DDE901431C4403AA06AB214601A850
:1007600005F0AAF80028EFD1049A072AECD1244911
:10077000059805F093FA0028E6D1079A082AE3D1F4
:100780002049089805F08AFA0028DDD102AA2146FE
:1007900001A805F07DF80028D6D1DDE90132134427
:1007A0009C42D1D1412ACFD13D44302303AA2946CE
:1007B00002A8029705F058F80028C5D1DDE90232F9
:1007C00013449D42C0D32A4602A906A804F008FE9D
:1007D0000028B9D12A4602A90EA804F001FE00287B
:1007E000B2D1202EB0D101990B78042BACD1334675
:1007F00006AA0131404600F051FDA7E7FC65000064
:10080000256A00001C6A00002DE9F04186B0022331
:10081000DFF86C80ADF800300D466F46002617F803
:10082000010B01A901F010F90446A0B901988168F3
:10083000102302AA103905F09CF90446019805F02E
:1008400097F944B91022414602A805F027FA40B1B1
:100850002EB14FF0FF34204606B0BDE8F0810126EE
:10086000DDE7019805F01DFC0423A0F108012A46EC
:10087000019805F07EF90446019805F079F9EAE758
:100880000069000007B504F0EBFD6946FFF720FEA4
:1008900038B10548452105F05EF9002003B05DF848
:1008A00004FB0098FAE700BF2D6A00002DE9F04133
:1008B000354B88B0064600200C461D6804F0EAFC63
:1008C00006A9C0B201F0C0F8002857D1214604F0B3
:1008D000E1FC2C2507A9C0B205FB046501F0B4F8C2
:1008E000002833D02C27674306EB0708069BD8F86F
:1008F000101011F0100138D14FF480720192234A88
:100900000092CDE903112A4602910846FFF7F0FD57
:1009100005461F4BF25906989A420CD1D8F80C2084
:10092000B8F808309B1806D28268934203D2194B5C
:100930001B68AB421FD02CB38268002105F043F93D
:10094000154A1648452105F006F913E0079805F009
:1009500057F90746079805F00BF96B1EEA1C13F8C8
:10096000011FB942BED19342F9D11CB1069930465C
:1009700004F05AFE0125069805F0FAF8284608B05A
:10098000BDE8F081064ADCE700000020040F0020EB
:100990003DB8F39650010020706A00007A6A0000AA
:1009A000686A000073B50D46044600212846CDE96B
:1009B000001104F0F8FD30B3164E2368B34203D1A2
:1009C00001AA204604F084FDE36AB34204D16A46DA
:1009D0000121204604F07CFDDDE90032934288BF0E
:1009E0000193019BAB60019A2946204600F034FB3D
:1009F000094B1A68002A03DD0848572105F0ABF8B7
:100A0000002002B070BD05F10801FFF7FDFEAB68E4
:100A10000193E8E73DB8F396B40D0020A26A000008
:100A20002DE9F84FDFF878B01B4C1C4D88469146F5
:100A30009A4600260B9B9E4201D300200FE00B9BA1
:100A4000174A9F1BB7F5806F28BF4FF480673B465E
:100A500006EB0A01404605F08CF810B10120BDE814
:100A6000F88F0A993B465A467118484605F096F8A1
:100A70000028F3D1C4F800563E44C4F80456C4F824
:100A80000856C4F80C56C4F81056C4F81456C4F8E6
:100A90001856C4F81C56CDE7000001403546526E8A
:100AA000540900202DE9FF418F4B43620E468F4BC6
:100AB000036500210446084604F0ECFB04F1200124
:100AC000C0B200F0C1FF0121002004F0E3FB04F1FB
:100AD0004C01C0B200F0B8FF0546204604F039FDD5
:100AE000074668B900221146204604F0DBFC0746A1
:100AF00000B37F480022572105F02DF801238FE035
:100B00007C488022572105F026F801239F4284F873
:100B10005830E7D194F858308DF80730042B00F2A4
:100B20008280012B00F2858000F09C80FF2384F8F6
:100B3000583097E0204600F0A7F90028DED068463C
:100B400004F028FD6946204604F0C3FD18B16A4848
:100B50003A465721D0E7684604F025FD80F00101B0
:100B60006A46C9B2204604F09DFC02460028C0D166
:100B7000684604F018FD074660BB69462046FFF74B
:100B800011FF9DF8073084F85830033B012B06D83D
:100B9000384604F0ECFD10B1FF2384F858309DF87E
:100BA0000730023B022B0BD8002004F0CEFD38B1F9
:100BB000FF2384F858305148452104F0CCFFFEE76C
:100BC00094F85830FF2BF6D06A460021204604F0F6
:100BD00069FC93E79DF80780B8F1010F15D1104625
:100BE00002F052FB831E022B07460BD841462046DB
:100BF000FFF75CFE424B1B68984203D0012814BFEC
:100C00000527012784F8587084E701212046FFF763
:100C10004DFE3B4B1B6898420CBF9DF807300523E7
:100C200084F8583076E7052B80D1002004F09FFD32
:100C300013E069462046FFF7B5FE94F85830DA1EF7
:100C4000012A05460CD8002004F091FD0546002835
:100C50007FF46CAF002004F078FD054610B165E725
:100C6000022BF7D094F85830FF2B04D123484521AC
:100C700004F071FFFEE7012B10D06A4600212046E8
:100C800004F010FC054648B1E06C04F071FF206AE6
:100C900004F06EFF284604B0BDE8F0810021204634
:100CA000FFF704FE0746DFF85880D8F80030984276
:100CB0000FD110220021684605F00BF8206A04F0DD
:100CC000F2FA3071236A5B683460D8F80050B36080
:100CD000DAE7E06C04F04CFF206A04F049FF002DD5
:100CE00008BF3D46D6E700BF540500205401002050
:100CF000136B0000D16A00003F6B0000696B0000BD
:100D00005001002038B5064D0446602200212846D7
:100D100004F0DFFF21462846FFF7C4FE38BD00BFC0
:100D2000540D002073B516461D4643B15B79012B67
:100D300007D121B9204B2A681B689A4217D8002492
:100D400018E0022BFBD12B68012B07D91A4A126835
:100D50009342F4D8B1FA81F14909F0E7EFD131B10A
:100D60000129ECD12979023918BF0121E7E7436A4B
:100D70005C680021002004F08DFA01A9C0B200F0E7
:100D800063FE30B10124019804F0F2FE204602B067
:100D900070BD214601982023324604F0EAFE044645
:100DA0000028EFD1002DEED03468044BE41A18BFB0
:100DB0004FF0FF34E7E700BF040000203DB8F39692
:100DC0002DE9F04F074685B00C4601460020164637
:100DD00004F039FB051E50DB3846E46D04F040FB9F
:100DE0005FFA84F96B1E09FB03084FF0000A4FF00D
:100DF000010B4FF0FF349DB9BAF1010F03DD21481B
:100E0000452104F0A8FE631C06D07F2C2ADC0134A7
:100E100040F201133460B380284605B0BDE8F08F7E
:100E20006B1E00930DF10F0201234146384604F07A
:100E3000A0FE031E019322DB01220DF10F013846B3
:100E400005F043F9019B40B15B4501D00AF1010A6D
:100E5000009DA8EB09089B46CDE7B4F1FF3F08BF12
:100E60002C46F5E70223803C7371631004F0010403
:100E70000133013433603471CEE70725CCE7012517
:100E8000CAE700BF756B000038B5816A426D9142B8
:100E900008D0531C8B4205D01348572104F05BFE49
:100EA000002038BD80291CD910485721F6E7446A34
:100EB000056D04EBC30405EBC30564686D68AC42C3
:100EC00002D00B485721E9E701339A42EFD1914212
:100ED00005D9436A03EBC2035B68A342F1D1012049
:100EE000DFE700231C46F0E7986B0000D06B0000A2
:100EF000FF6B000000B589B004A9022005F057F986
:100F00009DF81020012A41D0254B2649032A08BF0D
:100F10000B469DF8132002929DF8122001929DF835
:100F20001120214800924921204A04F014FE06A90C
:100F3000052005F03CF99DF81820012A28D0184B0F
:100F40001849032A08BF0B469DF81B2002929DF802
:100F50001A2001929DF8192000921348144A492141
:100F600004F0F9FD9DF81030012B13D19DF81230DB
:100F7000032B0FD19DF81830012B0BD00D484921C0
:100F800004F0E9FD022009B05DF804FB0A4BC0E75C
:100F9000094BD9E70948492104F0DDFD0020F2E7BB
:100FA0002B6C0000346C0000486C00003A6C0000B0
:100FB000896C0000996C00002F6C0000B86C000078
:100FC00070B54B6814461E4A03F0FF23934286B067
:100FD00006460D462FD10B68012B2CD104A92046C3
:100FE00002F0FCF89DF81020012A26D0154B164976
:100FF000032A08BF0B469DF8132002929DF8122089
:1010000001929DF8112000921048114A492104F0E4
:10101000A2FD9DF81030032B0DD12146304604F07F
:1010200003FB204605F0B6F8A968204604F02BFA29
:10103000204602F0B3F806B070BD064BDBE700BFF8
:10104000000100042B6C0000346C0000486C0000B0
:10105000896C00002F6C00002DE9F04F054689B027
:101060007D480C464921174604F075FD6B6A012244
:101070005E6800233344BB42114602F10102F9D3FA
:10108000764F2046396004F08EFA08B3E86D04F01C
:10109000D5F9AB6A03F1FF3800233344834202D20F
:1010A00008F1FF38F9E73B68434511D36C485721F5
:1010B00004F051FD3A686B4808FB06F302FB066238
:1010C000572104F048FD0123E37109B0BDE8F08F1A
:1010D00006A9022000F0B8FC07A9052000F0B4FC26
:1010E000079A21462846FFF76BFF6379012B0BD146
:1010F000D7F80080DFF870B13B68DDF81890B8F1E0
:10110000000F11D101232360022363714FF0010806
:101110003B68DDF818A0984549D9504604F028FDF1
:10112000079804F025FDD0E7226801339B1A984503
:101130003AD86B6A196853F8380003EBC803012AE0
:1011400053F8083CA3EB0103A0EB010A049311D16F
:10115000079B0393E368022B08D04946284604F016
:1011600063FA22464946284604F094FA0399284631
:1011700004F05AFA32465146484604F053FA049BAA
:101180004A464946CDE900A62846FFF749FC2146D4
:10119000284604F015FA23680133236020B1DBF8F8
:1011A00000300133CBF8003008F1FF38A4E72368A2
:1011B00098454ED36A6ADDF81CB052F83810049195
:1011C0004FEAC803083B11680391D1582A6DD058E3
:1011D0001368A0EB03092379012B38D1039B324616
:1011E000C91A5046059104F01DFA059900914B4625
:1011F0005246594601962846FFF712FC21462846DA
:1012000004F0DEF90223237118B1174A1368013381
:10121000136032464946584604F004FADDE90323D8
:1012200051469B1ACDE900965A462846FFF7F8FB2F
:101230002146284604F0C4F92368013323600123C2
:10124000237130B1084A13680133136001E0022BA7
:10125000DFD008F101085BE7CF6C0000040000203C
:10126000F86C0000276D0000B40D002070B5094D2A
:101270002B780BB1002070BD074C0126C4F8006527
:1012800002F0EAFF18B92E70C4F80005F2E74FF03B
:10129000FF30F0E70410002000A002502DE9F041DB
:1012A000DFF83080ACB01F4606460C461546FFF707
:1012B000DDFF0123C8F800352A4633460097214652
:1012C00003A805F017F80023C8F800352CB0BDE8D6
:1012D000F08100BF00A00250BFF36F8F72B6124BB7
:1012E0004FF0FF32C3F88020C3F88420C3F8882071
:1012F000C3F88C20C3F89020C3F89420C3F898203A
:10130000C3F89C20C3F88021C3F88421C3F8882146
:10131000C3F88C21C3F89021C3F89421C3F8982115
:10132000C3F89C21704700BF00E100E0164A4FF06F
:10133000FF3301215160C2F84833C2F8083302F587
:10134000C0425160C2F84833C2F8083302F59832FF
:101350005160C2F84833C2F80833A2F508320021C0
:10136000C2F80015C2F8083302F51832C2F80015A9
:10137000C2F80833A2F51042C2F808354FF0804297
:10138000C2F80833704700BF00B00040014B1B6833
:10139000184700BF08000020014B1860704700BFCD
:1013A0000800002007B50B460021024600910348C3
:1013B00000F014F903B05DF804FB00BF8D130000CA
:1013C0002DE9F047058B04462807904611D40229E1
:1013D00005F0070540F0CD80204604F0E1FA78B131
:1013E0000138218B042811D8DFE800F0C3106D8587
:1013F000950001290CBF45F0100545F02005258317
:1014000088F31188BFF36F8FBDE8F08701F0070AFA
:10141000AA4500F0A6800027B9463E46A368002BE7
:1014200000F0BD8041F00801218388F31188BFF3EB
:101430006F8FA168002900F0BB800D68002900F0C3
:10144000B780D1F80480334652462046C047002D6D
:1014500076D02B6829461D46F0E701F007035A1F96
:10146000012A1BD8002221F00701062B276889B228
:10147000C4E9002209D13B4603E0628B013262835A
:101480001B68002BF9D141F002012183204604F0B2
:1014900087FA00287BD041F0200177E0042B0AD1A5
:1014A00021F0070189B22183204604F079FA10B1B6
:1014B00041F020012183218B01F0070AAA4550D079
:1014C0000027B946AAE7236921F0070141F0060188
:1014D000062DD3F8009021832DD1B9F1000F40D013
:1014E00041F00801218388F31188BFF36F8F3A49D7
:1014F0002046C84729E021F00701236941F0040193
:1015000089B2042DD3F804902183E6D000273E460B
:101510004FF0040A82E721F00701236941F0050139
:1015200089B2052DD3F808902183D6D000273E46F6
:101530004FF0050A72E700273E464FF0060A6DE7B6
:101540002B4687E7B9F1000FD1D14FF02003EFF31D
:10155000118883F31288BFF36F8F238B23F0080366
:101560002383258BEA062ED525F01003238305F06F
:1015700007056669218B002EBFF66FAF0023276831
:10158000C4E9003321F0070141F001012183218BDF
:1015900001F0070AAA454FF000097FF43FAF002F82
:1015A0009BD041F00801218388F31188BFF36F8F2E
:1015B000002FC7D03D68394633465246204604F0D6
:1015C0001BFA2F46F4E7AB067FF51AAF25F0200390
:1015D000238305F00705FFE6255A00002DE9F04FAB
:1015E0008DB01D46531E8246019103934FF00009B2
:1015F000039B5878252803F1010419D11E460020C9
:101600004FF0FF3802360346029044463178039685
:10161000392954D81F2914D8002900F0ED810199E7
:101620002520D04701993078D04709F10209DFE73A
:10163000002800F0E1810199D04709F101090394E4
:10164000D6E7A1F12002192AE9D801A757F822F01C
:10165000B91600001F1600001F160000B916000082
:101660001F160000391700001F1600001F1600008B
:101670001F1600001F16000085170000B916000095
:101680001F16000099170000451700001F160000E4
:101690005317000073170000731700007317000042
:1016A0007317000073170000731700007317000012
:1016B000731700007317000008460136A6E7582983
:1016C00000F0EB80A1F16302D7B2172FA7D8172A39
:1016D000A5D801A757F822F041190000BF17000054
:1016E0001F1600001F1600001F1600009F170000A5
:1016F000BF1700001F1600001F1600009F170000F4
:101700001F1600001F1600001F16000075180000AD
:101710001F1600001F160000151900001F160000FC
:10172000BF1700001F1600001F16000075180000EC
:101730001F1600009F17000001992520D04709F1CE
:10174000010955E7029A02F0FE0202924FF00008EA
:10175000B3E7002C0DDAB8F1000F0DDA029A002A77
:1017600000F0428124EAE4740A2202FB0414303CB3
:10177000A3E7B8F1000FF5DB0A2202FB0812A2F181
:1017800030089AE7B8F1000F55F8042B80F22E814B
:10179000002A80F22D815442022202928DE76829AC
:1017A00003D1682B06D1482387E76C2902D16C2B23
:1017B00000F02081002B7FF432AF0B467DE77A2BBF
:1017C00006D1752955F8046B14D14FF0000B0CE0CD
:1017D0006C2BF6D04C2BF4D1073525F00703752977
:1017E000D3E9006B03F1080506D120283BD1844FD3
:1017F000013C09E04FEAE67BBBF1000FF5DA7642E7
:10180000804F6BEB4B0B013C0DF12D030593002337
:101810000493304659460A220023FEF771FC049BCC
:101820008E46591E049105993032B44601F8012DB7
:10183000BCF10A0F5A4672F1000205910646F346C2
:10184000E7D2C3F1010B30330DEB0306B8F1000F03
:10185000A6F104066DDA029BD9077CD4A8EB0B0332
:10186000A4EB0B0413E02B280ABF674F674F04F16A
:10187000FF34C9E770290FD155F8042B0023FAB9BA
:10188000634E053C6FF004034FF0050B5F4F029A67
:1018900092076FD4A04665E078216C2B03D155F8F0
:1018A000042B002308E04C2BF9D1073525F0070362
:1018B0001D465B6855F8082B232825D1880621D5BD
:1018C000544F023C01F06001A1F1390B0DF12D0ED6
:1018D000002602F00F01092988BF594430310EF863
:1018E000011D102A4FEA121141EA03714FEA131049
:1018F00073F1000306F1FF3C08D2C6F1010B06F1BB
:101900003003A1E7444FDCE7404FDBE766460A4679
:101910000346DEE755F8046B304604F0B8F9B8F139
:10192000000F834602DB4045A8BFC346374F4FF048
:101930000008A8EB0B03002B92DDA4EB0804A6E73C
:1019400055F8043B8DF81830013C4FF0FF334FF051
:10195000010B06AE9AE7A046EBE70293019920201F
:10196000D047029BB8F10108F7D524EAE472013CA4
:101970009144A41AB84606E0049302920199D04714
:10198000029A049B9046424612F8010B0028F3D1BC
:101990001A46013A15D5002BACBFC7EB03077F42AF
:1019A0005B46013B15D5BBF1000FA8BF5F444F4418
:1019B0002646013E14D5002CA8BF3F1907EB0809A5
:1019C00016E60493029201993020D047049B029AB4
:1019D000DFE70293019916F8010BD047029BE0E77D
:1019E00001992020D047E4E70122D6E6904664E63C
:1019F000144662E64C2360E648460DB0BDE8F08F21
:101A000069710000C46D0000C66D00003F750000E4
:101A1000CE6D0000C86D0000CB6D000008B54FF022
:101A20002002EFF3118382F31288BFF36F8F00F06F
:101A3000B7FC034803F0A7FF00F06AF8FCE700BF1B
:101A4000D46D000001F0B0BC70B5114B1C680D46A0
:101A5000DCB1104B196800238B4202DB6FF00100F0
:101A600070BD224612F8106B864202D00133144634
:101A7000F2E7E06810B96FF01200F1E704F020FC23
:101A80000028F8D02C600020EAE76FF00C00E7E7B0
:101A90000C0000200866000070B588B005460C46B2
:101AA000C0B269461646FFF7CFFF00281BDB00983F
:101AB000C8B143680293836822680195CDE9033673
:101AC0000023CDE906230593C56804F051F86DB1F4
:101AD0002846084901AA04F0E0F9079808B9059BCF
:101AE000236008B070BD6FF01500FAE76FF01200C8
:101AF000F7E700BF0F5C0000014802F053B800BFD9
:101B00007C660000014910220A60704710ED00E079
:101B100072B6404080F31188BFF36F8FBFF34F8FD1
:101B200030BF62B6BFF36F8F704700BF72B64940D7
:101B300081F31188BFF34F8F20BF80F3118862B605
:101B4000704700BF37B505460C46C9B18B68009396
:101B5000D1E900230E48452103F0FDFF636900939E
:101B6000D4E903230B48452103F0F5FFE2690A4855
:101B7000452103F0F0FFA2690848452103F0EBFF7F
:101B80002146284603B0BDE8304001F03FBE00BF0B
:101B9000FD6D0000316E0000656E0000796E000082
:101BA00040B2002807DB044A4109012300F01F006E
:101BB000834042F82130704700E100E0054B4209C4
:101BC00000F01F0053F82220012303FA00F0104018
:101BD000704700BF00E100E040B20028A8BF00F15C
:101BE000604001F10101B8BF064B4FEA4111ACBFA3
:101BF00000F5614000F00F00C9B2B4BF195480F87D
:101C00000013704714ED00E030BFFFF7FDBF00BFC9
:101C1000144A08B5144B22F07F029A60BFF34F8F2D
:101C2000BFF36F8FD3F8882022F47002C3F88820A6
:101C3000D3F8882042F4A002C3F888204FF0404235
:101C4000C3F83422BFF34F8FBFF36F8F0023E1EE51
:101C5000103A01F053FE01F099FE00F061FA01F034
:101C600059FE00BF0000000000ED00E01EF0040F70
:101C70000CBFEFF30880EFF30980816911F8021CB3
:101C80000229FFD001B503F0E9FF01BD10F1160FE5
:101C9000074B08D0984208D34033834205D98B4282
:101CA00003D9044870474033F9E70020704700BF6C
:101CB000801C0020C01C00200446084611461A461D
:101CC0000023E1EE103A084B202583F3098863B620
:101CD0004FF0000383F31188BFF36F8FA04785F3A4
:101CE0001188BFF36F8FFEE7C044002001B5EFF30A
:101CF0000580A0F110004FEAC0000449014409C961
:101D00009847BDE80140024908470000E46300002D
:101D1000151D0000704700BF2DE9F041324C074609
:101D2000884632484521154603F015FFA36ADE06B2
:101D300003D52F48452103F00EFFA36A180703D5EA
:101D40002C48452103F007FF274CA36A990728D4A4
:101D50006FF01506244CA36ADB0703D526484521FE
:101D600003F0F9FEA36A9C0603D52448452103F03D
:101D7000F2FE1D4CA36AD80628D4A36A990725D47D
:101D80000020A36A184A9B0642BF636A23F40053EB
:101D90006362936A43F0FF03936200232B70BDE8F4
:101DA000F0811748452103F0D6FE666BA36A1A0638
:101DB000CED514483246452103F0CDFEB8F1000FD0
:101DC000C8D0A36A23F08003A362C3E763681A053F
:101DD000D6D539463046FFF759FF0028D0D080F3DA
:101DE00009880220CDE700BF00ED00E0AC6E0000E6
:101DF000C76E0000FF6E00004F6F0000736F0000A1
:101E0000176F0000346F000010B51D4C1D484521B0
:101E100003F0A1FEA36A9B0103D51B48452103F0F3
:101E20009AFEA36ADC0103D51848452103F093FE0E
:101E3000134CA36A180303D51548452103F08BFE04
:101E4000A36A590303D51348452103F084FE0C4CC3
:101E5000A36A9A0303D51048452103F07CFEA36AC8
:101E6000DB0303D50D48452103F075FE044A936A50
:101E70006FEA03436FEA13439362002010BD00BF73
:101E800000ED00E0A76F0000C46F0000DC6F0000F1
:101E9000FB6F00001E7000004870000067700000BB
:101EA00070B5234C06460D462248452103F053FEEB
:101EB000A36AD90403D52048452103F04CFEA36A48
:101EC0001A0503D51D48452103F045FE184CA36AA9
:101ED0009B0510D51A48452103F03DFEA26BA36A6D
:101EE000180408D51748452103F035FE1EB1A36A32
:101EF00023F40043A3620E4CA36A590503D512488C
:101F0000452103F028FEA36ADA050BD50F484521C9
:101F100003F021FE064A936A002043F47F43936254
:101F2000287070BDA36A9B04F4D509484521EFE7EA
:101F300000ED00E097700000B2700000FF6E00003E
:101F4000C8700000E6700000007100002071000001
:101F5000736F00002DE9F0415D4B5F688AB0054664
:101F6000C7F30804002686F31188BFF36F8F02F0D1
:101F70007F43B3F17F4F07D102F00C03082B14D13C
:101F80005448452103F0E7FD002635464FF0000890
:101F9000E31E8DF80780092B00F28780DFE803F04D
:101FA0000A7A7E7685858585858210074CBF0D4629
:101FB0000126EBE74848464C452103F0CCFD8DF85F
:101FC0000780E36A9A0705D54448452103F0C3FD1D
:101FD000002433E0E36A002B02DA41484521F5E7AB
:101FE000E36A5B00F4D53F48452103F0B4FD636923
:101FF000AA6943F480736361BFF34F8FBFF36F8FA0
:10200000636932F8022C23F480736361BFF34F8F4E
:10201000BFF36F8F4DF602739A4209D0A36ADBB209
:1020200033B30DF1070201212846FFF775FE2FE0BB
:102030002A682D48452103F08EFD2C689DF8073055
:102040009BB92022294602A803F038FE099B002EE6
:1020500038D0C3F3080222B96FEA53236FEA43234F
:10206000099302A92046FFF76DFD0AB0BDE8F08193
:10207000A36A13F47F4F05D00DF107010120FFF78C
:102080000FFF05E0A36AB3F5803FA1D3FFF7BCFEC5
:102090000446D3E70DF107020021C5E70DF1070162
:1020A0000020ECE71148452190E71149114A1248F8
:1020B00017F4F87F08BF0A46A4F11003452103F086
:1020C0004AFD85E723F4FF7323F00103C8E700BF4F
:1020D00000ED00E06B7100009B710000B771000023
:1020E000DD710000F0710000147200003572000014
:1020F0003D710000527100005E720000024A536997
:1021000043F010035361704700ED00E0EFF30880E7
:10211000EFF3098101B57246FFF71CFF01BD00BF57
:10212000044800232021C2180133302B82F8001309
:10213000F9D1704700E100E0002080F31488BFF37C
:102140006F8FFFF77FFC00200D490860BFF34F8FB2
:102150000C4880F3088800F02BF8202080F31188C9
:1021600009484FF40461401880F30988EFF31480A4
:102170000221084380F31488BFF36F8FFFF748FDF7
:1021800094ED00E080440020401400200749D1F87D
:1021900090200023C2F307221846934200DB7047C9
:1021A000C1F89830C1F8A0000133F6E700ED00E077
:1021B00008B572B6002383F31388FFF7E7FF144BCB
:1021C0004FF0FF32C3F88020C3F88420C3F8882082
:1021D000C3F88C20C3F89020C3F89420C3F898204B
:1021E000C3F89C20C3F88021C3F88421C3F8882158
:1021F000C3F88C21C3F89021C3F89421C3F8982127
:10220000C3F89C2162B6BFF34F8FBFF36F8F08BD39
:1022100000E100E0024B034A0348022100F06CB8E1
:10222000000004200000002084660000F8B5244E61
:1022300000258D420FDA4468002C3ED09BB104F19A
:10224000FF3C14EA0C0F08D01E482A46452103F033
:1022500082FC6FF015021046F8BD1F2CF4D90768F8
:102260001CEA070FF0D1202C0768D0F808C05FFAED
:1022700082FE10D9B4F1004F0FD8013CB4FA84F4B7
:10228000C4F11F046400BEF1070F4CEA040C06D928
:102290000D484521DBE70824F5E73E24F3E727F066
:1022A0001F04144344F01004C6F89820C6F89C405C
:1022B0004CF00104C6F8A040013201350C30B8E7FB
:1022C00000ED00E07A720000A2720000044B0522CB
:1022D000C3F89420BFF34F8FBFF36F8F704700BFD9
:1022E00000ED00E0BFF35F8F024B0022C3F89420A3
:1022F000704700BF00ED00E010B5034C01232278C9
:10230000FFF794FF207010BD0510002014490868E5
:10231000082810B521D8FFF7E5FF124C49680022C4
:10232000904201F10C0105D10F4B1870FFF7CEFF61
:10233000002010BDC4F8982051F80C3C23F01F0376
:10234000134343F01003C4F89C3051F8043C43F0AD
:102350000103C4F8A0300132E2E74FF0FF30E8E7B4
:102360009C66000000ED00E005100020014B1860A5
:10237000704700BF100000204FF02002EFF31183E0
:1023800082F31288BFF36F8F044A0121C2F840150F
:1023900083F31188BFF36F8F0020704700E0014086
:1023A0004FF08043C0B2C3F81C05BFF34F8F0549FF
:1023B000054BCA6802F4E0621343CB60BFF34F8F52
:1023C00000BFFDE700ED00E00400FA0520B1034B7B
:1023D000800143F001031847704700BFF06500001B
:1023E000084B70B5C31A0D4607499B100446594364
:1023F0000648402203F095FC2B4601462046BDE8E6
:1024000070401847CC0D0020B76DDBB69C63000010
:1024100073B50C4C0C4A4023041B00930D460B462D
:102420000A49A41061430646094803F0A6FC011EB0
:1024300005DA30462B4602B0BDE87040184702B0BE
:1024400070BD00BFCC0D0020EB5D0000B76DDBB6AA
:102450009C63000010B54FF02003EFF3118483F369
:102460001288BFF36F8F074A136823F00201DB075E
:10247000116002D4012003F00BFF84F31188BFF335
:102480006F8F10BD1C0E0020002270B50121044684
:102490001046FFF7A1FB0F4801F0FEF80E4B9842E3
:1024A00015D103F0ACFE26690C49304603F0C9FA99
:1024B00000280BDB012535642469084904F11C0060
:1024C00003F0BFFA002801DBE564002070BD6FF067
:1024D0000400FBE7152500000000AD0BBC66000002
:1024E00070B501460C2309484B43C418D4E90E5675
:1024F00000224033A263184403F000FC2DB13246A1
:102500002B460348BDE87040184770BDCC0D002035
:102510009C63000010B1012804D07047034B1B6C72
:102520005B0701D1FFF7DCBF704700BFCC0D002077
:1025300008B54FF02003EFF3118183F31288BFF346
:102540006F8F124A136843F002001060DA0708D454
:1025500081F31188BFF36F8F0120BDE8084003F0BD
:102560005BBE4FF08043D3F80C24D3F80C34D30770
:10257000EED5074803F0C2FB81F31188BFF36F8FDC
:102580000020BDE80840FFF7ABBF00BF1C0E0020D5
:102590000C0E00202DE9F8433649BFF35B8F074648
:1025A000012251E8003F41E800200028F9D1BFF3A3
:1025B0005B8F33B9304931484B60CB608A6003F0A0
:1025C00053FA7B1E012B2DD8012F07D14FF08043EA
:1025D000D3F81C3403F00303012B23D003F07FFE58
:1025E000054608BB264B1B78F3B14FF0804302220F
:1025F000C3F808230646DFF88C904FF080444FF074
:102600000108D4F81834D4F81824D20316D503F0EE
:102610000303012B01D0012F10D12DB386F31188B4
:10262000BFF36F8FBDE8F8834FF02003EFF31186FF
:1026300083F31288BFF36F8F0125DCE73046FFF785
:1026400075FAD4F81835002BDBD1D4F80421002A10
:10265000D7D0C4F80431D4F80431C4F81885C9F8C7
:102660008081C4F80880CCE74FF080430222C3F891
:102670000423D7E7C80D0020B80D0020E80D002086
:102680001914002000E100E008B5074803F018FE27
:1026900038B10648FFF76AFE0448FEF77DFE0020C9
:1026A00008BD6FF01200FBE7B4630000B126000024
:1026B0000A2838B5074D044604D1AB680D215B6884
:1026C00028469847AB6803485B68E1B298472046C4
:1026D00038BD00BFB4630000024B0B6001231360E0
:1026E000704700BF200E00200048704710670000B0
:1026F00010B503F0D9FD034C206003F0D1FD6060FC
:10270000002010BD200E002070B50D462846194649
:1027100016461C4603F079FB40B9084823462A4672
:10272000452103F018FA6FF0150070BD24B1224660
:102730002946304603F0C2FA0020F6E7097300008C
:102740004FF08042D2F81015D2F8103501F01E017A
:1027500023F01F030B4343F00103C2F81035024B73
:1027600000221A70704700BF061000204FF08053FF
:10277000D3F83031082B20D14FF08042D2F8101519
:10278000CB071AD5D2F8103501F01E0123F01F0334
:102790000B43C2F81035D2F808315BB1D2F81035CE
:1027A00023F01F030B4343F00103C2F810356FF011
:1027B0008B007047024B01221A700020704700BF47
:1027C000061000202DE9F0410F46154603F068FD84
:1027D00029460646384603F018FBB84660B3B7FBF7
:1027E000F6F306FB137323B9B5FBF6F406FB14549A
:1027F00044B114482B463A46452103F0ACF96FF03A
:10280000150413E0AE4211D803F04AFD0E4F064600
:10281000FFF7ACFF044660B9404600F08DFF3B78FF
:102820000BB1FFF78DFFAD1BB044F1D12046BDE8E1
:10283000F0816FF08B04F9E704482B463A464521B6
:10284000DBE700BF2B7300000610002009730000B7
:102850002DE9F8430E463046194617461C4603F04C
:10286000D4FA48B91B4823463246452103F073F990
:102870006FF01500BDE8F88346EA040515F003057E
:1028800004D01548234632464521EFE7FCB1DFF876
:1028900050902B19032BA6EB050806D80F4AD2F847
:1028A0000034DB07FBD50020E4E7FFF75FFF58B9F2
:1028B0007B1B4046196800F05FFF99F800300BB1B0
:1028C000FFF73EFF043DE4E76FF08B00D2E72046C0
:1028D000D0E700BF097300004F73000000E0014023
:1028E00006100020F8B5044607690D4603F0F7FC12
:1028F00090B92C4B1B787BB16426606803F01CFBFD
:10290000E0B9012003F079FC013EF6D1F4E786F34B
:102910001188BFF36F8FEFE74FF02003EFF31186BD
:1029200083F31288BFF36F8F6068314603F004FBB6
:1029300090B986F31188BFF36F8FEDE74FF0200356
:10294000EFF3118683F31288BFF36F8F606831460F
:1029500003F0F2FA0028DAD03B691D70626838692A
:102960001368C3F844050120C3F848050020C3F8E4
:102970002001D3F82051C3F858015268D3F8580108
:10298000D20608D5626812680820C2F800054FF424
:102990008002C3F8042301229A6081F31188BFF3F7
:1029A0006F8FF8BD19140020F0B54B79012B26D09C
:1029B000032B21D110258B79032B1DD1CE790EB19C
:1029C000012E19D10A7912B1022A15D10E220B68F3
:1029D0004468B3F5164F276867D02DD8B3F5165F56
:1029E00066D016D8B3F5966F64D00AD8B3F5967F43
:1029F00063D0B3F5167F63D06FF0850054E00025F7
:102A0000D9E7B3F5166F5ED0B3F5965FF4D1384BC6
:102A10003CE0B3F5E14F59D007D8B3F5615F57D02B
:102A2000B3F5964FE8D1334B30E047F61224A3427A
:102A3000E2D14FF4000329E0B3F5613F4AD013D847
:102A4000B3F5963F49D009D84DF6C024A34246D0ED
:102A5000B3F5614FD0D14FF46B0317E0B3F5E13F0D
:102A6000CAD14FF0EB7311E0B3F5612F3AD008D81B
:102A7000214CA34239D0B3F5E12FBDD14FF0E8632B
:102A800004E01E4CA342B7D14FF080530469C7F84D
:102A90002435436835431B682A43C3F86C2503C9B2
:102AA000231D83E803000020F0BD4FF41D03EDE774
:102AB000134BEBE74FF49E23E8E74FF4A033E5E731
:102AC0004FF41C33E2E74FF41D23DFE70D4BDDE746
:102AD0000D4BDBE74FF06C73D8E70C4BD6E74FF4A8
:102AE0006503D3E74FF07063D0E74FF08063CDE725
:102AF00000B0130000A04E0090D0030040420F0031
:102B00000050270000C0750000F03A0000903A0124
:102B10002DE9F7438046002201210220FFF75CF8EF
:102B20000220FFF73DF8D8F80470D8F810603C6830
:102B30000021C4F80015C6F80080D7F80C9001AA4F
:102B4000484603F04EFA051E1EDB019BD9F8002013
:102B50001979186800F06AFA051E15DB311D404628
:102B6000FFF722FF054678B97B68990724D506F15F
:102B7000180000F00FFE244B984209D0234845214D
:102B800002F0E9FF6FF00405284603B0BDE8F083CA
:102B9000337EDB0003F1804303F5F83304F10C02CC
:102BA00004F59071C3F81015C3F81425327E012383
:102BB0009340174AC2F804350823C4F800353B7A1D
:102BC00053B9C4F81031D4F810317369C4F83435EE
:102BD0000123C4F8383523607B689A075CBF4FF443
:102BE0008073C4F804337B68DB0644BF4FF4800372
:102BF000C4F804333369C4F844350023C4F84835B5
:102C00000123A360E360BFE70000AD0B96730000F3
:102C100000F0014070B5012383400E4ABFF35B8F83
:102C2000DC4352E8001F01EA040542E80056002E8A
:102C3000F7D1BFF35B8F4FF4803282400648C0F873
:102C40000823BFF35F8FBFF36F8F0B4214BF0120C8
:102C5000002070BD2C0E00200010014070B40E4901
:102C6000D1E90034D01AC31844F1000422F07F46A1
:102C7000C1E90034A6F50013B3F5400F09D2074BA4
:102C80001B681A0A1B069C19054B42F10005C3E993
:102C9000004570BC00F0DABEB8000020300E002005
:102CA000C000002011B3BFF35B8F0123104A8340A3
:102CB00052E800CF4CEA030C42E800C10029F7D1EA
:102CC000BFF35B8F0B4A4FF480338340C2F8043369
:102CD000094BBFF35B8F1B68BFF35B8FC340DB0700
:102CE00042BF064B4FF40032C3F80021704700BFCB
:102CF0002C0E002000100140280E002000E100E012
:102D00000D4B1868010A0006BFF35F8F0B4BD3F819
:102D10000435181841F10001B3F5801F0AD2084BA1
:102D2000D3E90023904271EB030303D210F18070CA
:102D300041F10001704700BF300E0020001001403B
:102D4000C00000202DE9F74F16461F460446FFF746
:102D500061FF0090FFF7D4FFB04271EB070351D23F
:102D60003A4B301A67EB0101984271F100016AD2C7
:102D7000374B03EB0413D3E902239F4208BF96426B
:102D80004ED034494FF4803904F1500509FA04F962
:102D9000AD00C1F848932046ADB203F016F926F015
:102DA0007F4B05F1804504F5A8732B4A019305F587
:102DB0008835DC464FF0030A019B2CF07F4041F838
:102DC0002300C1F84493D1F804856FF00200A0EB12
:102DD0000800604420F07F40904221D9286860B10B
:102DE000D1F80485A8EB0B0020F07F40B0F5000F70
:102DF00016D9204603F0E9F8174A0AEB080C0AF145
:102E0000010AD9E70123154ABFF35B8FA34052E8BB
:102E1000000F184342E800010029F8D1BFF35B8F8F
:102E20000B490C98230101EB0412C2E90267C85058
:102E30000D9B5360002520460099FFF733FF28467D
:102E400003B0BDE8F08F6FF01505F4E701008000D6
:102E5000A800002000100140FDFF7F00280E002088
:102E600073B5194B194D00244FF0FF304FF0FF316F
:102E7000C5F80845C3E902014FF48033C5F80433AF
:102E8000134B02264FF400320121C5F804631120D0
:102E9000C3F880212246FEF79FFE1120FEF780FE38
:102EA0000C4A0123AB602B6013600B4B0B4A009361
:102EB000019400232046FFF745FF3046FFF76AFBE9
:102EC000204602B070BD00BFA800002000100140E5
:102ED00000E100E02C0E00205D2C0000FFFF7F00D1
:102EE0002DE9F7432F4CD4F8043399070BD5D4F8C8
:102EF000043143B12C4A0023C4F80431D4F804311E
:102F0000136801331360D4F80433DA032AD5BFF30E
:102F10005B8F264B53E8002F22F0010143E800109D
:102F20000028F7D1BFF35B8FD30702D4D4F8403128
:102F3000C3B10025C4F84051D4F84031FFF7E0FE9A
:102F40004FF02003EFF3118283F31288BFF36F8FEA
:102F5000174BD3E90267B042B94106D282F3118818
:102F6000BFF36F8F03B0BDE8F0834FF0FF384FF031
:102F7000FF39C3E90289D3E900101D604FF48033A3
:102F8000C4F84833C4F84051D4F8403182F3118872
:102F9000BFF36F8F0029E5D0009032463B462846AC
:102FA0008847DFE700100140300E0020280E002087
:102FB000A8000020431C13B522D0012822DD124AAC
:102FC000124B9042D4BF04461C46FFF799FE104BAB
:102FD0000E49D3E90023801AB0F5000F28BF002462
:102FE00004448C4228BF0C46A2180A4900914FF0B5
:102FF0000000019043F10003FFF7A4FE02B010BDF2
:10300000024CE2E70124E0E7FEFF7F00FFFF7F00C4
:10301000B80000205D2C000008B5FFF771FE024BE0
:103020001B68C01A08BD00BFB80000202DE9F041A0
:10303000454E00EB81010127814202D10020BDE80D
:10304000F081056805F07F03C5F343247F2B4FEA29
:10305000154508BF4FF0FF33192D72D8DFE805F092
:103060000D1E22257171717171717128507171710C
:1030700071717171717153686B6EC2F80C354FEAE2
:10308000531CBCF1010F03F01F0514BF4FF0A04CFF
:10309000B44607FA05F5CCF8085547E0C2F81435F0
:1030A00000250BE0C2F80835E9E7C2F81035F7E76C
:1030B000C2F80835002CF3D10025062450F8048B03
:1030C00008F4005EBEF1000F03F01F0CC8F3C11836
:1030D0004FEA53134FEA04240EBFAE464FF0010EE1
:1030E000002544EA8804012B0CBF33464FF0A0436F
:1030F0002C430CF5E07C44EA4E0443F82C409BE75B
:10310000C2F80C35D6E7C2F860350568C5F38035DE
:10311000002DB4D15D09012D14BF4FF0A04CB44671
:1031200003F01F0507FA05F5CCF80C550125C5E796
:10313000C2F86435E9E7C2F86835E6E7C2F86C35ED
:10314000E3E76FF085007AE70003005030B50C49E3
:103150000C4D0B680246002405EB0310D0F808085C
:10316000C0B218B904B10B60002007E00133072B8F
:103170004FF00104F0D90B606FF01B00136030BDFD
:10318000340E002000E00140034808B5452102F05C
:10319000E2FC0020FFF704F9D873000030B5816825
:1031A00085B0103921F00704054602F029FD1022F0
:1031B0000146684602F08DFD07491022684602F07C
:1031C0007DFD10236A462146284602F0E7FC0038C0
:1031D00018BF012005B030BD0069000030B50D46B4
:1031E000816887B0102302AA1039044602F0C1FC9E
:1031F000002802DA012007B030BD102202A92046C3
:1032000002F063FF00283AD11E49102202A802F002
:1032100045FD00280CBF012302232B70204602F03D
:1032200040FF012301460DF10702204602F0A1FCF8
:103230000028DFDB9DF8073003F00F021B096A70DE
:103240002B7101220DF10701204602F03EFF10B95B
:103250006B78042B03D901236B7000232B71A268B8
:10326000183A22F00702083AA91C204602F040FF53
:103270000028BFD1E91C204602F093FFBBE70323DF
:10328000CBE700BF006900007FB505466946022014
:1032900002F08DFF044610B1FF2004B070BD02A9FA
:1032A000052002F084FF012836D129482A46492109
:1032B00002F051FC274B02938DF80C409DF8005012
:1032C0009DF80860244C00222078294602F0EFFE89
:1032D00048B36078314602F0EAFE20B3A378042BAD
:1032E00003D09DF8031099421DD1E378042B03D03D
:1032F0009DF80B10994216D12379042B0FD16379D5
:10330000022B1BD1154A1648492102F024FC607992
:10331000831E022BC1D9BFE70028CFD0BCE79DF8A0
:1033200002109942EBD00132032A04F10604CBD1FA
:103330000C48492102F00FFC0120AEE7032B05D019
:10334000094A0A49042B08BF0A46DCE7084ADAE7BB
:103350001D7400000301030390740000FF7300005C
:10336000687400007B740000047400001674000090
:10337000FA7300004FF08053D3F83021082A06D1A9
:10338000D3F83431052B02D8024AD05C70470020B4
:10339000704700BFA8740000024AD2F80034002B26
:1033A000FBD0704700E0014010B54FF08053D3F8D8
:1033B0003021082A4ED14FF080420021C2F80C1172
:1033C000C2F81011C2F8381502F54042D3F80414BF
:1033D000C2F82015D3F80814C2F82415D3F80C1439
:1033E000C2F82815D3F81014C2F82C15D3F8141409
:1033F000C2F83015D3F81814C2F83415D3F81C14D9
:10340000C2F84015D3F82014C2F84415D3F8241498
:10341000C2F84815D3F82814C2F84C15D3F82C1468
:10342000C2F85015D3F83014C2F85415D3F8341438
:10343000C2F86015D3F83814C2F86415D3F83C14F8
:10344000C2F86815D3F84014C2F86C15D3F84434A8
:10345000C2F87035FFF78EFF18B1434B434AC3F8EB
:103460008C26FFF787FF18B1414BFB22C3F81825C4
:10347000FFF780FF70B14FF080414FF08053D1F8DB
:10348000E42ED3F8583222F00F0203F00F03134357
:10349000C1F8E43EFFF76EFF20B1364B4FF40072E7
:1034A000C3F840264FF08053D3F83031082B09D1B0
:1034B0004FF08043D3F80024D20744BF6FF00102DD
:1034C000C3F800242C4AD2F8883043F47003C2F8C1
:1034D0008830BFF34F8FBFF36F8F4FF08053D3F817
:1034E0003021082A0ED1D3F83431052B02D8234AD3
:1034F000D35C3BB14FF01023D3F808224FF0804348
:10350000C3F858254FF01023D3F80022002A03DB1C
:10351000D3F80432002B22DA194901234FF010208E
:10352000C1F804351224FFF737FFC0F80042FFF757
:1035300033FFC0F80442FFF72FFF0023C1F8043522
:10354000FFF72AFFBFF34F8F0B490E4BCA6802F4F7
:10355000E0621343CB60BFF34F8F00BFFDE70A4B20
:103560000A4A1A6010BD00BF0050004048810300A5
:1035700000F000400090024000ED00E0A274000066
:1035800000E001400400FA05300000200090D00364
:1035900070B501250268BFF35B8FB2FA82F3C3F105
:1035A0001F03DBB205FA03F422EA040450E8006FBB
:1035B000964204D140E8004CBCF1000FF6D1BFF3B5
:1035C0005B8FE7D101480B7070BD00BF0000AD0BF1
:1035D000F7B5044618B1012822D003B0F0BD4FF072
:1035E00080430222C3F80823C3F80401D3F804215E
:1035F0000122DA60074601238DF8073042F2107588
:103600004FF08046CCB1012CE7D1C7B3D6F80C34CB
:1036100003F001033B70D6F80C34DA0321D516E031
:103620004FF080430022C3F80803C3F80021D3F809
:10363000002158600DF10707DDE7B7B1D6F818345F
:1036400003F003033B60D6F81834D803C5D59DF8C2
:103650000700012803D102F0D0FD013DD2D1012C99
:10366000BBD10C4B00225A71B7E7D6F81834D903F6
:10367000B3D5012002F0C1FD013DF6D1ADE7D6F88A
:103680000C34DB03EDD5012002F0B7FD013DF6D18E
:10369000E7E700BF380E0020044B1A7922B9012257
:1036A00018609A800248704702487047380E002020
:1036B0000000AD0B0C00AD0B10B54FF08043D3F8FC
:1036C00000216AB10022C3F80021D3F800210122B1
:1036D000C3F80823114B587910B95A711B689847E1
:1036E0004FF08043D3F8042172B10022C3F80421C3
:1036F000D3F80421D3F81824D3F81814920704D16E
:103700000122C3F818259A6010BD0222C3F80823CD
:10371000024BBDE810401B6801201847380E0020FE
:10372000044AD2F80034DB07FBD50160BFF35F8F9A
:10373000704700BF00E001404FF080531A69B0FBB2
:10374000F2F302FB130373B9084B0222C3F80425FA
:10375000C3F80805D3F80024D207FBD5002204489B
:10376000C3F8042570470348704700BF00E00140DC
:103770000000AD0B0A00AD0B10B5054C0123C4F8D9
:103780000435FFF7CDFF0023C4F8043510BD00BF9A
:1037900000E0014001460148FFF7FABE3400002076
:1037A00010B5144C144A1549032323616361144B6B
:1037B000A261E3614FF4806323620023A36263622A
:1037C000E36222660F4A62661022A266E01D23674A
:1037D000E366636702F051FABFF35F8F0A49204640
:1037E00002F04BFABFF35F8F2023A371BFF35F8F0B
:1037F00010BD00BF400E0020CB740000D474000048
:103800001910002009100020D874000073B5044678
:103810000D464FF02003EFF3118683F31288BFF3B8
:103820006F8F042896BF124B124B53F820300022A2
:10383000009245210246104802F08DF93DB1EB6936
:10384000C3F308031BB10D48452102F084F90C4B6A
:103850000C480022452102F07EF929462046FFF758
:1038600093FC86F31188BFF36F8F02B070BD00BF69
:1038700060670000DF740000ED7400001A7500003E
:1038800040750000487500000F4B70B553F820409C
:10389000013053F82060A64200D870BDD4E900354D
:1038A000284698476DB138B10028B8BF4042EB6850
:1038B000FF28A8BFFF201870EA68537843F001037F
:1038C00053700834E7E700BF7467000008B5094B80
:1038D000012203201A70FFF7D7FF00F013F904202C
:1038E000FFF7D2FFFCF776FD034A137B23F00103B9
:1038F000137308BD19140020C800002008B5034840
:10390000034A0021121A02F0E6FC08BDA8000020BC
:103910001C14002008B50020FFF7B6FF184B83F3F6
:103920000888184C636943F4007363610025E02341
:1039300084F82230E57725766576A57684F82050E0
:10394000636A43F4E023636284F82350FEF7D6FBF6
:10395000FEF7D8F84FF0FF33A362E362FEF7D6FC20
:10396000FEF758FC02F0ABFC0120FFF78DFF0220B0
:10397000FFF78AFF04482B462A462946FEF79CF9A2
:10398000801C002000ED00E0CD38000008B506489E
:10399000064A0749121A02F0A0FCBDE80840054A91
:1039A0000549064802F099BC00000020A60000204E
:1039B000E075000000000000E0750000000000203D
:1039C000034B1B680BB9FFF727BB0020704700BFF4
:1039D000E80E002010B50E4B1C689C4204D1FFF786
:1039E000EFFF6FF0004010BDFFF7EAFF002CF8D0AA
:1039F000D4E904321B1A62EBE072B3F1004F72F1AA
:103A00000001EEDA002AACBF18460020EBE700BF49
:103A10003800002030B570B10B4B5B6898420AD07B
:103A2000036843B1D3E90421D0E90445121941EBFD
:103A30000501C3E90421D0E9003213605A60002374
:103A4000C0E9003330BD00BF380000202DE9F84345
:103A500003464FF02002EFF3118482F31288BFF384
:103A60006F8F254FDFF89490D9F80000DFF890C0F1
:103A70003B604845DCE9001E4FEAE3750CD058B1C5
:103A8000D0E90486434575EB060217DAB8EB03026A
:103A900066EB0506C0E9042659184EEB0505CCE98E
:103AA000001500253D60FFF795FF2946FFF782FAD4
:103AB00084F31188BFF36F8FBDE8F88318EB010121
:103AC0004EEBE873CCE9001300220023C0E9042385
:103AD000FFF7A0FF84F31188BFF36F8F83689847C7
:103AE0004FF02003EFF3118483F31288BFF36F8F3D
:103AF0003B68A3EB0803B7E7E80E0020380000207E
:103B000048010020014801F03EBF00BFB27500002F
:103B100010B50A4C23681BB101232360002010BD9F
:103B200000F052F80028F7D00138062803D8044BDB
:103B300053F8200010BD034810BD00BFEC0E00205C
:103B40008C670000FE8FFFFFBFF34F8F0549064BC8
:103B5000CA6802F4E0621343CB60BFF34F8F00BF2B
:103B6000FDE700BF00ED00E00400FA0510B40A4BC9
:103B70000A490B4C4FF0FE32C3F800244968C3F8E1
:103B80000424C3F80824C3F80C240023C4F8003527
:103B90005DF8044B084700BF00B002504000002011
:103BA00000A00250D0E90012014BC3E90012704797
:103BB0004000002038B131B10144002203460130F9
:103BC00088421A70FAD1704738B500F02FF820B14A
:103BD000032400F063F8204638BD00F031F898B9AE
:103BE00000F0ACF898B90F4DD5F828391B0EF02B22
:103BF00008D1D5F8242A0C4B9A420AD0072400F0A9
:103C000017F8E6E70624FAE70424204638BD002426
:103C1000F5E7012000F092F804460028F7D1C5F836
:103C20000C0AD8E700B002500000E02000207047E6
:103C300000207047014BC3F8040A704700B00250DF
:103C400010B5114800F048F800B110BD0F4800F061
:103C500043F80028F9D10E4C204600F03DF800282A
:103C6000F3D10C4B0C481C6000F036F801460028DC
:103C7000EBD100F02DF8044608B1204610BD00F04D
:103C80003FF82046FAE700BF54000020480000201B
:103C900050000020580000204C00002008B50848C3
:103CA00000F024F8074800F021F8074800F01EF85B
:103CB000064800F01BF8BDE8084000F00BB800BF54
:103CC0005400002048000020500000204C0000203C
:103CD00000207047704700BF08B5034B02681B689F
:103CE00010689847002008BD6400002008B5034B09
:103CF00002685B6810689847002008BD64000020D7
:103D000070B5094C094D2069AB68984718B1084B4C
:103D100008485B689847084AEB68206900211160F1
:103D2000BDE87040184700BF740000206400002008
:103D300040000020A8670000F00E0020F8B51A4DE2
:103D40001A4E0446B26828699047E8B9184F3B6894
:103D50004CB1A3B1012B19D0013B3B602869F3683A
:103D600098470020F8BD43B9124A0121C2F8001556
:103D70001149D1F81029002AFBD101333B60F368C7
:103D8000286998470020F8BD0C48F8BD0A4AD2F8C7
:103D90001039002BFBD1074A6FF07E40C2F8003586
:103DA000FFF748FF3B68D7E774000020640000205D
:103DB000F00E002000A0025000B00250E98FFFFF7B
:103DC00010B5044650B1636813F0685F05D0064A29
:103DD000934202D000232360626010BD034B04486D
:103DE0005B689847EFE700BF2C5F5CA940000020AC
:103DF000C8670000C8B143680D4A934213D013F05E
:103E0000685F0ED0012350E8002F194640E8001CDF
:103E10009CF0000FF7D1012AF5D0BFF35F8F00208F
:103E2000704704487047044870476FF4E04070479B
:103E30002C5F5CA9E98FFFFFEA8FFFFF80B1436829
:103E4000094A93420AD013F0685F05D0BFF35F8F31
:103E500000230360184670470448704704487047C1
:103E60006FF4E040704700BF2C5F5CA9E98FFFFF53
:103E7000EA8FFFFF10B5044620B1044B63600022B7
:103E8000226010BD0248FFF771FEF6E73A00003AE3
:103E9000F067000030B10268034B04489A4208BF43
:103EA0000020704702487047DD55AABB8208F00029
:103EB0007108F00038B50D460446B0B1A0220021CB
:103EC000043002F030FA95B10822294604F164006A
:103ED00002F02FFA082205F1200104F1840002F01B
:103EE00028FA044B2360002038BD0348FCE7034850
:103EF000FAE700BFDD55AABB7108F0008308F000A7
:103F00002DE9F74305460E4699461146FFF7C2FFD5
:103F10000446002840F08480002E00F085800029AF
:103F200000F08480B9F1200F40F0828005F1440454
:103F3000082205F10408204602F0FBF905F12407E8
:103F400008223146404602F0F4F906F12001082229
:103F5000384602F0EEF902A94FF4807041F8049D52
:103F600002F0DBF9002865D1334A4FF48073136007
:103F7000012193600823314A00F02EFB01210846FD
:103F800005232F4A00F028FB0823424601211C206C
:103F900000F022FB08233A460121032000F01CFB1D
:103FA000224608230121022000F016FB0823254A9F
:103FB00001211A2000F010FB0523234A01211B20B8
:103FC00000F00AFB0823214A0121142000F004FB21
:103FD00008231F4A0121152000F0FEFA082305F1ED
:103FE00064020121162000F0F7FA082305F184028B
:103FF0000121172000F0F0FA0823164A01210B20B6
:1040000000F0EAFA00F044FB0446019800F0D2FA0E
:10401000114B002C18BF1C46A421284602F085F93C
:10402000204603B0BDE8F0830C4CF9E70C4CF7E7F1
:104030000C4CF5E7084CEFE790B0025054680000D4
:10404000CC68000014680000B868000078680000C0
:1040500098680000346800008408F0007608F000DA
:104060008008F0008108F0000C4BC2691A60826978
:1040700043F8042C426943F8082C026943F80C2CDD
:10408000C26843F8102C826843F8142C426843F845
:10409000182C026843F81C2C704700BF5CB6025015
:1040A0000C4B1B68C3610C4B1B6883610B4B1B687B
:1040B00043610B4B1B6803610A4B1B68C3600A4BCF
:1040C0001B688360094B1B684360094B1B680360D6
:1040D000704700BF5CB6025058B6025054B602504A
:1040E00050B602504CB6025048B6025044B6025088
:1040F00040B6025030B10268034B04489A4208BFF0
:104100000020704702487047DD55AABB0202F0004C
:104110000002F00038B5044668B1051D702128463C
:1041200002F003F928462022044902F0FAF8044B71
:104130002360002038BD0348FCE700BFE0680000B2
:10414000DD55AABB0002F0002DE9F043284B0446E0
:104150000E4615460FCB85B06F4687E80F002DB988
:104160004FF00009484605B0BDE8F0832046FFF750
:10417000C1FF81460028F5D1231D0193636AA3BBCB
:10418000236F8BB1C3F14008A84528BFA84604F1AE
:10419000300031461844424602F0C3F8236F4344CE
:1041A00046442367A5EB0805226F402A06D104F197
:1041B0003001384600F0AEFB0023236705F03F08CE
:1041C00035F03F0505D031462A46384600F0A2FBBF
:1041D0002E44B8F1000FC3D04246314604F13000FE
:1041E00002F09FF8C4F87080BCE7DFF80890B9E7E8
:1041F000E06500000C02F0002DE9FF41144B04467D
:104200000E460FCB6F4687E80F002046FFF772FF80
:104210008046B0B9CEB1636A251D01953BB9012333
:104220006362226F04F13001384600F073FB2B46C5
:10423000043E243453F8042B12BAA34246F8042F48
:10424000F8D1404604B0BDE8F081DFF80880F8E717
:10425000E06500000502F000084B1B681B0EF02B08
:1042600008D1074B1A68074B9A4205D1064B00202C
:1042700018607047052070470620704728B9025023
:1042800024BA02500000E0200CBA0250002230B5DF
:1042900049001346023840F6FC7502F1A05404F5BB
:1042A0002C44A400904202F10102CABF23602560A1
:1042B0005B181E2AF1D1044A13600B445360034B70
:1042C000034A1A6030BD00BF78B0025084B002507B
:1042D00020F80F0030B51E4B85B01A4619680091C2
:1042E0000099CC07FAD500F1A05000F52C408000D1
:1042F000016813680193019BD807FAD5154B164C3A
:104300001868164D1F30202390FBF3F00138002869
:1043100010DA00230130400153B1A0F120014FF029
:104320000042134204D1013888424FEA5202F8D1C8
:1043300005B030BD13680393039BDB07FAD5431820
:1043400023602B680293029B002BE3D10138DEE748
:10435000B4B00250ACB00250E4B00250DCB0025035
:10436000F0B51D6885B001F01F040DB91F2C25D1D3
:10437000154D2E462F680197019FFF07FAD500F1D2
:10438000A05000F52C408000006835680395039D1F
:10439000ED07FAD50D4D00EB611028600C48006860
:1043A00002901F2C18BFC94302980FBF106001F084
:1043B0001F0100FA01F1116000211960106843002B
:1043C000C00F136005B0F0BDB4B00250E4B00250AD
:1043D000DCB002500C4B18603F3020F03F008901E8
:1043E000403058609960D9601961596199611C33F6
:1043F0000648196082B002680192019AD207FAD584
:10440000196002B0704700BF90B00250B4B00250C3
:1044100038B5A0F12003B3F5426F05462CD88F289C
:1044200026D800F1470300F16604DB064FEA541476
:1044300000D0013464013F34A409013411B1A14218
:104440001AD30C46E3004FF48050B0FBF3F0202861
:1044500028BF202002B11060084B01221A602146BB
:10446000FFF714FF28462146FFF7B4FF002038BDB0
:1044700000F11F046409DDE70148F8E71CB80250A9
:104480002221F000F0B5454B89B01D461C6801940F
:10449000019CE407FAD5424BDFF80CE1DFF80CC1D0
:1044A00013449B0000241A680B181E2B88BFC0F110
:1044B0001E011F320B1852095343B3F5806F82BFA0
:1044C0004FF48061B1FBF2F1091A00F1A05000F540
:1044D0002C402746A14233DC2B680493049BDB0766
:1044E000FAD5304B1B68296805910599CF07FAD595
:1044F0002D4C2E49236000231E46934203F10100F8
:1045000040D120F001022948194600268A423CD8B1
:10451000296806910699CE07FAD5254909682868C1
:1045200007900798C007FAD52160204800210C4663
:104530008B422DD11D4900209A422CD809B0F0BDE4
:104540002B680293029BDB07FAD503199B001B68BB
:104550002E680396039EF607FAD5CEF800300023A6
:10456000934203F1010306D1164623F00103B3423F
:1045700004D80134AEE7CCF80070F1E7CCF8007055
:104580000136F4E70E600346B7E706600131BDE788
:1045900004600131CCE708600133CDE7B4B00250CC
:1045A00024AC00147CB00250D4B00250D8B00250F9
:1045B00078B0025008B540B1202801464FF00702FC
:1045C00028BF20210020FFF75DFF024B00221A6068
:1045D00008BD00BF1CB80250F0B5294D85B02C466F
:1045E0002E680096009EF607FAD500F1A05000F55F
:1045F0002C4080000568206801900198C707FAD513
:104600002048214F056002EB8306B24229D15A1C93
:104610001D4E22F0010200279A4227D823680293F8
:10462000029BDE07FAD5194B0B449B001B681F3316
:104630005B099A4213D2216803910399C907FAD5FD
:10464000154400219B1A104A056008468B4210D879
:104650005A1C0D4922F0010200209A420CD805B0E4
:10466000F0BD52F804CBC7F800C0CEE73760013385
:10467000D2E710600131E9E708600133EDE700BFE0
:10468000B4B00250D4B00250D8B0025024AC0014E0
:104690002DE9F041814B1D6898682033A0B01E467B
:1046A0001A680192019AD707FAD57D4B7D4A1A60A4
:1046B00032680292029AD407FAD57B4A1A607B4A82
:1046C0001446116803910399C907FAD5784A11680D
:1046D000C1F3402137680497049FFF07FAD5754F4F
:1046E0001F6027680597059FFF07FAD517680029FF
:1046F00000F0CF80B90540F1CC8031680691069971
:10470000CF07FAD56C491960216807910799C90745
:10471000FAD51168C1F3402137680897089FFF0751
:10472000FAD5664F1F6027680997099FFF07FAD5DA
:104730001268002900F0AF80910540F1AC8032682A
:104740000A920A9AD207FAD5564A1A6032680B9230
:104750000B9AD707FAD55A4A1A6031680C910C990E
:10476000CC07FAD55749196031680D910D99C907E1
:10477000FAD55549196031680E910E99CF07FAD5CF
:104780005249196031680F910F99CC07FAD55049F9
:104790001960504B1E46196810911099C907FAD537
:1047A0003F4C4D4B236033681193119BDB07FAD5C7
:1047B0004A4B236033681293129BDF07FAD5484BAC
:1047C00023603A4B9846196813911399C907FAD593
:1047D000324F386033681493149BDB07FAD522609C
:1047E00033681593159BD807FAD53E4B2360336881
:1047F0001693169BD907FAD53B4B23603368179362
:10480000179BDA07FAD5394B236033681893189B46
:10481000DB07FAD5364B236033681993199BD80709
:10482000FAD5344B236033681A931A9BD907FAD50B
:10483000314B236033681B931B9BDA07FAD52F4B50
:10484000236000F01DFC08BBD8F800301C931C9BB3
:10485000DB07F9D53D6033681D931D9BD907FAD559
:10486000274B236033681E931E9BDA07FAD5254B2E
:104870002360D8F800301F931F9BDB07F9D50C4B42
:104880001B6813F4805F204B08BF184620B0BDE8BA
:10489000F0811E48FAE71E48F8E700BF90B00250CA
:1048A00080B0025000100251C01F7229B4B00250F3
:1048B00088B00250C0CF0129C01F0E29C03F002977
:1048C00040010249003184A800001649400108A1B6
:1048D00080440888B0B00250C044708880077A4194
:1048E000C0077E4100006A498006164940006E49B3
:1048F0000002002100822021408220218082242188
:1049000040A161A100C861510308F1000108F10054
:104910000208F1002DE9F74F314B4468804692467A
:1049200099461A68002AFCD12E4B9B461A68002A29
:10493000FCD14FF0FF30019100F094FC802000F09A
:1049400097FC294D294A2A4F2A4E012307202B6024
:10495000A2F59E72C2F83C011360636A3B60A36AD1
:104960003360D8F8003042F8043CD8F808302046CC
:1049700098470199D9F80030002BFBD1BAF1000F0C
:1049800020D11D4B04221A60D9F80030002BFBD136
:10499000DBF800A0BAF1000FFAD1D8F80C302046AD
:1049A00098473B6863623368A362144BC3F800A066
:1049B000C3F844A1D9F80030002BFBD12B6003B021
:1049C000BDE8F08F236A012B04BF0C4A13600C4B27
:1049D00040201960C3F804A000F050FCD4E700BFE9
:1049E00010B9025020BC025018B8025000B9025051
:1049F000CCB70250D0B70250C8B7025084B60250AC
:104A000028BC025010B5544B98B019461A68019250
:104A1000019AD207FAD5514B514A1A600A6802929C
:104A2000029AD407FAD54F4A1A600A680392039A89
:104A3000D007FAD54C4818600A680492049AD20745
:104A4000FAD54A4A1A600A680592059AD407FAD537
:104A5000474A1A600A680692069AD207FAD5454A6A
:104A60001A600A680792079AD407FAD5424A1A6070
:104A70000A680892089AD207FAD5404A1A600A686A
:104A80000992099AD407FAD53D4A1A600A680A922F
:104A90000A9AD207FAD53B4A1A600A680B920B9A17
:104AA000D407FAD5384A1A600A680C920C9AD207D1
:104AB000FAD5364A1A600A680D920D9AD407FAD5CB
:104AC000334A1A600A680E920E9AD207FAD5314A12
:104AD0001A600A680F920F9AD407FAD52E4A1A6004
:104AE0000A681092109AD207FAD52C4A1A601A4B0B
:104AF00019461C681194119CE407FAD5174B1860ED
:104B0000086812901298C407FAD51A600A681392BE
:104B1000139AD007FAD5124A1A600A681492149AA6
:104B2000D207FAD51E4A1A600A681592159AD40758
:104B3000FAD51C4A1A600A681692169AD007FAD556
:104B4000194A1A600A681792179AD207FAD5174AB3
:104B50001A6018B010BD00BFB0B0025080B0025053
:104B60000093652100043190409665900083612197
:104B700000C3302100C36490008161900046102181
:104B8000008111210041442100C320290C4610C896
:104B90000086312100C3602140C12829409665214B
:104BA0000013319040962529594614C840043249D3
:104BB00010B5494B94B019461A680092009AD20772
:104BC000FAD5464B464A1A600A680192019AD40700
:104BD000FAD5444A1A600A680292029AD007FAD5B6
:104BE000414818600A680392039AD207FAD53F4AEF
:104BF0001A600A680492049AD407FAD53C4A1A60EB
:104C00000A680592059AD207FAD53A4A1A600A68E4
:104C10000692069AD407FAD5374A1A600A680792AC
:104C2000079AD207FAD5354A1A600A680892089A94
:104C3000D407FAD5324A1A600A680992099AD2074B
:104C4000FAD5304A1A600A680A920A9AD407FAD545
:104C50002D4A1A600A680B920B9AD207FAD52B4A92
:104C60001A600A680C920C9AD407FAD5284A1A607E
:104C70000A680D920D9AD207FAD5264A1A600A6878
:104C80000E920E9AD407FAD5234A1A600A680F9238
:104C90000F9AD207FAD5214A1A600F4B19461C68A1
:104CA0001094109CE407FAD50C4B1860086811901A
:104CB0001198C407FAD51A600A681292129AD0079E
:104CC000FAD5174A1A600A681392139AD207FAD5CE
:104CD000144A1A6014B010BDB0B0025080B0025037
:104CE0008090652100040990409665908080612144
:104CF000802008218020649000816190004610216E
:104D0000008111210041442180202029024610C841
:104D100000860921802060214021282940966521B4
:104D200040962529594614C810B5504B96B01C46DC
:104D30001A680192019AD207FAD54D4B4D4A1A6072
:104D400022680292029AD207FAD54B4A1A604B4A5D
:104D500042EA804022680392039AD207FAD518608B
:104D600022680492049AD007FAD5454A1A60A2F53F
:104D7000800242EA814122680592059AD207FAD55B
:104D8000196022680692069AD007FAD53D4A1A6041
:104D900022680792079AD107FAD53B4A1A6022681F
:104DA0000892089AD207FAD5384A1A6022680992FE
:104DB000099AD007FAD5364A1A6022680A920A9AE6
:104DC000D107FAD5334A1A6022680B920B9AD207A0
:104DD000FAD5314A1A6022680C920C9AD007FAD59B
:104DE0002E4A1A6022680D920D9AD107FAD52C4AE4
:104DF0001A6022680E920E9AD207FAD5294A1A60D2
:104E000022680F920F9AD007FAD5274A1A602168B4
:104E100010911099C907FAD51A60144B1A461968EF
:104E200011911199C807FAD5114B204919601168E1
:104E300012911299C907FAD51D4919601168139189
:104E40001399CC07FAD50B4919601168149114997C
:104E5000C807FAD517491960116815911599C9073E
:104E6000FAD5154A1A6016B010BD00BFB0B0025096
:104E700080B002504004419000862929D81001C812
:104E80004014419040142129401465210034409081
:104E900000310C90C0400C90C030202940960D90FD
:104EA00000416090031645C8008611210041602131
:104EB000594644C84014459040142D9070B526487A
:104EC00088B0054604680094009CE607FAD523489C
:104ED000234C0460234C44EA83432C680194019CD6
:104EE000E407FAD50360930143EA824242F010449A
:104EF00044F4C0442B680293029BDE07FAD5046099
:104F00002B680393039BDB07FAD5174B03608B01D8
:104F100043EA814141F0104343F4C0432E680496B4
:104F2000049EF607FAD503602B680593059BDE0700
:104F3000FAD5046041F058412B680693069BDC07C4
:104F4000FAD5016042F058422B680793079BDB07B4
:104F5000FAD5026008B070BDB0B0025080B0025007
:104F6000C02102298071009880611890354B8EB065
:104F700019461A680092009AD207FAD5324B334A82
:104F80001A600A680192019AD007FAD5304A1A606D
:104F90000A680292029AD207FAD52E4A1A600A6863
:104FA0000392039AD007FAD52B4A1A600A68049232
:104FB000049AD207FAD5294A1A600A680592059A16
:104FC000D007FAD5264A1A600A680692069AD207CE
:104FD000FAD5244A1A600A680792079AD007FAD5C8
:104FE000214A1A600A680892089AD207FAD51F4A1D
:104FF0001A600A680992099AD007FAD51C4A1A6001
:105000000A680A920A9AD207FAD51A4A1A600868F8
:105010000B900B98C007FAD51A600A680C920C9A8C
:10502000D007FAD5144A1A600A680D920D9AD20771
:10503000FAD5124A1A600E210D230F2200200EB05D
:10504000FFF73CBFB0B0025080B00250804301294E
:1050500040633921807001298020542100D134908F
:10506000C0403490C0302029C0530D90004138908A
:10507000832308C880E3102100413821CF4308C8AA
:105080002DE9F041012392B0CDE90333624B1D4677
:105090001A680592059AD207FAD5604C604B2360D6
:1050A000604B19461A680692069AD707FAD55E4BE6
:1050B0001A68D60400F1A8802A680792079AD007D8
:1050C000FAD55A4A22600A680892089AD207FAD595
:1050D0001E68C6F30036002E40F098801220FFF7BD
:1050E000F9F807461320FFF7F5F887428CBF122026
:1050F0001320FFF7EFF8471EFFF738FF03AB01AAB5
:1051000039461220FFF72CF904AB804602AA394633
:105110001320FFF725F900EB4800022832D00328BE
:105120003ED0012874D12B680993099BDB07FAD57F
:105130003F4B23602B680A930A9BD807FAD53D4B57
:1051400023602B680F930F9BD907FAD53A4B236046
:105150002B681093109BDA07FAD5384B23602B6825
:105160001193119BDB07FAD5354B2360013F25D501
:105170001023192218210020FFF7A0FE304612B09C
:10518000BDE8F0812B680B930B9BD907FAD52D4B0B
:1051900023602B680C930C9BDA07FAD52A4BCFE7D8
:1051A0002B680D930D9BDB07FAD5284B23602B68EA
:1051B0000E930E9BD807FAD5254BC1E703AB01AA86
:1051C00039461220FFF7CCF804AB044602AA394650
:1051D0001320FFF7C5F810EB440402D1FFF712FCCF
:1051E000C4E7FFF7E5FC022C08D0032C09D0012C02
:1051F00010D117211620FFF797FDB7E715211420CE
:10520000F9E70F210E20F6E7124EB7E7124EB5E789
:10521000124EB3E7124EB1E7B0B0025080B0025068
:1052200000084A51B4B0025088B0025000084E51F4
:1052300000065A4940065E490004424100144249B2
:1052400040042E49000652494006564900063A4994
:1052500040063E490608F1000708F1000408F10085
:105260000508F100014B1860704700BF08BA0250F2
:10527000014B1860704700BF04BA0250034A13681C
:105280001842FCD0024A10601846704700BA02501B
:1052900008BA025029B101290CBF05206FF0150092
:1052A0007047022070470020704770472DE9F74390
:1052B0000E4617469946044628B94FF0FF38404637
:1052C00003B0BDE8F0830029F7D0002AF5D0CB6801
:1052D0000D891D4404230DEB03022946384600F0D6
:1052E00048FC80460028E8D1BDF80410738946F6D2
:1052F0000812914225D1BDF806109942DDD1042350
:105300000DEB03022944384600F033FC0028D4D1C9
:10531000BDF8042046F607139A42CED1C4E90067CF
:105320009DF82830A4F80890A3727389BDF8062070
:105330002B44E360738913442B4404356361256176
:10534000BDE7002BE4D0B8E72DE9F3410E46174640
:105350001D46044620B94FF0FF3002B0BDE8F08191
:105360000368002BF7D04368002BF4D04FF6FF788A
:10537000D4E904239A4216D223685B8923B1E368F7
:10538000934204BF043323610423216960680DEB59
:10539000030200F0EEFB0028DDD1A37A2BB1D4E9A3
:1053A00003329A4201D30120D7E72389BDF80610C2
:1053B000434501F1040203D0BDF804C09C450BD164
:1053C00015B1BDF804302B80236904333360398074
:1053D000236913442361C0E7236913442361C7E7AA
:1053E00073B50C4606461146022301AA204600F07A
:1053F0003BFA0546E8B9019A1F2A0ED92368A2F1A3
:10540000200119442022304600F058FC2368019AFC
:1054100013442360284602B070BD0146C2F1200249
:10542000304600F056FC019A2168C2F12000304459
:10543000EAE76FF00205EDE700F030BC4FF4C0730F
:105440005843303070470B78022B06D0052B14BF21
:105450004FF0FF304FF4C07070474FF4C07070478A
:1054600010B5044600F0C5FBA3684FF4C072303B92
:1054700002FB103010BD8168183921F007010122AC
:10548000083900F07DBE13B50446019100F009FE15
:105490000423A0F108010DEB0302204600F044FEB6
:1054A00002B010BD70B513460E46154600210246E7
:1054B0000446FBF737FC50B92B4604F12C020121BE
:1054C0002046FBF72FFC10B1002E08BF002070BD56
:1054D00073B5044600200D461646FFF7DBFE69460D
:1054E000C0B2FCF7B1FA30BB2C2303FB0544009893
:1054F000E36825891D4404230DEB0302294600F0CF
:1055000038FBC0B9BDF804206489009846F608133A
:105510009A4215D1BDF806309C420CD104230DEB04
:105520000302611900F025FB28B9BDF8042046F6F6
:1055300007139A4207D0009800F01AFB02B070BD22
:10554000002CF2D0F7E7BDF8061021442944316061
:10555000F1E737B50446426A802501A9022001958A
:10556000FCF79AFA58B9019B226DA36201A90520A4
:105570000195FCF791FA054628B1092500E00125BF
:10558000284603B030BD019B206A636500F031FB03
:10559000E065F5E70123036003F101234360002385
:1055A000C0E9023370474379012B07D10368012B0F
:1055B00004D10079431E584258417047002070477B
:1055C0007FB506460D46022001A9FCF73DFA38BB1F
:1055D0000198FFF745FFF16D0446284600F0E5F815
:1055E0000444019800F005FB0646019800F008FB12
:1055F000082201460DEB020000F06BFB2B798DF8C1
:10560000083021460198334602AA00F0C7FA041E6A
:10561000019818BF012400F0ABFA204604B070BD19
:105620000124FAE700F0CFBA2DE9F8430E46002135
:1056300007460846FFF72EFE012104460020FFF72B
:1056400029FE33789C4221D0984221D101252C2378
:1056500003FB0575F86DAC6AFFF7F0FE013C0746E9
:105660004FF000086B6A03EBC40253F83410D2F811
:1056700004901B684A46C91A3046C844FFF7D2FF57
:10568000B84504F1FF34EDD3BDE8F8830025DEE72B
:105690000120F9E737B515460C460520694600F0AC
:1056A00086FDE979012903D00022204600F093FD10
:1056B0009DF80330012B02D1204600F06BFDA96854
:1056C0002046FFF7E0FE2046FDF768FD002003B00E
:1056D00030BD73B50D460646FBF70CFC0446E8608A
:1056E00050B302282DD101A9FCF7AEF958BB01989F
:1056F0002A463146FBF764FB0446D0B9019800F016
:10570000D0FC012301460DF10302019800F031FAAB
:105710000446A0B9019801220DF1030100F0D5FC67
:1057200010B101238DF803309DF8033003F00F030F
:10573000EB71019800F01CFA204602B070BD012404
:10574000F7E70724F8E70124F6E713B5022001A9DB
:10575000FCF77AF948B90198FFF78DFE04460198E5
:1057600000F006FA204602B010BD0124FAE71FB58A
:10577000022001A9FCF768F9A8B9019802A9FDF770
:105780002DFD044668B99DF80B30032B03D1019819
:1057900000F000FD0446019800F0EAF9204604B04C
:1057A00010BD0124F7E70124F8E710B54379027929
:1057B000012B14BFCB01002302F1FF3201FB0233A6
:1057C000026814BF4C000C46013A04FB023010BDC5
:1057D00070B50368CD1A002D02DC6FF05F0070BD5C
:1057E00093F900601C78002E0ADB5C1C04601B78B7
:1057F00013600368C91A13688B42EED80020EEE7E5
:1058000004F07F04013C032C2BD8DFE804F0020AEB
:105810001421012DE1D05B7813600368023303602B
:10582000E7E7022DD9DDB3F801305BBA9BB2136014
:1058300003680333F3E7032DCFDD9C785D78DB78D5
:10584000240244EA05442343136003680433E6E773
:10585000042DC2DDD3F801301BBA13600368053391
:10586000DDE76FF06300BAE770B404680E1B002E2A
:1058700007DD26789E4208D10134046070BCFFF732
:10588000A7BF6FF05F0070BC70476FF06100FAE770
:1058900038B503230446FFF7E7FF18B9136813B9B7
:1058A0006FF0670038BD013B136023681A78002A47
:1058B000F6D101332360F5E72DE9F34190461F4609
:1058C00001AA302305460E46FFF7CEFF0446F0B985
:1058D0002B68F61A002E34DD42461B7842F8043B52
:1058E000019B2E681E44314606232846FFF7BCFF65
:1058F000044660B92B68D8F80420C8F80830991815
:10590000B142296007D10C213846FEF753F92046F1
:1059100002B0BDE8F0819B5C3A46314642F8043B58
:105920002B6801332B602846FFF752FF60B92B68C4
:105930007A68BB601344B3422B6018BF6FF06504F4
:10594000E5E76FF05F04E2E70446E0E7F8B5B1F1A0
:10595000005F00AF0546144610D2D31D23F00703A5
:105960006E46ADEB030D684600F0A8F96946224685
:105970002846FEF7E9FBB546BD46F8BDFEF7E4FB59
:10598000FAE7002070470FB407B504A951F8040BDB
:105990000191FBF707FD03B05DF804EB04B070471D
:1059A000038B13F0070305D10368002B0CBF002005
:1059B00003207047022B05D1408BB0FA80F04009DC
:1059C00080007047012B05D10368002B0CBF00201D
:1059D000052070470020704710B50C4600B111B982
:1059E0006FF0150010BD081D00F096F80028F9D1E1
:1059F000A368032BF6D9F3E72DE9F0410D460746DE
:105A00001946281D90461E4600F097F8044638B106
:105A10003346424629463846A446BDE8F041604731
:105A2000BDE8F08110B44FF02004EFF3118284F34D
:105A30001288BFF36F8F41615DF8044B0121FBF7C2
:105A4000BFBC38B50C46054658B151B10B6843B1DF
:105A50004B6833B11C22002100F03BF92C6100207F
:105A600038BD6FF01500FBE770B505460E46FFF731
:105A7000B3FF041E15DB4FF02003EFF3118283F315
:105A80001288BFF36F8F6B8B2C8B4FF6FF718B429D
:105A900004F0070407D182F31188BFF36F8F6FF012
:105AA0000A04204670BD022C0CD101336B8382F3B3
:105AB0001188BFF36F8F0023224631462846FFF737
:105AC0009BFFEEE7062C14D8DFE804F00413131351
:105AD000041A0400002333606B683BB9C5E9006613
