:0200000280007C
:106000003DB8F3960000000000020000E4310300F8
:106010000000000000000000000000000000000080
:10602000FFFFFFFFFFFFFFFFFFFFFFFFFFFFFFFF80
:10603000FFFFFFFFFFFFFFFFFFFFFFFFFFFFFFFF70
:10604000FFFFFFFFFFFFFFFFFFFFFFFFFFFFFFFF60
:10605000FFFFFFFFFFFFFFFFFFFFFFFFFFFFFFFF50
:10606000FFFFFFFFFFFFFFFFFFFFFFFFFFFFFFFF40
:10607000FFFFFFFFFFFFFFFFFFFFFFFFFFFFFFFF30
:10608000FFFFFFFFFFFFFFFFFFFFFFFFFFFFFFFF20
:10609000FFFFFFFFFFFFFFFFFFFFFFFFFFFFFFFF10
:1060A000FFFFFFFFFFFFFFFFFFFFFFFFFFFFFFFF00
:1060B000FFFFFFFFFFFFFFFFFFFFFFFFFFFFFFFFF0
:1060C000FFFFFFFFFFFFFFFFFFFFFFFFFFFFFFFFE0
:1060D000FFFFFFFFFFFFFFFFFFFFFFFFFFFFFFFFD0
:1060E000FFFFFFFFFFFFFFFFFFFFFFFFFFFFFFFFC0
:1060F000FFFFFFFFFFFFFFFFFFFFFFFFFFFFFFFFB0
:10610000FFFFFFFFFFFFFFFFFFFFFFFFFFFFFFFF9F
:10611000FFFFFFFFFFFFFFFFFFFFFFFFFFFFFFFF8F
:10612000FFFFFFFFFFFFFFFFFFFFFFFFFFFFFFFF7F
:10613000FFFFFFFFFFFFFFFFFFFFFFFFFFFFFFFF6F
:10614000FFFFFFFFFFFFFFFFFFFFFFFFFFFFFFFF5F
:10615000FFFFFFFFFFFFFFFFFFFFFFFFFFFFFFFF4F
:10616000FFFFFFFFFFFFFFFFFFFFFFFFFFFFFFFF3F
:10617000FFFFFFFFFFFFFFFFFFFFFFFFFFFFFFFF2F
:10618000FFFFFFFFFFFFFFFFFFFFFFFFFFFFFFFF1F
:10619000FFFFFFFFFFFFFFFFFFFFFFFFFFFFFFFF0F
:1061A000FFFFFFFFFFFFFFFFFFFFFFFFFFFFFFFFFF
:1061B000FFFFFFFFFFFFFFFFFFFFFFFFFFFFFFFFEF
:1061C000FFFFFFFFFFFFFFFFFFFFFFFFFFFFFFFFDF
:1061D000FFFFFFFFFFFFFFFFFFFFFFFFFFFFFFFFCF
:1061E000FFFFFFFFFFFFFFFFFFFFFFFFFFFFFFFFBF
:1061F000FFFFFFFFFFFFFFFFFFFFFFFFFFFFFFFFAF
:10620000C0C20020E530020021610300D13002004D
:10621000D1300200D1300200D13002000000000075
:10622000000000000000000000000000BD3202007D
:10623000D13002000000000089320200D13002009B
:1062400075340200AF8B0300753402007534020010
:106250007534020075340200753402007534020092
:10626000658B03007534020075340200998B0300BE
:106270007534020075340200753402007534020072
:106280007534020075340200753402007534020062
:106290007534020075340200753402007534020052
:1062A0007534020075340200753402007534020042
:1062B0007534020075340200753402007534020032
:1062C0007534020075340200753402007534020022
:1062D0007534020075340200753402007534020012
:1062E0007534020075340200753402007534020002
:1062F00075340200753402007534020075340200F2
:106300002DE9F00791E8F807B2E802105B1854EBAA
:106310000C04B2E802104D4156EB0C06B2E8021034
:106320004F4158EB0C08B2E8021059EB01095AEB47
:106330000C0A80E8F80780410130BDE8F00770479B
:106340002DE9F00791E8F807B2E802105B1A74EB48
:106350000C04B2E802108D4176EB0C06B2E8021094
:106360008F4178EB0C08B2E8021079EB01097AEB67
:106370000C0A80E8F80780414042BDE8F00770470A
:106380002DE9F007524290E87800B1E88007174005
:10639000DB1918EA020854EB080419EA020955EB64
:1063A00009051AEA020A56EB0A0678C090E8780056
:1063B000B1E8800717407B4118EA020854EB080453
:1063C00019EA020955EB09051AEA020A56EB0A0610
:1063D00078C080410130BDE8F00770472DE9F00733
:1063E000524290E87800B1E880071740DB1B18EABA
:1063F000020874EB080419EA020975EB09051AEAA8
:10640000020A76EB0A0678C090E87800B1E88007C7
:106410001740BB4118EA020874EB080419EA0209A4
:1064200075EB09051AEA020A76EB0A0678C0804184
:106430004042BDE8F00770472DE9F00152424FF0AD
:10644000040890E8300091E8C000A31B1340E41A50
:10645000F618EB1B1340ED1AFF1830C0C0C1B8F19D
:106460000108EED1BDE8F001704700BF00B592E829
:10647000DC072DE9DC07B1E8805702B4A7FB025125
:106480000A95A8FB020BE7FB6310E9FB62B00B91D6
:10649000A8FB0351EAFB6201E7FB64B5E7FB660575
:1064A000E8FB6615CDF830B0A9FB03B6EAFB63162E
:1064B000ECFB6356E8FB640BE9FB641BEAFB645BE3
:1064C000ECFB646B0D90ACFB0230059CEEFB625064
:1064D000E9FB6460EAFB64B0E7FB6431E8FB64510C
:1064E000069CE8FB6461E9FB64B1EAFB64010E937E
:1064F000A7FB0432079CE7FB6462E8FB64B2E9FB9C
:106500006402EAFB6412049CE9FB6453EAFB6463E3
:10651000089CE7FB64B3E8FB6403E9FB6413EAFB54
:1065200064230F955DF8049B99E80006DDF8008070
:10653000A9FB0854EAFB68B4DDF81080ECFB6804A2
:10654000EEFB6814E9FB6824EAFB6834DDF804809C
:10655000EEFB6865E9FB68B5EAFB6805DDF81480C9
:10656000ECFB6815EEFB6825E9FB6835EAFB68453E
:106570000F96DDF80880AEFB0876E9FB6806EAFBBB
:106580006816DDF81880ECFB6826EEFB6836E9FB40
:106590006846EAFB6856DDF80C80ECFB68B7EEFB5A
:1065A0006807E9FB6817EAFB6827DDF81C80ECFB4D
:1065B0006837EEFB6847E9FB6857EAFB686708B095
:1065C00000BD00BF2DE9F14F87B0FFF74FFFDDF8A9
:1065D0001C8008F1200888E8FF00FFBC87E87F08DE
:1065E000BDE8F08F00B591E89857A3FB03520195E1
:1065F000A3FB0401E3FB6420E3FB67100292A3FB0F
:106600000752E3FB6802E4FB6415E3FB6805E3FB68
:1066100069250391A4FB07B6E3FB6926E3FB6A56F1
:10662000E4FB670BE4FB682BE3FB6A5BE3FB6C6B4F
:106630000490A4FB0810E4FB6950E3FB6C60E3FBEF
:106640006EB0E7FB6721E4FB6951E4FB6A61E3FBA1
:106650006EB1E4FB6E010592A7FB0832E4FB6A62AF
:10666000E4FB6CB2E4FB6E02E7FB6E12E7FB6853DF
:10667000E7FB6963E4FB6CB3E7FB6C03E7FB6E13BA
:10668000E8FB6E230695A7FB0954E7FB6AB4E7FB1A
:106690006C04E8FB6C14E8FB6E24E9FB6E34E8FB49
:1066A0006865E7FB6AB5E8FB6A05E8FB6C15E9FB82
:1066B0006C25E9FB6E35EAFB6E450796A8FB09766B
:1066C000E8FB6A06E9FB6A16E9FB6C26EAFB6C3616
:1066D000EAFB6E46ECFB6E56E8FB69B7E9FB69071F
:1066E000E9FB6A17EAFB6A27EAFB6C37ECFB6C47AD
:1066F000ECFB6E57EEFB6E6700BD00BF2DE9F14F5E
:1067000087B0FFF76FFFDDF81C8008F1200888E8EC
:10671000FF00FFBC87E87F08BDE8F08F30B44FF082
:10672000000310F8014B11F8015B013A84EA0504FB
:1067300043EA0403F5D1A3F101034FEAD37030BC5F
:10674000704700BF4FF0000310F8012B013943EAF6
:106750000203F9D1A3F101034FEAD370704700BFE0
:1067600030B411F8014B12F8015B6C4000F8014B9A
:10677000013BF6D130BC70472DE9F00791E8F807EE
:10678000B2E802105B1854EB0C04B2E802104D4161
:1067900056EB0C06B2E802104F4158EB0C08B2E879
:1067A000021059EB01095AEB0C0A8941B3F1FF338E
:1067B00074F1FF3475F1FF3576F1000677F10007CB
:1067C00078F1000879F101097AF1FF3A51F10001FD
:1067D0005B184C414D4156F1000657F1000758F146
:1067E000000859EBD1795AEB010A80E8F807BDE8B7
:1067F000F00770472DE9F00791E8F807B2E80210BA
:106800005B1A74EB0C04B2E802108D4176EB0C06B7
:10681000B2E802108F4178EB0C08B2E8021079EB75
:1068200001097AEB0C0A89415B184C414D4156F144
:10683000000657F1000758F1000859EBD1795AEBDF
:10684000010A80E8F807BDE8F007704718EB040874
:1068500059EB05095AEB060A5BEB070B5FF0000CDE
:106860004CF1000C18EB050859EB06095AEB070A26
:106870005BEB070B50EB0C005FF0000C51EB0C01D5
:1068800052EB0C0263414CF1000CB8EB070879F1B4
:1068900000097AF1000A7BEB040BA841B141A24147
:1068A000B3416CF1000CBBEB050BB041B941AA41FF
:1068B000BB416CF1000C4CF001068CF0020718EBA8
:1068C000060859EB6C095AEB6C0A7BEB6C0B70EB0E
:1068D0006C0471EB6C0572EB670653EB6C076CEBA9
:1068E0006C0C18EB0C0059EB0C015AEB0C025BF131
:1068F000000354F1000455F1000556EBDC7657EB2C
:106900000C0770472DE9F14F87B0FFF7AFFDDDF8B9
:106910001080DDF81490DDF818A0FFF797FFBDE8B0
:10692000000FFFF793FF03B05DF8048B88E8FF00CA
:10693000BDE8F08F2DE9F14F87B0FFF753FEDDF88A
:106940001080DDF81490DDF818A0FFF77FFFBDE898
:10695000000FFFF77BFF03B05DF8048B88E8FF00B2
:10696000BDE8F08F064B074ADB7802604FF44272B5
:106970008280C3710822002382710372704700BFB6
:1069800040100020E3FF0100064B074A1B7902601C
:106990004FF4B8728280C3710822FF2382710372A0
:1069A000704700BF4010002035FB01002DE9F34186
:1069B000C41D002824F00704064614BF204600200A
:1069C00000F0F4FC071E04DA6FF00B0002B0BDE823
:1069D000F0810EB9FC42F7D4354D297AE879AB7ACB
:1069E0006A7A033103300FF0E3FF0028ECDBA9786B
:1069F000EB783C440334002E194424F0030400FBDC
:106A000001F114BF2046002000F066FE20440EB9BC
:106A10000028D9DB2B790446B3B1697C19446B7922
:106A20001944FF29D0DC0330002E20F0030414BFEA
:106A300020460020AA89C9B200F0BEFE0028C3DBB0
:106A400004440EB9002CBFDB012000F0A5FCC8B146
:106A5000E97AB9B195F828300734002B15BF4023E7
:106A600025234FF48172282224F00704002E14BF3E
:106A70002046002003F022FA0028A5DB04440EB9CA
:106A8000002CA1DBAB7BE3B12B799BB10734002E4B
:106A900024F0070414BF20460020A97B05F0EEFF78
:106AA000002891DB044466B9002C0ADA8CE700BFA9
:106AB00040100020012000F06FFC10B1EB7A002B99
:106AC000E4D1714B1B6893B1A97981B10334002ED5
:106AD00024F0030414BF20460020EA7B98470028D6
:106AE000FFF672AF044416B9002CFFF66DAF674B8A
:106AF0001B688BB1297C79B10334002E24F0030488
:106B000014BF2046002098470028FFF65DAF0444DC
:106B100016B9002CFFF658AF5D4B1F68AFB1697C0A
:106B200099B10334002E2B7D009324F0030414BF8D
:106B300020460020EB7CAA7CB8470028FFF644AF33
:106B4000044416B9002CFFF63FAF072000F024FCE8
:106B500098B1A97989B10334002E24F0030414BF3D
:106B600020460020AA7D00F015FF0028FFF62CAF7C
:106B7000044416B9002CFFF627AF95F82100B6FAA9
:106B800086F77F09A0B1EB7E297E033424F0070449
:106B9000194444F004043B462246C9B200F03CFFCD
:106BA0000028FFF611AF044416B9002CFFF60CAF15
:106BB00095F82210002957D00734002E24F007083A
:106BC00014BF40460020AA8C0FF007FF041EFFF6FA
:106BD000FBAE444416B9002CFFF6F6AE1EB1A98CEC
:106BE00040460BF0D1F8297F00293FD095F820309E
:106BF000002B3BD0EA8B0734002E24F0070802F16B
:106C0000240214BF4046002092B20FF0E6FE041E9C
:106C1000FFF6DAAE444416B9002CFFF6D5AEAB7ED3
:106C2000297E95F82000033424F00704194444F029
:106C300004043B462246C9B200F0E0FE0028FFF6FD
:106C4000C3AE044416B9002CFFF6BEAE36B1EA8BD3
:106C5000297F083292B240460BF09CF8EB6A5BB198
:106C600076B1EC620020B1E68846B7E7002EF5D099
:106C7000002211461046EFE7002EF3D12046A5E68C
:106C80002834FBD5A0E600BF1C0500202405002009
:106C9000200500201FB572B6184B1D6BE5B9BFF378
:106CA0004F8F1749174BCA6802F4E0621343CB6059
:106CB000BFF34F8F00BFFDE7B2FBF6F2DCB201334A
:106CC000002AF9D104F110036B4403F80C2C0A22BA
:106CD00034B901A8A847E2E7024600230A26EDE7F7
:106CE000631E04AEDCB256FA83F3B0FBF2F602FB8D
:106CF0001600303003F80C0C3046E9E74010002055
:106D000000ED00E00400FA0513B5114CA37A8DF8EC
:106D10000130637A8DF80030237AADF8043068468C
:106D2000E379ADF8023004F09BF818B1D9210320C3
:106D3000FFF7B0FF207D04F0C3F808B1DC21F6E7CF
:106D4000E07C04F0B7F808B1DD21F0E702B010BD37
:106D50004010002038B5054600283ED00EF0C2FA9B
:106D600010B94FF0FF3038BD13F086FAB0F5FA7F56
:106D7000F7D81C4C1C482563002500F087FA262212
:106D80002946A01C84F83450257084F82850E56208
:106D90000EF0B4FE1B22E27140F21B3240F20113EE
:106DA000228140F202326380628101231F2223711B
:106DB000A281A3754FF40272F723E281E38344F6C4
:106DC0000112FB236282A384EFF3108472B600F0F9
:106DD00033FE2CB962B62046C5E76FF01500C2E756
:106DE0002846C0E74010002009CD000038B5144601
:106DF000002840F0B3805B4D95F83430032B00F051
:106E0000AA80B1B112B96FF0150038BD013914294B
:106E100000F2A480DFE801F00B1C1F2F59627F35C0
:106E20006568793B414F54858896999C8E0013780C
:106E3000AB700020FFF7BAFD0028B7BF0123022383
:106E400085F834306FF00B00A8BF85F83430DCE7EC
:106E50001378EB70EDE79378002BD4D0D378002B28
:106E6000D1D013781A2BCED953781A2BCBD91368DB
:106E7000C5F80730DDE713786A799342C3D32B71E5
:106E8000D7E713782A799342BDD86B71D1E713788D
:106E90002A799342B7D86B74CBE71378002BB2D022
:106EA0005378013BDBB2F82BADD813886B822E4BA5
:106EB00092789A70BDE71078687509F02DF8B8E7F8
:106EC0001378002B9FD0AB75B3E7012000F064FA74
:106ED000237808B1012B96D9EB72AAE71388AB810E
:106EE000A7E71378AB71A4E7072000F055FA10B9B3
:106EF0002378012B87D9072000F04EFA10B12378B0
:106F0000002B80D02378EB7393E71378082B3FF6A0
:106F10007AAF2B748DE71388FF2B3FF674AFAB73FA
:106F200087E71378EB7584E713780E2B3FF66BAF8A
:106F30002B767EE723680D4AEB61636853602389F3
:106F4000138176E713786B7673E71378EB7670E747
:106F50001378AB766DE74FF0FF3056E76FF02C00FB
:106F600053E700BF40100020521000205C100020AA
:106F7000F8B50D46064630B329B311F0070422D107
:106F8000124F97F83430012B02D16FF00B00F8BD8F
:106F9000032B02D14FF0FF30F9E700F0ABF80028E7
:106FA000F8D02846FFF702FD0028EEDB13F0D3F8F7
:106FB0003046F96A04F006F8FFF7A6FE032387F8C7
:106FC00034302046E3E76FF01500E0E74010002082
:106FD00010B5074C94F83430032B03D104F00EF8AD
:106FE00004F07EFE0FF022FE002084F8340010BD75
:106FF0004010002050B1074B03F1140253F8041B5A
:1070000040F8041B9342F9D1002070476FF015003F
:10701000704700BFFBE7030010B5074B93F83440FF
:107020003CB903F099FF0320044900F0ADF9204674
:1070300010BD4FF0FF30FBE74010002089C9000071
:1070400010B5074B93F834403CB903F099FF022088
:10705000044900F099F9204610BD4FF0FF30FBE7DE
:107060004010002065C9000010B5054B93F834406E
:107070001CB903F033FF204610BD4FF0FF30FBE793
:107080004010002010B5054B93F834401CB910F0A7
:1070900042FE204610BD4FF0FF30FBE740100020BD
:1070A00010B5054B93F834401CB910F037FE20465C
:1070B00010BD4FF0FF30FBE74010002010B5054B2E
:1070C00093F834401CB910F02CFE204610BD4FF050
:1070D000FF30FBE740100020024B02681A600020DE
:1070E000704700BF78100020014B1B68184700BF95
:1070F00078100020024B1868003818BF0120704734
:1071000078100020F7B52E4E0446071D2C48376036
:1071100004F0FEFD0228054606D1294920460EF05E
:10712000B8FD284603B0F0BD042842D13378092BBE
:107130000AD0252B1ED0314620460EF00FFEB0F5AA
:10714000817F2DD3722112E005213E200EF074FDC7
:107150000028F0D1F378327901A943EA0223684686
:10716000ADF800300FF0F2F90028CFD053210820FD
:10717000FFF790FD1A213E200EF05EFD0028DAD1C7
:107180007368C3F30F23ADF804306946112301A8D7
:107190008DF806300FF004FA0028B7D06521E6E735
:1071A0000028B3D0A17820780EF046FD0028B8D191
:1071B000ACE70828B5D1024920460EF099FDB0E7AA
:1071C0007C100020074B4FF0FF3141F6FF72C3E9FE
:1071D000001205490022C1E900221F21C3E9021261
:1071E000704700BFC0040020801100203F280CD849
:1071F00001380B4BC0F3421200F01F0053F822304D
:1072000023FA00F000F001007047FF2806D0403854
:10721000C0F34212034B00F01F00EFE7012070475C
:10722000C0040020801100200146074B0068496817
:107230001A4603C240F48C221A6041F0107242F4E4
:10724000FF625A60704700BFC00400200246024B34
:107250000068516803C37047801100200246024B4A
:107260000068516803C37047C80400200138064B0A
:10727000C0F3421203EB820300F01F009B6823FA65
:1072800000F000F001007047C0040020014B1860BE
:10729000704700BF8811002010B5FFF793FF0FF073
:1072A0005DFF034B1B68044603B19847204610BDA1
:1072B000881100200B880288F0B5C3F30E049EB23B
:1072C00004F11403C57CC35A02352A442B4497B2F7
:1072D00013FA82F3013B4288B3FBF7F313FB074336
:1072E0009BB29A42044A93BF22EA060332401343F8
:1072F0009BB20B80F0BD00BF0080FFFF4A1E062A34
:1073000008B50346084604D84FF4D1711520FFF79D
:10731000C1FC094A914202D940F2A311F6E711B922
:1073200003B1196008BD2BB11B680022C3E901211C
:107330001A1D1A600430F5E7FAFFFF7F10B5114BF4
:1073400000EB41041A786389B3FBF2F303FB0223D9
:10735000013A1A44B2F5706F027928BF00231A442B
:107360008378B2FBF3F0194403FB1020091AB1FB38
:10737000F3F003FB101313446FEA43436FEA5343E4
:10738000638110BD8C110020024B03EB8003596018
:10739000704700BF8C110020034B03EB800358683B
:1073A000003818BF012070478C1100202DE9F04FE4
:1073B00010F0070A85B0054604D040F2611117208D
:1073C000FFF768FC554F07F14006B1460446B0464A
:1073D0004FF0010B57F8043B8DF80BA03BB101A80F
:1073E00098479DF80A30082B01D9E821E7E79DF876
:1073F0000B1081BB05B13160B94506F10406E9D136
:107400002DB3DFF81CE100238EF800301E460F225A
:1074100058F82200013A60B190F804A08178BAF1DE
:10742000FF0F66D14FF000078E4207713CBFCEB20E
:107430000123511CECD10BB18EF800600F2640F6F1
:10744000FF6A58F82670002F65D1013EF9D2601B03
:1074500005B0BDE8F08F9DF80AC0BCF1020FE6460A
:1074600001F1050238BF4FF0020E0EF1FF3004EBC0
:1074700042040444CEF100002040BDF808406444BA
:10748000013CCCF1000C04EA0C04B4F5803F4FEA57
:10749000420301D3F82192E775B1C31A33609970A2
:1074A0001C8083F803B09DF80C201A71019A1A8190
:1074B0004FEA124CA3F806C004FB01049CE758F8FD
:1074C0002C90B9F1000F06D099F804B0D34504BF51
:1074D00099F802904F440CF1FF3CBCF1000FEEDA3A
:1074E0003944FF29A0D90BB18EF8006040F2271172
:1074F00065E794460027F0E707EB41033846A3F819
:107500000AA0FFF71BFF09F10109BB785FFA89F1B7
:107510008B42F1D899E74FF00009F6E7901100206F
:107520008C110020034B03EB8003586C00B1807872
:10753000704700BF8C110020F8B54FF6FF73038031
:10754000184B03EB81030546586CB8B18678037974
:10755000B3FBF6F206FB1233DBB219460A1D00EB51
:107560004202B2F902705488002F09DB0131B1FBED
:10757000F6F206FB1211C9B28B42EFD10020F8BD22
:10758000FF29FBD0C4F30E03C4782B8024B94FF439
:10759000D5711720FFF77EFB5380BDE8F8400FF050
:1075A000E6B900BF8C1100201D4B03EB810370B5C1
:1075B0005C6C054644B3030404D54FF4DC7117201A
:1075C000FFF768FB014620460FF0B3F9FF2801469C
:1075D00004D02046BDE870400FF0C9B9A078B5FBD3
:1075E000F0F300FB1353DBB219460A1D04EB42060D
:1075F000B6F90260002E09DB0131B1FBF0F200FBAD
:107600001211C9B28B42F0D1002070BDFF29FBD00E
:107610008B4204EB42021CBF0023E3705580D8E785
:107620008C110020094B03EB810310B55C6C014603
:1076300020460FF07EF9FF28014604D02046BDE821
:1076400010400FF094B9002010BD00BF8C11002035
:10765000F8B5104B03EB810307465C6C01462046EE
:107660000FF067F9FF28054611D0E688238953EA11
:10767000064606D0014620460FF079F90146384605
:10768000B04720462946FFF759FE0020F8BD0520E7
:10769000FCE700BF8C11002038B50E4B827903EB5C
:1076A00082030446586C08B9052038BD8278E17918
:1076B0009142F9D24B1CE37100EB41035D89B3F9B0
:1076C0000A30002BF3DBA5800FF051F92060002079
:1076D000EBE700BF8C11002070B5044610F00300EA
:1076E0000E4603D04F211820FFF7D4FAFFF706FE0D
:1076F000054624B1034831460460FFF7FFFD2846E4
:1077000070BD00BF101200202DE9F14FDFF870B0FE
:107710009DF828A09DF82C901E46DBF80030074607
:107720000D4690461BB961211820FFF7B3FA524667
:10773000092140460EF083FF4A4684B209213046B3
:107740000EF07DFF14FA80F1DBF800000FF0C6F8B0
:10775000386018B9286001B0BDE8F08F04442C608F
:1077600038685346414609220EF022FF28684B46EE
:107770000922314601B0BDE8F04F0EF019BF00BF3D
:107780001012002070B50E4604460EF06BFF054641
:1077900030460EF067FF044B2A1821461868BDE8F2
:1077A00070400FF0BFB800BF10120020014B1868E6
:1077B0000FF088B8101200201F2AF8B504461346AF
:1077C0000ED89200033222F00303B3F5803F2DD28E
:1077D000184DACB1A00710D05F210920FFF75AFA6D
:1077E000FF2B4FEA420204D9FF339A42A8BF1A4640
:1077F000E8E77C2AB8BF7C22E4E729706C602B8123
:1078000022F0030201EB81031204D80001276B6808
:10781000120C0025EEB28E4200D3F8BD14B126182A
:107820001F705E60104401352833F3E74FF0FF30DE
:10783000F3E700BF1412002038B5144A14785368D7
:107840000021C8B2844203D8AB210920FFF722FAF5
:107850001846013105782833002DF2D000218170BF
:1078600001241289447044688161C161920800F169
:107870002001051D21F8022B994245F8044B1444C0
:10788000F8D100234361037038BD00BF14120020FB
:107890000A4B1B89B3F5FF7F4FEA930006D25A08C3
:1078A0009B1A9BB2984238BF18467047B3F5EE6FEB
:1078B00001D8FF22F4E740F27263F3E714120020CC
:1078C0002DE9F8434B7880460C4602F0040602F09E
:1078D000FB07D3B1DFB12E4BD4F804901D89B7BBA1
:1078E00001236370AD08A761E76104F120034A46F4
:1078F000211D04F1280023F8025B984241F8042B73
:107900002A44F8D10023636101E0002FE3D0FF2374
:10791000A370002E18BF0226A3191B7D032B03D1D1
:10792000022F1CBF0136F6B2A31901221A7506F107
:107930000C0204EB8606002324F812307268A37050
:10794000C8F80020A8F804304046BDE8F8830021BC
:1079500014226170A0180EF0D1F8B5F5FF7F0FD298
:107960006B08ED1AADB209EB0502C4F8049025844A
:10797000A2606384C4F80C90A5842261E384C6E706
:10798000B5F5EE6F4FF0FF03EBD940F27265EAE711
:10799000141200202DE9F84305460C46F720052176
:1079A00091460EF04CFE061E22DB1DB914FB06F0BC
:1079B000BDE8F88315F0030703D098211920FFF7DD
:1079C00069F9DFF83480C8F81050A8F81460A5B23F
:1079D000BBB29D42EAD9B8F814C0D8F810004B46A3
:1079E00007FB0C000522F7210EF0E2FD0137EFE75F
:1079F0004FF0FF30DCE700BF2812002007B5CDE9CB
:107A000000230B4603490246081D0FF0E9F803B0B6
:107A10005DF804FB4012002013B5064CCDE90023AD
:107A20000B46024604F1080104F10C000FF0D8F8EF
:107A300002B010BD40120020134B012200214FF074
:107A4000FF309A60C3F80012C3F80803C3F80015AA
:107A5000C3F804259A60C3F80803C3F80015C3F8F7
:107A600004250A490A4A03F580334FF40040C3F85D
:107A70000825C1F88000BFF34F8FBFF36F8FC1F8A7
:107A80008001C3F80825704700F0004000E100E0E5
:107A90000000F63F8C46302300B50CF8033B054B45
:107AA0008E4607CBCEF80300CCF80410CCF80820A3
:107AB0005DF804FB5C12002010B5154C09F0BEFA0D
:107AC00008F0B8FB636A608C00219847237E9BB95D
:107AD000104B628C93E8030005F05AF8E36A1888AB
:107AE00004F080FF636B94F8301094F831009847ED
:107AF000002384F8383010BD94E8070004F10C032B
:107B000083E80700044904F1190011F0F1F8DFE7F8
:107B1000501200207812002095DA0000034B93F8F1
:107B2000383003B97047FFF7C7BF00BF50120020BD
:107B300008B540F22B410620FFF7ACF808B5094B19
:107B400093F83820022A07D1DA7A42F00102DA7279
:107B5000BDE80840FFF7B0BF40F253212720FFF7F0
:107B600099F800BF5012002070B5364E96F82830B4
:107B700005460BB1012825D001292AD8336C2846A7
:107B80009847044628B396F8303013BB96F828304F
:107B900013B31DBB96F84420D106C2F300152DD4B3
:107BA000F26C316D1278C2F3001201B382F001045D
:107BB000BBB1738F9A0715D5F36BDC78023C18BF05
:107BC000012407E0738F1807D6D5F36BDB78022BFF
:107BD000D2D10124204670BD012DDBD000242046E7
:107BE00070BD738F002BF4D1002DF3D0F6E7B6F8FB
:107BF00054100029DAD0002BF3D0DAE7F16B0A78C1
:107C000002F00302032A02D1CA78022A18D0B06C0B
:107C10000EF0BBFD48B9F36B1B7803F00303032B95
:107C200006D196F828300546BAE796F82830B7E727
:107C300003F0FCFA80F0010596F82830EDB2AFE7CA
:107C40000025ADE75012002070B5254CE56AE26CC6
:107C500095F8A430A265064694F85C000BB1043098
:107C6000C0B295F87D100EB9FF282FD008F08CFE19
:107C700095F8A43023B3206E09F0FCFA94F828306C
:107C8000216EA06D003B18BF012384F88030D5E938
:107C90004223C4E91E2308F071FA46B995F87D30F5
:107CA000033B012B94BF2820002009F051FB95F8DD
:107CB0007C10002009F0B4FB022384F8383070BD3A
:107CC000A06D09F0D7FA08F0B5FAE6E795F87C2040
:107CD0008A42CFD008F058FE95F8A430CAE700BF1A
:107CE000501200202DE9F0413B4C94F83830E56A01
:107CF000012B82B069D15FFA83F895F8943006467B
:107D00000F4673B1638F002143F00403638785F846
:107D10009410636A0420984794F828300BB185F8D2
:107D20009680E16B0B7803F00303032B2ED04B7886
:107D300043B3022385F89A3095F8A430DBB1E36AA7
:107D400093F87D10D5E94223C4E91E2394F8283026
:107D500094F85C200139003BC9B218BF0123032904
:107D600084F8803036D81D4B00205B5C00901C49A5
:107D7000012008F08BF906B9E7B902B0BDE8F0417F
:107D8000FFF79ABE012385F89A30D5E795F89A3027
:107D900063B9638F43F0020363870220636A9847E5
:107DA000E16B0B7803F00303032BC0D1032385F8A9
:107DB0009A30C1E731463046FFF7D6FE0028DCD1C5
:107DC00002B0BDE8F041FFF73FBF40F2A4412720D9
:107DD000FEF760FFFFF7ACFE5012002070A9030011
:107DE000B812002070B5814CE56A94F85C3095F8C3
:107DF000A42082B000218DF805100AB10433DBB253
:107E000095F87C1010B9FF2B00F0AF80FF2008F030
:107E1000BBFD95F89A30032B00F2E380DFE803F016
:107E2000021C807094F8C230ADF806307048A5F896
:107E30006C3003F0D5F9002840F09D80A06C0DF166
:107E400005020DF106010EF035FCE06320B195F856
:107E5000E130002B00F0A7806648E06395F89B2096
:107E60000378D20002F0080203F0F303134395F8FD
:107E70009C20920002F00402134303F0EF0203F08F
:107E80000303032B027002D1C378022B11D0A06C24
:107E90000EF07BFC48B9E06B027802F00303032B81
:107EA00007D003F0C3F9002876D1E06B027842F0E6
:107EB0001002027095F8A33013B14378002B41D122
:107EC00009F0D8F908F0B6F9E66B04F029F820B10A
:107ED000337803F00303032B61D095F87D10012064
:107EE00009F09EFAE36B444A18889978A4F8440094
:107EF000012384F8C430917084F8383002B070BD2A
:107F00003B4803F06DF9002861D0E06BC3781B2B70
:107F100014D1012105F1100008F068FDE06B0DE0BF
:107F2000B5F86C30A06CADF806300DF105020DF11E
:107F300006010EF0BFFBE06300284DD0012384F85A
:107F4000C3308BE7206E09F095F994F82860E16B57
:107F5000206ED5E94023B6FA86F67609C4E91E23D9
:107F600084F8806008F00AF9AEE795F87D308B421E
:107F70007FF44CAF4DE7638FE16B626A43F480732B
:107F80004FF4807063879047E06B012185F895106E
:107F9000C3781B2BD2D1BDE7E06B027889E70120C3
:107FA0000AF096FD99E79DF8053043B1BDF806103B
:107FB00010F045FE0123E06B84F8C3304EE70380E8
:107FC0008370E06B012110F02FFDE06BEEE740F2D3
:107FD000FD212720FEF75EFE40F2F3212720FEF769
:107FE00059FE40F20B312720FEF754FE50120020BC
:107FF0008C120020E0120020941200202DE9F04F96
:10800000B84C94F83830E66A87B00022022B04920C
:1080100040F01082638C884613F04001074606D179
:10802000636A40209847638C43F040036384002FC9
:108030005CD096F8A430002B40F05C81D4F858A0B6
:108040009AF8013099B2A4F85410002940F06881E0
:10805000002323659AF80050638C96F89B10C5F3B3
:10806000800243F400739142638400F0F080D4F8FE
:108070002C9099F89A20FAB1022A00F0B58194F870
:108080002830002189F89A1023B199F89630002BF6
:1080900040F0A08199F89530002B40F07D8199F84F
:1080A0009B30D4F858A0012B0CBF0023012389F882
:1080B0009B309AF80050638C96F89C10C5F3C00270
:1080C00043F40063914263844FF0000900F0C780DD
:1080D000002503F025FFF0B19AF8003003F0030308
:1080E000032B18D101200AF0F3FC14E096F8A42029
:1080F000002A40F0F38043F48063638496F87D3077
:1081000094F8CE20033B0132012B84F8CE2040F2BC
:10811000D4800025A94696F8A33003B394F82830FC
:1081200096F87C10F069B3FA83F35B0984F8803029
:1081300041F64B53984294BF042000200139D6E900
:108140004023C9B20329C4E91E2300F27881664B9B
:1081500000225B5C00926549FB2207F097FFB8F1B3
:10816000000F08D194F8CE100120FFF7FDFC8046E7
:10817000002800F0DD8009F08FF94FF00108002D94
:108180003BD1B9F1000F09D094F82830002B40F012
:108190009A80B4F809300133A4F80930002F4BD08D
:1081A000B4F8053000220133A4F8053084F8CE205D
:1081B0004F4804F005FC049830B10EF063FBE16A0F
:1081C0000022027203F0F4FD35B1E16A00232B7244
:1081D0000C22284603F0BAFDB8F1000F32D1638CAF
:1081E0001B0607D4636A414680209847638C43F09E
:1081F0008003638407B0BDE8F08FA16D236D4D78D7
:10820000002B00F01E81B4F85420184603320DF004
:10821000FDFB0DF10E0205A9A065D4F8C8000EF013
:1082200047FB05980EF02EFB294601220546D4F89F
:10823000C8000EF0F4FAA4E7B4F807300133A4F84C
:108240000730B5E7FFF738FC07B0BDE8F08F96F8C8
:108250009C10C5F3C0029142B9467FF439AF05F0D6
:108260000305032DD4F82CB068D143F48053638404
:10827000638F012043F00103514663878BF894001C
:10828000636A9847D4F858A000259BF89C30013BBE
:1082900018BF01238BF89C309AF80130002B3FF473
:1082A00018AFDBF808310133CBF80831DBF80C31BB
:1082B00043F10003CBF80C310BE7012000250AF055
:1082C00007FCA94627E7B4F80530B4F80710B6F85C
:1082D00098200B4313433FF461AF5AE708F006F8C8
:1082E000638C08E75012002070A90300B812002028
:1082F0007812002007F0BAFFD4F858A09AF801309D
:1083000000287FF49FAE002B61D09AF8002096F8E9
:108310009C10C2F3C002914277D099B2A4F85410D5
:10832000D4F8C8000EF052FAD4F858A0206591E6AF
:10833000FFF758FD002D3FF424AF5EE7002DA4D0D9
:108340009AF80150002DA0D043F4805363849BF829
:10835000A45008F0E9FA042894F8CC3006D1002D96
:1083600014BF1B221F22934228BF1346D4F858A0E3
:108370009AF801209A424ED8256D002D3FF4A9AEFF
:1083800094F8CD30002B53D0636A00212020984709
:108390000025D4F858A09CE6002589F8955002F0F5
:1083A0002FFF002852D0638F43F0080363872946CC
:1083B000636A08209847D9F800310133C9F80031C1
:1083C000D9F8043143F10003C9F8043167E6A4F891
:1083D00054303DE6638F89F8961043F010036387AD
:1083E0001020636A984755E6A06C04A90EF085F941
:1083F00088B3D9F800310133C9F80031D9F8043114
:1084000043F10003C9F8043139E6012384F831301F
:10841000FFF752FBEEE694F83030012043F01003F2
:1084200084F8303000250AF053FBD4F858A050E609
:108430003D462AE74FF4A3612720FEF72BFCFFF708
:1084400077FB40F295412720FEF724FC40F22541BE
:108450002720FEF71FFC40F20E412720FEF71AFCF2
:1084600070B50D4B0D4C0E4A1A6094F838301BB1A4
:10847000E1212720FEF70EFC03F0FF0206460D4621
:10848000227604F07DFB012104F1900010F0CCFA7B
:10849000E664256670BD00BF28050020501200204C
:1084A00098E9000010B5074A92F8383013B10C244F
:1084B000204610BD03F0FF04147604F061FB204653
:1084C00010BD00BF50120020024B012283F8CD20C6
:1084D000704700BF50120020F0B5BF4C85B002AD10
:1084E00085E8030094F838000A9E002840F0BD811A
:1084F000002A00F0BA81002B00F0B781002E00F0B6
:10850000B48100F0FF0184F8CD1084F8301084F8B5
:10851000CE1084F8311084F8C41084F8C310618739
:10852000618495E80300236404F1280383E80300D1
:10853000E56A6262666308F0B9FA07F07BFE95F9B6
:10854000800008F0BBFBA86B08F078FE286A08F0F2
:10855000BBFB95F8B40008F0C1FB94F82860EA6909
:1085600041F64B53002E00F0C2809A4200F20D817A
:108570004D2008F0BFF9012008F0E0FCE36A93F811
:1085800000327426002B40F00A8195F87D20314698
:10859000012008F0FBFC914B186808F055FED5E966
:1085A0000523A264C4F8C83095F88B304BB9D5F8D0
:1085B000843033B1B5F8CE10B5F898208A4200F077
:1085C0000281D5F81411D5F81821D5F81C31844E44
:1085D000D5F810010FC6D5F82031C4F88130E36A10
:1085E000D5F82421C6F80D2093F89E20A2F126018B
:1085F000012940F28B8093F89F10262900F0868095
:10860000213A012A40F20F81242900F0EF8093F8EB
:108610007C60032E08BF042605F144073146384626
:1086200010F024FC31460FF0D9FEB5F8503095F823
:108630007D100246934228BF1346384684F8C23064
:1086400010F0DAFB95F87D1095F8A470B5F8586035
:10865000042908BF03210FF0C1FE0FB9043080B216
:10866000B04228BF3046C6B284F8CC6003F058FC54
:1086700010B12B2E38BF2B2694F8280084F85C60AC
:1086800000285ED195F8A330DBB1012384F8803057
:10869000D5E94023C4E91E23EA6941F64B539A42C7
:1086A00098BF042095F87C30013BDBB2032B00F22D
:1086B000E1804C4A0021D35C0091FB22484907F03D
:1086C000E5FC0120FFF78EFB0023C4E90033A36023
:1086D000D5F88C302988B5F8980095F8B4206080DA
:1086E000218022710BB101221A6005B0F0BD9A42BF
:1086F00058D84D2008F0FEF8304608F01FFC95F8D9
:108700007C206E21002008F041FC44E794F82820EA
:10871000002A33D193F8422293F87C60002A3FF478
:108720007BAFF31E012B40F28B80D31E012B40F256
:108730008780012E3FF470AF012A14BF0226012664
:108740006AE795F8A430ABB195F87D10D5E94223DE
:108750000139C9B201200329C4E91E2384F880002D
:1087600000F288801F4B5B5C0021009132461C495F
:1087700007F08CFC0120FFF767FAA5E793F8D622F3
:1087800093F87C60002ACCD146E7962008F0B2F836
:10879000E36A93F800329D26002B3FF4F6AE08F012
:1087A00073F9F2E6962008F0A5F895F87C200D4BB9
:1087B0000D4803EB4203998801F5FA71A0FB0131E2
:1087C00089096E319EE7B5F888100A440121A5F8A1
:1087D000CE201960F5E600BF5012002028050020C9
:1087E000B812002070A90300D34D621094F828201D
:1087F000002A3FF40CAF93F84E2193F8751093F8CC
:108800007C6002EA01035A071AD413F0010220D156
:108810009B077FF501AFF31EDBB2012B10D9012EB0
:1088200018BF0226F8E62429E0D094F82820002A70
:108830003FF4EDAE93F84E2193F87C60500701D5DC
:108840000426E9E612F0010309D191077FF5E4AEB1
:10885000E1E7033E012E8CBF16460426DCE6033E0C
:10886000012E8CBF1E460426D6E640F26F1127204B
:10887000FEF710FAFFF75CF908B5124B93F83820B1
:1088800092B193F8282022B993F83830012B14D1F3
:1088900008BD93F83820022A0AD1DB6AD3F81802FF
:1088A000BDE8084008F020BDBDE80840FFF704B966
:1088B00040F235212720FEF7EDF940F23121272043
:1088C000FEF7E8F950120020FFF7F6B8014B1876D2
:1088D000704700BF50120020014B93F8C40070474E
:1088E00050120020034B93F8C30010B9588CC0F30A
:1088F0000030704750120020024B588CC0F3C0204B
:10890000704700BF50120020014B93F8CE00704713
:10891000501200202DE9F0411E4F8207FE6A82B0FE
:10892000044613D4E3070ED5D6E9423296F89C10DC
:10893000013342F100020129C6E942320CBF002393
:10894000012386F89C3002B0BDE8F0813B6DE3B1B5
:10895000B7F854200D46B96D1846033291F80180DE
:108960000DF054F80DF1020201A9B865D7F8C8005E
:108970000DF09EFF01980DF085FF01222860414611
:10898000D7F8C8000DF04BFFCCE740F29541272007
:10899000FEF780F9501200203DDB0000FDDF0000F3
:1089A000E5DC00001DDB000008B540F2C131062007
:1089B000FEF770F92DE9F843002800F0E080044646
:1089C000072900F2D380DFE801F0AB2424A7D11FF0
:1089D0009ECD0146204611F0B7F8D4F84C3100F195
:1089E000DB059D4240F2C680E81A322838BF3220AB
:1089F00003210CF0F1F8C4F84C510646204611F062
:108A000063F9002E00F09D802046BDE8F84311F088
:108A10005CB911F0E8F8D4F81C21002305460E4695
:108A200084F8483184F85131BAB150EA010314D0C6
:108A3000CA00C3001B1A42EA507262EB0102D4F86A
:108A400038115B18D4F83C1142EB0102D4E956010D
:108A5000834272EB0103C0F09080022304F5A477F7
:108A600084F8503138460BF0FBFA002800F08B8078
:108A700094F8683103F0FF01002B6BD1D4E9580260
:108A80006FF000439A4208BFB0F1FF3F13D0204679
:108A9000D4E9569811F058F8D4F86031D4F864212C
:108AA000B3EB090300F1DB0062EB08021B1A62F171
:108AB0000002002A4BDB94F8180139460BF0C2FB88
:108AC00000286AD0D4E95601D4E94C32834272EBD3
:108AD00001071FD255EA06071CD0C01A61EB02013C
:108AE00033462A460CF0F4FE05FB01F3D4E94C2191
:108AF00000FB0636A5FB00535519334443EB010335
:108B0000C4E94C5306E090F818010BF07BFA0023FF
:108B100084F84031BDE8F883BDE8F84308F0D0BCE4
:108B200005F0C8FED4F84C01CB380BF0B3FF78B396
:108B3000204611F096F800283FF44BAF204611F084
:108B4000C3F8D4E95623C4E94E23BDE8F883204690
:108B500005F0B8FE94F818010BF054FA002384F8DD
:108B60004031AFE7F4213020FEF794F8F8213020AF
:108B7000FEF790F8C4F84C51E0E701236EE7D721E7
:108B80003020FEF787F840F292613020FEF782F83D
:108B900040F251213020FEF77DF840F296613020FE
:108BA000FEF778F82DE9F04F04468BB00020174609
:108BB00094F87DB002930E4606900FF00EF994F8EB
:108BC00001220B2A00F2C483734B33F8125094F83D
:108BD0009F200392284487F0010285B2049227B3B4
:108BE000B4F89092B4F898A0A6EB09090FFA89F9A5
:108BF000A6EB0A0AB9F1000F0FFA8AFA04F5187801
:108C0000C0F254826549029A097801F0FF070029F1
:108C100040F05C8294F84432032B00F2B083DFE82A
:108C200013F0BB018201C1003A0094F84422032AE8
:108C3000D6D1039A0E2AD3D1B4F8D422B242CFD1DE
:108C4000B4F81C12B4F892220A44C4F84022D4F8B2
:108C50004C22C4F83822E269C4F83C22204607F0CE
:108C600079F8D4F8DC22E169914205D004F12800BA
:108C700011F061FAD4F8DC22E261D4F8D822E26380
:108C8000B4F8D622A4F84020D4F8E022626202228E
:108C900084F84422A4E7E169029B01FB09F0002B60
:108CA00000F08282B4F81C32002B40F07D8284F800
:108CB0005B32D4F84C5294F89E1005FB1909262912
:108CC000CDF8189000F0BF8294F89F10262900F08C
:108CD000BA82BAB3B3BBD4E9A0C2D4E99E0160455D
:108CE00071EB020280F0468394F87D00C21E012AD7
:108CF00040F2FC8208F054FF294DD4F8801200F5B0
:108D0000234E0EF1A10EA5FB0E3ED4E99E2394F84E
:108D10007D008439A0F1030C8A1A9144BCF1010F43
:108D2000A9EB9E1940F2208308F03AFF00F2E732E7
:108D3000A5FB0232B4F81C32D4F84C5292094A44D2
:108D4000103A06929A44ABF1030305FB0AFADBB230
:108D50000AF1300A012B4FEA4A0A40F2B78258461C
:108D600008F01EFF0E4B00F52340A130A3FB00309E
:108D70004FEA9019584608F00BFF0AF17405074AAC
:108D8000E1694D442B18536041F64B52914240F239
:108D9000A08206986EE000BF80A903002013002087
:108DA000D34D6210E36BD4F83C022946184411F00D
:108DB00059FA2946C4F84802E069BA4D11F052FA4E
:108DC000E26994F87D9041F64B539A4298BF023085
:108DD000C4F84C02484608F0E3FEA9F1030900F587
:108DE0005F40B9F1010F00F14100A5FB003094BFD5
:108DF0002821002101EB90118031204610F09CF8D1
:108E0000B4F81C32002B00F0D781D4F83C32E26B6E
:108E1000D4F8480294F87DA013441B1AAAF1030168
:108E20000693C9B2D4F83832D4F84022B4F840904E
:108E300002FB0305303501294FEA450509F17409A4
:108E400040F2FC81504608F0ABFE964B00F5234003
:108E5000A130A3FB00304FEA901B504608F098FE6B
:108E60004D44914AE1695D442B18536006980122F4
:108E700084F84422D4F84C526FF4AD724D1B154463
:108E80009D42A0EB0700D4F88872069028BF1D46CB
:108E9000D4F88C32C4F81852381843F10003C4F8DF
:108EA00074320023C4F8700284F8603204F1440084
:108EB0000FF0A0FFD4E99C230544C4E9A223C4F821
:108EC0006452A4F8906206F08DF920B1D4F86432AF
:108ED0001E33C4F86432B4F80812039A8E1B0023C0
:108EE00036B29E4284F86832C4BF022384F86832E6
:108EF0000E2A029A00F0B381002A40F0B38194F860
:108F00004432002B40F0CF8194F85C0241460BF0D4
:108F100099F9002800F01E82049B84F85832002042
:108F20000BB0BDE8F08FD4F84C02E269D4F84832B7
:108F3000D4F84012B4F81C5294F87DB0121A09FB10
:108F400002F20692D4F83822B4F840903033AA44A2
:108F500002FB0135C9438A44ABF1030300FB0A5508
:108F6000012B4FEA450509F1740940F26181584629
:108F700008F016FE4B4B00F52340A130A3FB003058
:108F80004FEA901A584608F003FE4D44464A5544AD
:108F90002B185360069883E094F87D1094F816021D
:108FA000DFF800A10FF042FA8146E06B2946484401
:108FB00011F058F92946C4F84802E06911F052F955
:108FC000E26941F64B539A4298BF0230C4F84C0212
:108FD00007A908A808F068FA079B0093D4E9A20142
:108FE000DDE908230CF062F894F87D30059305461E
:108FF000184608F0D5FD059B00F55F40033B012BAB
:1090000000F1410094BF28210021AAFB003001EBB0
:109010009011803120460FF08FFFD4F89432E26B2C
:1090200094F87D000693059208F0BAFD4AF2A13B40
:1090300000EB0B03AAFB0331069B059AD4F8480208
:10904000943B13441B1A4B445B1B94F87D20B4F8EB
:109050004090A3EB91130693D31E00F13005012B32
:109060004FEA450509F1960940F2E5801046059260
:1090700008F096FD8344AAFB0B3A059A4FEA9A1A28
:10908000104608F085FD4D44074A55442B1853609F
:109090000698D4F89422821AB2F5917FC0F05F81CD
:1090A000E169E7E6D34D621020130020D4E99E0168
:1090B000C4E9A201B4490978002284F85B22D146B0
:1090C000012201F0FF0700293FF4A4AD059211F041
:1090D000CFF8059A074600283FF49CADB4F830124B
:1090E000012940F2AE8094F84412022900F0A980D0
:1090F00094F85A12002940F0A480E06941F64B57D9
:10910000B84240F2FE8094F801120B2900F220814F
:109110009E4B33F8115094F8443205F5C865012B85
:10912000ADB240F0F28094F8A230032B40F00381FE
:10913000D4F83C02E76B07442946059211F092F8F7
:1091400003463846D4F83872C4F83832DB1BD4F8FA
:109150004072294603FB07F711F084F8D4F848322F
:10916000C4F84802C01A07442946E06911F07AF8A9
:10917000E369059A41F64B518B42B4F81C32D4F89E
:10918000401253446FEA0101A3EB09030B44D4F8E6
:109190004C1298BF0230C4F84C02401A00FB03770F
:1091A000012384F85A3235E594F85B32002B00F045
:1091B0008A80754B5B685DE6029B002B3FF425AE11
:1091C000D4F83C32E26B94F87D0003EB020B08F01C
:1091D000E7FC00F52340A130A5FB00304FEA9019D1
:1091E000D4F84802D4F8802294F87DA0ABF1940B17
:1091F000ABEB000B9344AAF10301D4E99E23C9B25F
:109200000129ABEB020B7AD9504608F0C9FC94F85F
:109210007DA000F2E732A5FB0235AAF10301D4F8E4
:109220004802AD09C9B2ABEB09022A440692F9E53E
:109230004FF0650AA6E64FF0650A21E74FF0650B8F
:109240000BE60027E6E4B4F8D412711A09043FF5DE
:1092500040AD94F8D712002918BF8B4639E5002A93
:109260003FF452AEB4F83022D2B1B4F8320294F8DE
:10927000341200FB01118A4200F101007FF744AE75
:10928000002B3FF441AE002384F86832A4F8320288
:1092900002F04CFE00F00700013084F8340233E69F
:1092A000A4F8322230E6E169D4F84C324046C91ABB
:1092B0000FF063F880B200283FF426AE149B13B37E
:1092C000188001202CE6B4F81C32F2E44FF0650956
:1092D00050E5084606AB51462D4A0FF0C4F82A4B1C
:1092E00084F85B025B680698E169C3E5D4E99E01F6
:1092F000ACF1E90CACEB000C3C22E1441FE53C2551
:1093000091E70F4686E401200AE62946059210F00F
:10931000A9FFE369059ABB42B4F81C72D4F84C3239
:1093200098BF02305744A7EB0907C4F84C02C01A93
:1093300000FB07F734E794F87D1094F81602E76B0A
:1093400005920FF073F8059A0744D4F83C02F3E64F
:10935000FFF72AFB40F27B513020FDF79BFC40F2E7
:10936000C6413020FDF796FCB4F81C32D4F84C52BC
:109370003C22E4E440F21A513020FDF78BFC40F22D
:1093800032513020FDF786FC2013002080A9030015
:1093900024130020F0B585B0002800F015810446A4
:1093A000072900F20081DFE811F0920008000800B0
:1093B0007B00FE0080008800FA0011F0C1F8D4E9BB
:1093C0009E23801A61EB0301012871F10003C0F2B2
:1093D0000D816FF00102002382428B41C0F20181B6
:1093E000E3690BB1B0FBF3F394F89F200E2A00F071
:1093F000CF80B4F89810B4F856220B449BB2D11A1F
:109400000D0454BF531C01339BB2A4F8563294F898
:109410005932B4F8561223B9B4F80C328B4200F02A
:10942000C680B4F8D400B4F89830B4F89222724FE1
:109430000344B4F8D200013B01321B1AA4F8922273
:109440009EB202AD3B6853B1013989B20022204679
:109450009847B4F85612014489B2A4F85612731A08
:1094600018046ED4002300951A462046FFF79AFB95
:1094700000284AD1D4F884303BB3B4F8CE20B4F8F5
:1094800056329B1A1BB2002B1FDDB4F888100B4418
:10949000013BB3FBF1F313FB0123A4F8CE3014E03E
:1094A00005B0BDE8F04008F00BB8012009F010FB52
:1094B00005B0BDE8F040FFF707BA90F84432042B3E
:1094C00040F08B80002380F8443205B0F0BD90F866
:1094D000583253B3B0F85622B0F898309A426BD055
:1094E000D31AA0F80E32A0F89820D4E99C23204685
:1094F000C4E99E2306F01CFB94F81332002BE4D041
:1095000005B0BDE8F04010F091BD012860D1B4F87D
:109510005612B4F80832CA1A12042FD4BDF8083013
:10952000194489B2A4F856128CE7B0F85432B0F856
:109530009810B0F85422A0F898205B1AA0F80E32C8
:10954000D3E794F8A2200394002A0CBF3E220822FD
:10955000012384F8C12028468DF8083002F0D6FF98
:10956000204610F065FD002384F8443294F85C0234
:109570000AF048FD202384F85C32A6E7BDF80820F5
:10958000114489B2721A12F4004F18BF1946C9E784
:10959000B4F85612013189B2A4F8561241E7CB2132
:1095A0003020FDF777FBCF213020FDF773FB013131
:1095B00089B2A4F8561234E7B0F80C32A0F898300B
:1095C0009B1AA0F80E3290E7A6213020FDF762FB2F
:1095D00040F254613020FDF75DFBC5213020FDF7DE
:1095E00059FB40F207613020FDF754FB40F2066161
:1095F0003020FDF74FFB00BF2C0500202DE9F04384
:10960000D0F81C310026D0E9568983B080F820615B
:1096100005460F4683F8162280F840610121D0F8F4
:109620001C0102F043F8D5F81C41C4E99E8995F865
:10963000183184F85C32C4E9A289C4F8947284F8C1
:109640004462A4F890623346009632463146204682
:10965000FFF7A8FAD0B9012384F84432C4F84002D5
:10966000C4F83802A4F85602A4F8540284F8590247
:10967000B4F89830A4F89202013BA4F8983007F0AF
:1096800085FD03B0BDE8F0430AF048BB40F2F3119A
:109690003020FDF7FFFA00BFD0F81C01704700BF73
:1096A0002DE9F04385B000230322CDE90033FF26E6
:1096B0008DF806206846FDF7EFFF044620BB009DAD
:1096C00095F84031002BF5D085F8686101212846D6
:1096D00010F0FDFA95F84031002BEBD095F8180109
:1096E0000BF012F895F818010BF09EFB95F8180195
:1096F0000AF088FC00283CD085F840416846FDF718
:10970000CBFF04460028DAD0DFF87C80012388F8FC
:109710000830002502264FF6FF771AE0029BE3B1DE
:1097200093F85C22202A18D01888B8421BD0022156
:10973000FDF778FF814608B390F85C020BF074FBEC
:1097400099F85C0289F844420AF05CFC202389F80D
:109750005C32CDE902558DF80E6002A8FDF79CFF42
:1097600004460028DAD0002388F8083005B0BDE8A8
:10977000F08340F2DF113020FDF78CFA40F22B111C
:109780003020FDF787FA00BF20130020054B002290
:10979000012142F210705A72588119701A72FFF743
:1097A0007FBF00BF201300202DE9F84390F840311F
:1097B000002B76D10446884601465648154603F0EC
:1097C000FF070AF0F3FB202806466AD058223946E4
:1097D00004F58C700CF092F984F81861C4F81C81BF
:1097E000FF2384F84031B8F1000F06D002F0B6FB39
:1097F00000F00700013088F8340202234FF000081F
:10980000A4F8503184F8488110F038FD00F19E062C
:109810002046B6B210F025FA002846D00EF0DDFA48
:1098200000F5CD6189B2284610F01CFD2844C4F82B
:109830004C0110F085FE301841F100014FF0010994
:10984000C4F85801A4F82680C4F85C1184F820916B
:10985000204610F01CFA002845D04946204610F05A
:1098600073F9A5F2D7452D1AC4F824514FF0FF32F1
:109870006FF00043C4E9582394F8180104F5A4716B
:109880000AF0E0FC00283FD0D4E956232046C4E982
:109890004C23C4E94E23002110F019FA3846BDE8E4
:1098A000F8830C273846BDE8F8830146204610F0BF
:1098B0004BF9DFF86480DB30C4F84C01B8F80A00DB
:1098C00008B1E08CB8B9064410F03AFE361841F100
:1098D0000001C4E95661002DC8D0AE1941F1000164
:1098E000C4E95861C8E7484610F0C9FADB3D2D1AB3
:1098F000C4F82451BAE702F031FBB8F80A30B0FBE3
:10990000F3F202FB1300DEE740F2C1113020FDF755
:10991000C1F900BFB5E900002013002090F84031E4
:109920000BB90020704710B50446FF2380F868315A
:10993000012110F0CCF994F840310BB9002010BD92
:1099400094F818010AF0E0FE94F818010BF06CFA94
:1099500094F818010AF056FB20B1002384F8403136
:10996000002010BD40F2DF113020FDF793F900BF59
:10997000014B5872704700BF2013002090F86821F7
:1099800082B910B502F0FF0490F8202112B901222B
:10999000104610BDD0E949319942F9D904F092FF3F
:1099A0002246F5E700221046704700BF10B5044676
:1099B00006F0C0FF074BDA68824208D3E16941F63E
:1099C0004B52914203D9187A80F0010010BD00205B
:1099D00010BD00BF2013002008B540F2FF110FF0AA
:1099E000B3FAB0F5296F28BF4FF4296080B208BDE3
:1099F00090F81332002B75D1F0B503F0FF0590F805
:109A00004432032B85B0044601D005B0F0BD10F000
:109A100097FDD4E99E23801A61EB0301012871F1BF
:109A20000003F2DB6FF00103834275EB01035CDBA3
:109A3000E369B4F89820002B55D0B0FBF3F080B266
:109A4000531C184480B2A4F85402B4F85422B4F859
:109A50000C329B1A1BB2002BD7DD94F85C020AF083
:109A600053FE0028D1D0FF2384F85932B4F898501F
:109A7000B4F8D420B4F8D230214F1544013DED1A8A
:109A80003B68ADB20DF10E066BB1B4F8541201395A
:109A900089B2002220469847B4F8543210FA83F372
:109AA0009BB2A4F85432B4F85432EB1A1B04ACD471
:109AB000B4F85412009689B2002301222046FFF721
:109AC00071F80028A1D0012814D1B4F85432BDF89F
:109AD0000E2012FA83F39BB2A4F854323B68002B99
:109AE000D3D1E0E770471846AAE740F2AF513020E3
:109AF000FDF7D0F840F2F6513020FDF7CBF800BF6B
:109B00002C0500202DE9F043044683B0062900F21D
:109B10000081DFE801F0042512222B327600D0E923
:109B20009E23D0E9A00182428B41C0F093807B4B01
:109B30001B7A03F0FF02002B7DD0042384F844320B
:109B400007F024FB0AF0EAF8B4F89820A4F85622AB
:109B50000023A4F8923284F8593203B0BDE8F083B0
:109B6000032380F8443203B0BDE8F08306F0EAFE38
:109B7000C4E9A00103B0BDE8F08390F87D30DFF8C0
:109B80009C91C569D0F84C22033B40F26D1840F21D
:109B90004511012B88BF884699F8093095428CBF42
:109BA000AD1A00251BB9436C9D4228BF1D4604F128
:109BB0004400D4F818720FF01DF9074402200AF08F
:109BC000B7FFED1B25EAE575854228BF0546022152
:109BD00028460BF001F800B92F444246394620468A
:109BE0000FF097F9E269D4F81832C9F80C00D018D0
:109BF0000AF050FF0028B0D140F279313020FDF753
:109C000049F890F87D50284607F0CAFF033D4449C3
:109C100000F55F40012D00F14100A1FB003094BF31
:109C20002821002101EB90118031204603B0BDE8CE
:109C3000F0430FF081B9B4F80C12009201232046D2
:109C4000FEF7B0FF00283FF47BAF40F2CA6130203E
:109C5000FDF720F894F85A32002B3FF468AF94F8DF
:109C60004432032B7FF463AF94F87D800EF0B5F897
:109C700094F801320B2B4AD82A4AD4F8806232F881
:109C80001330D4F81892C51803F5C8639FB2D4E90D
:109C90009E234046B61A07F07BFFA8F10302012A73
:109CA000ADB2A9EB000930D9404607F079FF1C4B53
:109CB00000F52342A132A3FB02239B09A9EB030376
:109CC000A3F174025208D43B9D3205FB03F3B3FBAE
:109CD000F7F36033A2EB53018E424FEA530302D3F2
:109CE00013449E4201D910F0C5FAE069294610F0EC
:109CF000B9FAE26941F64B539A4298BF0230002309
:109D0000C4F84C0284F85A3211E76523D6E7FEF70F
:109D10004BFE40F265713020FCF7BCFF20130020A1
:109D2000D34D621080A90300012A70B5064609D000
:109D3000022A14460D461ED04AB140F28F713020DF
:109D4000FCF7A8FF06F0F6FDC6F8940270BD06F019
:109D5000F1FD224601462846FFF750FC0F4995F8D1
:109D60001801324608F0A4FE0028EFD14FF4EF614D
:109D70003020FCF78FFFD0F8941201222846FFF71D
:109D80003DFC064995F81801324608F091FE00287E
:109D9000DCD140F289713020FCF77CFF95F30000A4
:109DA000F8B5044651B101295BD1002380F8203178
:109DB00007F0ECF9BDE8F84009F0B0BFC58C002D04
:109DC00047D12046D4E94C760FF00DFF401941F100
:109DD0000001C01946EB010100220223C4E956012B
:109DE000C4E94C0184F84821A4F8503194F8683152
:109DF00003F0FF01002BDBD1D4E958026FF00043E0
:109E00009A4208BFB0F1FF3F0CD194F8180104F555
:109E1000A4710AF017FA0028CAD140F2E961302093
:109E2000FCF738FF2046D4E956560FF08DFED4F8E3
:109E30006031D4F864215B1B00F1DB0062EB0602A9
:109E40001B1A62F10002002ADFDA204604F03AFD14
:109E5000AEE702F06BF8E58CB0FBF5F303FB1505FC
:109E6000AFE740F29F713020FCF714FF90F84001FB
:109E7000003818BF01207047014B5881704700BF60
:109E80002013002090F85430590702460DD413F0E7
:109E9000030000D1704792F8550000F0FD00A0F1DA
:109EA0000100B0FA80F04009704790F85600A0F128
:109EB0000100B0FA80F04009704700BF303270B541
:109EC00092B205460C461E460CF087FD35B1044A99
:109ED00000231560147456741471536170BD00BF73
:109EE00044130020014B1870704700BFD1040020BC
:109EF00090F87000003818BF012070472DE9F84F26
:109F00000C4691F89E90054617461E46002B40F0E1
:109F10009D8094F82832032B00F21881DFE803F0CB
:109F20004C028802D4F81C80DFF82CA2DAF800304A
:109F3000002B6CD031462046984700FB088700F084
:109F4000B9F9002868D000200346D4F80022D4F8DC
:109F50000412BA1841F10001121843EB0103C4E9DD
:109F60008023C5E904234FF0000B85F800B094F876
:109F70009E3003F0FD020C2A60D0262B5ED02046D6
:109F800010F065F8002800F0D58094F82832012BF5
:109F9000DAB216BF02232A722B7200236B7204F10D
:109FA00044000EF027FF686026B1A9F10E09B9F14F
:109FB000010F50D8BDE8F88F002F00F0BD8094F855
:109FC0007D8094F87C20DFF890A1012384F828326A
:109FD000624B404633F8127007F0E2FDA8F1030827
:109FE0005F4907F29D77B8F1010F0744A1FB0737DE
:109FF00094BF2821002101EB9711F03120460EF08B
:10A000009BFFDAF800304FF00008002B92D1474652
:10A0100000F050F9002896D1B4F9240202210EF084
:10A020009DFFB4F824321B1AA4F82432C3178CE71E
:10A030000323D4F8308284F8283275E7204610F0E4
:10A0400006F84FF0010B00232B72A6E701212046F2
:10A0500005F012FF5DE7414628460EF08EF986B204
:10A0600020460FF0F4FF8146BBF1000F14D1864269
:10A0700012D385F808B0D4E9803207FB00F15B18F1
:10A0800042F100022B616A61002F5AD041462846F6
:10A090000EF073F9484486B23146204605F0ECFED6
:10A0A000DAF8003073B10121204698472B6908FB8C
:10A0B00000F813EB08032B616B69304443F1000394
:10A0C00086B26B6100F0F6F8E0B1D5E90430D4F85F
:10A0D0008420C4E98030002A3FF46CAFB4F8CE206D
:10A0E000B4F898309B1A1BB2002B7FF763AFB4F81B
:10A0F00088100B44013BB3FBF1F313FB0123A4F8DD
:10A10000CE3057E77600B6F5803FB4BFB1B24FF618
:10A11000FF71B4F924020EF021FFB4F824222B6958
:10A12000121AA4F824226A69C31842EBE0702B616A
:10A130006861CCE7834686E740F223213520FCF7AF
:10A14000A9FD40F2A7213520FCF7A4FD40F25D21D6
:10A150003520FCF79FFD00BF30050020CCA903008F
:10A16000D34D6210014B5870704700BF6013002040
:10A1700008B540F2A3110EF0E7FEB0F5296F28BF35
:10A180004FF4296080B208BD70B5044686B004293A
:10A1900000F28580DFE801F0670D03124900042317
:10A1A00084F8283206F0F2FF06B0BDE8704009F0EE
:10A1B000B5BD032380F8283206B070BDC269D0F85F
:10A1C0005032C0F830229A4204D028300FF0B3FF4A
:10A1D000D4F85032D4F84C2294F87C0094F87D6086
:10A1E0003149E263B4F84822A4F84020D4F854225C
:10A1F000E36131F810506262304607F0D1FC033E53
:10A200002A4905F29D75012E0544A1FB053594BF31
:10A210002821002101EB9511F03120460EF08CFE33
:10A22000022384F8283206B070BD90F87D6090F863
:10A230007C201D4B304633F8125007F0B1FC033E32
:10A240001A4905F29D75012E0544A1FB053594BF01
:10A250002821002101EB9511F031204606B0BDE820
:10A2600070400EF069BE124B1A7802F0FF03002A0C
:10A2700095D1014601226846FFF740FE94F8290275
:10A28000694609F0DFFF28B1B4F898300133A4F82B
:10A29000983087E740F2E2213520FCF7FBFC40F2E2
:10A2A0003D313520FCF7F6FCCCA90300D34D6210FC
:10A2B00060130020014B1879704700BF681300201D
:10A2C000F0B5070CA7F5AA42144B543A012A03EA49
:10A2D00090231FD927F4004042F6AA22801A18BF03
:10A2E00001200022162116461F2487EA060562EA8D
:10A2F0000505013510D0DD03ADB245EA5606E5038C
:10A30000ADB2013945EA52024FEA53034FEA540411
:10A31000EBD1F0BD0020E4E70020FAE7E0FF3F00CA
:10A32000F8B58D1FADB240F67A4C65450746BDF8CD
:10A3300024601046BDF818203BD8841FA4B26445A1
:10A340008CBF002401242546AFBB1D4F3F796FB160
:10A350005CB96FF450654D19062D06D86FF4506442
:10A360000419062C8CBF002401242546FDB181422E
:10A3700024D803FB0666B6F5FA7F1FDCA2F10A03B8
:10A380009BB240F67644A34218D80CF057FC42F238
:10A3900010735A4300FB06F1B2EB410F0ED9BDF822
:10A3A0001C50BDF8200085428CBF002501252846A1
:10A3B000F8BD0024C7E797F88170C8E70025F6E7E5
:10A3C00028140020304BF0B5B0F87070B0F86E6013
:10A3D0005D880C4611461A88974228BF1746964258
:10A3E00028BF16461B2E85B02ED0B5F5A47F2DD0E4
:10A3F00040F648039D4201AA28BF1D460CF047FCC9
:10A40000BDF80A309F4228BF1F46BDF80C30E780D8
:10A41000AB4228BF2B462381BDF806309E4228BFA1
:10A420001E46BDF8083066809D4228BF1D46A580A7
:10A43000FF232370E3881B3B9BB2E02B08D940F23B
:10A44000F7513920FCF726FC1B2FCED105B0F0BD0B
:10A4500063881B3B9BB2E02B02D940F2F951F0E735
:10A460002389A3F5A4739BB240F64812934202D904
:10A4700040F2FB51E5E7A388A3F5A4739BB2934296
:10A48000E4D940F2FD51DCE7281400200138C0B2C5
:10A49000032808B504D940F217310620FCF7FAFB6F
:10A4A000014B185C08BD00BF3CAA03000138C0B2D4
:10A4B000032808B504D940F217310620FCF7EAFB5F
:10A4C000014B185C08BD00BFA6AA03000138C0B24A
:10A4D000032808B504D940F217310620FCF7DAFB4F
:10A4E000014B185C08BD00BF24AB0300F7B5114B4E
:10A4F0009C7EDD7E9F8B064614B900F0C5FD0446A8
:10A50000A5B900F0C1FD054614B9092003B0F0BD9E
:10A510000028FAD0304601A98DF804408DF8055086
:10A52000ADF806700DF07EFF0020EFE7002CF1D1B2
:10A53000EBE700BFAC18002010B503210020FDF7A9
:10A5400071F8044670B90321FDF72EF8044620B9CE
:10A5500040F23D313920FCF79DFB034B93F950103D
:10A560000FF0A8FA204610BD2814002038B50DF0D1
:10A5700096FE00F0A7FF00F095FD0EF091FB01F0B4
:10A5800089F902F08DFA01F0B9F9012000F04EFDD1
:10A59000164B174A1A6000251B22164C5D839A80C1
:10A5A000DD831D841D76144BA576F922586822831D
:10A5B000124A1B892260E0611422294604F124001A
:10A5C0002384A580A5750BF099FA012342F210723D
:10A5D000C4E90A2284F8243084F8393084F84450DD
:10A5E00004F13A00BDE838400FF0ABBDAC180020D4
:10A5F00003021B00281400203CAA03001B00480192
:10A60000044B41F64C521B21C3E9022219745A61D2
:10A61000FFF7ACBFAC18002073B5384DAB680446EB
:10A6200040F8443FFFF7D8F9064600F027FD2B7CA1
:10A6300084F84C30324BA4F84E6010F0200F1B68A9
:10A640001DBFAA886988A4F86E101B2208BFA4F851
:10A650006E20A4F870201BB194F9801020889847D0
:10A6600028490B79003B18BF012384F88130264B21
:10A670001B6813B120880831984794F88130002B6B
:10A6800041F64C5318BF4FF47A73E3612046FFF74D
:10A690002DFF064648B120880221FCF7D9FF40B3C0
:10A6A00040F2B9513920FCF7F5FA184B1B6813B189
:10A6B00001462088984704F128000FF03CFDAB8844
:10A6C0006A886978019103332978009103329BB23B
:10A6D00092B204F1180104F11400FDF715F8636952
:10A6E00013B940F2CE51DDE7A3691BB940F2CF5157
:10A6F000D8E70926304602B070BD00BFAC18002074
:10A7000038050020281400204C05002048050020B2
:10A710002DE9F34105460E460FF011FA002800F02E
:10A72000AE8028460FF09DFA30B1B6F80130013BFB
:10A730007F2B01D9122404E028460FF096FA20B9A5
:10A740000C24204602B0BDE8F0812846FFF78EFBBE
:10A750000028F5D128460FF097F980460028EFD160
:10A76000284603F05DFE0028E4D0B6F80170F178C9
:10A7700042F2107328465F430FF05FFA04213078ED
:10A78000FCF750FF062104463078FCF74BFF002C05
:10A7900077D038B141F661113920FCF77BFA90F897
:10A7A000BD800446404E3368002B6CD040342046B8
:10A7B0000FF09FFC002866D020460FF08EFC00288A
:10A7C00061D1B8F1000F08D0384B20461B6898477C
:10A7D000002858D041F67511DEE7354933684969DC
:10A7E00042462046984700284DD041F67A11D3E7DB
:10A7F00028460FF036FA40B902210DF10600FCF7A9
:10A800009BFE064658B90D249BE728460FF03BFAFD
:10A810000028F1D1274B1B79002BEDD18AE70021CD
:10A8200000F044FFBDF806303380284631460FF073
:10A830003FFA28460FF027FAA0B928460FF02DFA64
:10A8400001463046FFF7E8FE044600287FF479AF62
:10A850003A4631462846FEF7A7FF044620B141F6A6
:10A86000A61199E70121ECE7124BDB6C002B3FF4BA
:10A8700068AF024606F5A1713046984761E7422469
:10A880005FE700288BD128460FF0E3F90146002846
:10A89000AED13A462846FEF787FF044600283FF42B
:10A8A00050AF41F6831177E74405002040050020B2
:10A8B000AC18002028140020B0F90020F8B514B21C
:10A8C00092B202F5A0639BB2B3F5206F34D8B0F911
:10A8D00002301DB29BB203F5A06189B2B1F5206FC1
:10A8E0002AD802F2F64189B240F2BE50814225D800
:10A8F00003F2F64189B2814220D8002CC4BF09324C
:10A9000014B2002DC4BF09331DB20A2094FBF0F429
:10A9100000F0C8FF67B206460A21384695FBF1F100
:10A9200049B200F0B1FF074B1B684BB1A01B40B20E
:10A9300008B198470020F8BD3020FCE71120FAE765
:10A940001846F8E73C050020034B5A8802801B7824
:10A9500083700020704700BFAC1800207FB583785B
:10A960001A2B064609D8042B05D9012202FA03F353
:10A97000314A134205D112251AE0292B01D03B2B75
:10A98000F9D13088B0F5706FF5D269460DF0C7FC8B
:10A9900088B9019B93F8402102F0FF05C2B9B27853
:10A9A00083F84121FF2283F8402168460EF051F9D7
:10A9B000284604B070BD30880921FCF733FE0446F8
:10A9C000002837D0B0F8AC0102A90DF0A8FC08B1FE
:10A9D0000C25EDE7B4F8AE010821FCF723FE20B901
:10A9E00040F6E8013920FCF755F903781BB994F8D3
:10A9F000C831032BECD1039B93F85621002AE7D1F1
:10AA000094F8F02102F0FF05002AE1D1B4F8B0215A
:10AA1000A3F8582194F8B42183F85A21027D83F8D1
:10AA20005B21B27883F85C2184F8F021FF2283F85F
:10AA30005621BDE70225BBE7200038040188A1F1BB
:10AA40001B039BB2E02B0CD84288A2F5A4739BB2E7
:10AA500044F24810834204D8034B002019805A80E6
:10AA600070471220704700BF28140020034B1A883B
:10AA70005B88028043800020704700BF28140020BC
:10AA800038B504784278857804F0010352EA03016E
:10AA900004F0020401D1112038BDBCB9002DFAD058
:10AAA000002B08BF144601E00024254620460CF088
:10AAB00089F90028EFD028460CF084F90028EAD064
:10AAC000054B00209C76DD769883E5E7002BEBD1E3
:10AAD00014461D46EAE700BFAC18002013B50088F5
:10AAE00069460DF01CFC18B10224204602B010BDCE
:10AAF0009DF8003001984BB90CF0ADF80028F3D068
:10AB0000019890F8523123B13A24EEE70CF0B1F8F5
:10AB1000F4E790F8EC3003F0FF04002BF4D190F848
:10AB2000E3309B0706D1FF2380F8523168460EF0D0
:10AB300090F8DAE70249E4300EF0DAF8D5E700BF22
:10AB40001FF501002DE9FF410778EF2F04460D4660
:10AB500001D91225A5E0B0F80130ADF80C309DF90F
:10AB60000C209DF80C30002AF3DB9DF80D20960791
:10AB7000EFD1D8066CD4990603F0030265D5002AFC
:10AB8000E7D11A0703D503F06703012BE1D16378FE
:10AB90001E0711D42179E278E07942EA0122617935
:10ABA00042EA0142A17941EA0021207A41EA0041CA
:10ABB0008A42CED81F2ACCD9627A013A062AC8D84E
:10ABC000A27A032AC5D813F0040102D1023A012A5D
:10ABD00003D8E27A012ABCD811B9A27C032AB8D8DA
:10ABE00013F01001227D44D0012AB2D1237E012B23
:10ABF000AFD800294DD06378D80703D500F0DCF931
:10AC000000284DD06378227D03F0180108295AD11D
:10AC1000022A45D11B0709D4E279A37943EA02232A
:10AC2000227A43EA0243B3F5804F39D81FFA87F8F6
:10AC300003214046FCF7F6FC0646002849D0FFF702
:10AC400015F9002851D00C252BE0032A99D180E773
:10AC500013F0600F7FF47DAF03F00F0203F00703E2
:10AC6000052B94D0931E012B91D9002A7FF471AF4C
:10AC70008DE7022A04D103F06F03092B7FF469AF3B
:10AC8000A37D013B022B3FF664AFE37D0F2BADD9D3
:10AC90005FE700F0F9F981070AD4237D022B04D184
:10ACA0001125284604B0BDE8F081A37D022BF7D022
:10ACB00000F0EAF942079ED4237D032BF0D0A37D58
:10ACC000032B98D1ECE7022AA4D0A27E002AA1D0BF
:10ACD000E6E703214046FCF767FC0646002840D023
:10ACE000214B93F950100EF0E5FE002138460FF08D
:10ACF000E0F918BB30460EF0A9FF21462870E07439
:10AD0000304603F0E5FB637E0546002BC9D00028E2
:10AD1000C7D1F16C02466846FCF7D2FDF06C2A46BA
:10AD200001210BF0AFFEF16C68460422FCF7C8FD70
:10AD3000F06C2A4629460BF0A5FEB2E740300FF032
:10AD4000D8F90028D6D0637813F0330F7FF401AF21
:10AD50003046A77D0EF0A1FFFFF798FB8742C9D0D0
:10AD600071E707259DE700BF2814002030B5027960
:10AD7000042A8BB0034658D84488B4F5804F54D881
:10AD80002B4810440021827C457BADF8041042F032
:10AD9000100242EA4502C57D007F8DF80C1042EAA0
:10ADA000850242EAC00202F01F028DF80420BDF8BD
:10ADB0000420ADF80D201A888DF80F208DF8124070
:10ADC000120A240A8DF811108DF814108DF8102035
:10ADD0008DF813405A7B8DF815205A798DF816207E
:10ADE0009A79D3F807008DF81720B3F80B209B7BD6
:10ADF0008DF81E307F238DF81F30012306908DF8CB
:10AE00002110ADF81C208DF820308DF8223003A8D9
:10AE10008DF823108DF824108DF825108DF826104C
:10AE200001A9FFF78FFE0BB030BD1220FBE700BF7A
:10AE30003CAA030013B50378044653B1002301A8CC
:10AE4000019306F0AFFF019B9B0702D00C2002B0DC
:10AE500010BD024B22781A710020F8E72814002058
:10AE60000278034672B1427862B142881A2A09D93F
:10AE700082881A2A06D9044A006810609B88938049
:10AE80000020704712207047AC180020024B026867
:10AE90009A600020704700BFAC1800200378A3F12F
:10AEA0000A02112A9DBF024A002013741220704723
:10AEB000AC180020014B18760020704728140020A1
:10AEC000014B58760020704728140020024B1B6865
:10AED00003B11847112070473405002008B505203C
:10AEE00000F0B0F804F074FF014B024ADA6408BDC8
:10AEF00028140020C503010008B503F07BF9FEF714
:10AF000045FCBDE80840014803F05EB97C14002010
:10AF100008B50DF0C2F9064800F58471FDF7A0FAF6
:10AF200002200BF02CFDBDE8084000200BF027BDEF
:10AF30007C14002008B5074B012283F80A2203F095
:10AF400061F904F041F9FFF7E3FFBDE8084000F0C4
:10AF5000D7BE00BF7C14002010B5064C064904F58E
:10AF600003700CF0FAFE04F504700449BDE81040CB
:10AF70000CF0F3BE7C140020500500205805002082
:10AF800010B5094C094904F503700CF0E6FE04F510
:10AF9000047007490CF0E1FE04F505700549BDE8B1
:10AFA00010400CF0DABE00BF7C14002068050020C1
:10AFB0007005002060050020014B93F80A027047DD
:10AFC0007C14002038B5094C0D4600F075FED4F80D
:10AFD0000C02C4F804510CF0B8FEFFF711FB00F0AE
:10AFE000D5FF012384F8183238BD00BF7C1400203F
:10AFF000014B93F8180270477C14002010B50A4CDE
:10B00000D4F810020CF0A1FED4F814020CF09DFE4E
:10B01000FFF7ACFA202000F023F8262000F020F8FB
:10B02000002384F8183210BD7C140020014B83F8F3
:10B03000190270477C140020014B93F819027047E5
:10B040007C140020C2080549012300F0070003FA20
:10B0500000F08B5C18438854704700BFD804002070
:10B06000C208054900F0070001238340885C20EAFC
:10B0700003008854704700BFD8040020014BD3E977
:10B0800000017047D8040020054B1868C0F3C022A7
:10B09000C0F30020400040EA820040F00100704709
:10B0A000D804002008B50FF0E7F8084A002332F86A
:10B0B0002310814205D302EB83039B78044A13706B
:10B0C00008BD01330C2BF2D10023F7E776AA030069
:10B0D00096160020024B1878072828BF07207047D3
:10B0E0009616002010B544682388A4F8A83184F887
:10B0F000A71194F87C00FFF7D9F984F8AA0194F815
:10B100007D00FFF7D3F9054984F8AB0104F5CF7052
:10B110000DF0EEFD002384F84C3110BDDFDD0100A1
:10B12000406808490388A0F89A3190F8743080F894
:10B130009C3190F8753080F89D3100F291100DF03F
:10B14000D1BD00BFF5DD0100044B002283F83220A1
:10B150004FF6FF729A86DA861A8770479816002093
:10B16000054B9A8E824201BF002283F832204FF6AF
:10B17000FF729A86704700BF98160020014BD88650
:10B18000704700BF98160020094A0346908E4FF67C
:10B19000FF71884206D192F83210012905D01A6059
:10B1A000012070470020186070470020704700BFE2
:10B1B00098160020064B93F83220012A1FBF012069
:10B1C000DA8E83F832009A8608BF0020704700BFED
:10B1D00098160020014B1887704700BF9816002072
:10B1E000064B0246198F988E884205D193F832009B
:10B1F00018B1136001207047002070479816002096
:10B20000094B998E1A8F914201D0002070474FF65A
:10B21000FF729A8693F83220002AF6D0002283F833
:10B2200032200120704700BF98160020054B998EF0
:10B230001A8F914203BF93F83200B0FA80F04009B0
:10B24000012070479816002050B90A4A1346012081
:10B2500003F8010B0868C2F801008A889A807047D9
:10B26000012805D1034B0A689A608A88D8719A81AF
:10B27000704700BFD216002048B90A4B187880B139
:10B28000D3F80120B3F805300A608B80704701289D
:10B2900006D1044BD87920B19A680A609B89F4E7FB
:10B2A00000207047D216002020B9054B187800F016
:10B2B0000100704701280ABF014B0020D879F6E74A
:10B2C000D2160020F7B500228B888DF80600ADF865
:10B2D000043008680C4B8DF80720019D1C7801464E
:10B2E00003F5AC73D0B2844201D8082009E0D3E959
:10B2F0000076AE4208BF8F4203F1080302F101025B
:10B30000F0D103B0F0BD00BFE016002030B5094B0E
:10B3100001465C78002203F58173D0B2844201D8E3
:10B32000082005E013F8015B8D4202F10102F4D11F
:10B3300030BD00BFE0160020F0B5254D95F89841CE
:10B3400089B0224605F2991168460AF05FFB214652
:10B3500068460CF0C3FF0446B8B300EB4001C9B225
:10B3600002A8FBF7C1FE601E95F8A161C0B20124DE
:10B3700095F8982105E0731CB3FBF2F102FB113341
:10B38000DEB206F120030DEB030111F8203C002B87
:10B39000F1D100EB400220326A4406EB46032B4415
:10B3A00012F8187C83F8A27112F8177C12F8162C88
:10B3B00083F8A37183F8A42101F8204C0138AB195C
:10B3C000C0B2FF2883F89941D2D109B0F0BD00BFC7
:10B3D000E016002070B5064688B00C46002A4FD013
:10B3E0002A4A92F8A131D01890F8991121B94FF456
:10B3F00080712820FBF74EFC03EB4301114401331D
:10B4000091F8A251E57091F8A35191F8A4116171DE
:10B410000021257180F8991192F89811B3FBF1F091
:10B4200001FB103382F8A13192F8C23123B91849D7
:10B4300002F5DD700DF059FC657905F03F0545F02A
:10B44000400565710D22002168460AF057FBE3783C
:10B450008DF80F3023798DF80E3004AA0423694645
:10B4600030468DF80D500AF073F89DF81F302370A8
:10B470009DF81E3063709DF81D30A37008B070BD3C
:10B4800003216018FBF730FED6E700BFE01600206E
:10B4900039130100044B5A78824286BF1B1893F877
:10B4A0004A010020704700BFE0160020044B5A7884
:10B4B000824286BF1B1893F842010020704700BFEC
:10B4C000E0160020064B00224FF461711A8083F8C9
:10B4D000C32183F8C421A3F8C61183F8C2217047A1
:10B4E000E0160020014B83F8C4017047E0160020ED
:10B4F000014BB3F8C6017047E016002030B50A4B87
:10B500005C7884420ED9184490F802012B3003EB8A
:10B51000C004A5790D7053F830001060A3889380A3
:10B52000012030BD0020FCE7E0160020024607485D
:10B5300010B590F8C34124B1417821B1023004F034
:10B54000FBFC204610BD0C46FBE700BFE0160020C8
:10B550002DE9F74F2F4C9A466378834280468946FF
:10B5600056D9231893F8425185F00105F9B193F8A3
:10B570004A31E3B945F002070135BAF1000F18D19D
:10B58000FA070AD5062101FB084104EB08105246D0
:10B5900001F585718230FFF71DFFBB0734D504EB41
:10B5A0000810524649460230FFF714FF2CE02F46A0
:10B5B000E3E794F8A1614FF0010B002DE0D0A3194F
:10B5C000019393F8991199B90092DAB100F0AEFCA9
:10B5D00006EB46012144019B81F8A2014FEA102CA1
:10B5E000009A81F8A3C1000C81F8A40183F899B1F5
:10B5F00094F898310136B6FBF3F103FB1166F6B20D
:10B60000013DDAE747F00407384603B0BDE8F08FA4
:10B610000027F9E7E0160020074B5A78824209D943
:10B620001A1892F842212AB9062202FB003000F5CE
:10B630008570704700207047E0160020064B5A784E
:10B64000824281BF1B1893F83A01B0FA80F040099A
:10B6500098BF0020704700BFE016002030B50024DE
:10B66000A0F84240B0F8464042F210754C43B4FB9B
:10B67000F2F4A0F84640541E05FB0343B3FBF2F37B
:10B68000A0F84430084BB3FBF2F30133A0F84A3082
:10B69000838F05FB0344436BB4FBF2F4594384638B
:10B6A000B1FBF2F2426330BD005A620270B504464B
:10B6B0000D4649BB4FF442720AF020FA012384F888
:10B6C000A6306FF0360384F8F330042384F8F430A6
:10B6D0006FF03B0384F8F5306F2384F8F6306FF099
:10B6E0003F0384F8F7302B2384F8F230FE2384F8EC
:10B6F00032317F2384F89D30202384F8F85084F879
:10B70000F95084F85C3270BD012922D10023A0F8E1
:10B710001C3280F81332154BC2691344B3FBF2F3A9
:10B72000C0F8C83040F6B833A0F8CC301146C38C0E
:10B730009030FFF793FF0AF023F830B1206AFEF74C
:10B74000BFFD10B984F80052DDE7002384F8003211
:10B75000D9E70229D7D1B0F8E232D0F8DC22C169AA
:10B76000BDE870409030FFF779BF00BF7FC3C901CB
:10B7700070B504460D4649BB4FF426720AF0BEF977
:10B78000012384F8A6306FF0360384F8F3300423E5
:10B7900084F8F4306FF03B0384F8F5306F2384F8BD
:10B7A000F6306FF03F0384F8F7302B2384F8F23043
:10B7B000FE2384F832317F2384F89D30202384F8DF
:10B7C000F85084F8F95084F8293270BD012912D15B
:10B7D000C2690D4B1344B3FBF2F3C0F8C83040F616
:10B7E000B833A0F8CC30C38C114604F19000BDE80A
:10B7F0007040FFF733BF0229E7D1B0F85632D0F8D6
:10B800005022C169F1E700BF7FC3C901034B80F833
:10B8100080101B680BB1008818477047780500201E
:10B82000074B93F900301844142804DC10F17F0F03
:10B8300003DB40B27047142070476FF07E00704702
:10B84000A818002007B57F230DF107008DF80730F9
:10B8500005F0DAFD9DF9073068B10A4A5078404298
:10B8600043FA80F0142808DC10F17F0F07DB40B2A8
:10B8700003B05DF804FB1846FAE71420F8E76FF010
:10B880007E00F5E7A8180020014B1870597070472A
:10B89000A8180020024B00221A705A70704700BF8F
:10B8A000A8180020014B93F900007047A818002049
:10B8B000014B93F901007047A8180020054B1B7835
:10B8C00033B9054B1A681B79026003710120704778
:10B8D00000207047AA180020E0040020054BFF223A
:10B8E0001A70054A016811600179117100221A70FD
:10B8F000704700BFAA180020E004002007B5064BDF
:10B90000186800901B798DF804306846FFF7E6FF51
:10B9100003B05DF804FB00BF10E803000346407865
:10B9200048B1DB783A2B05D8034AD35C1B1A58423E
:10B930005841704701207047AAAA03003A2908B568
:10B94000C17003D8064B5B5C437008BDFF2904D06F
:10B950004FF489612A20FBF79DF90123F4E700BF2A
:10B96000AAAA03002DE9F04385B0894602A914462E
:10B9700098460CF0D4FC054600283DD1039E34B90E
:10B98000012486F8A540204605B0BDE8F08377691C
:10B99000214638460AF02DFE014678B3194B5B88E4
:10B9A000A3422DD301AA38460AF066FF96F8A530C7
:10B9B0000198002B0CBF494602210DF035F8019883
:10B9C0002246414603300AF021F8214638460AF063
:10B9D00055FE044618B97A212B20FBF75BF99DF838
:10B9E00008302BB102A80DF034F9039BA3F80A52DA
:10B9F000002386F8A530C6E70124C4E70446C2E761
:10BA00002C46C0E7AC180020024B987FC04300F0E2
:10BA100001007047AC180020034B987F80F00200B3
:10BA2000C0F34000704700BFAC18002083230B70A8
:10BA3000014B1B78CB707047D01800207FB50546AE
:10BA40000C4621B94FF48B711020FBF723F90388C2
:10BA50008B8000234B72866930460AF0FFFE014658
:10BA600010B940F21F11EFE701AA30460AF004FFB7
:10BA7000E08010B94FF49271E6E7FB2802D94FF449
:10BA80009371E1E701980CF0D7FF012801D002285B
:10BA900005D12072206828B940F23D11D4E74FF457
:10BAA0009B71D1E70199E288033109F0AFFF30467D
:10BAB0000AF0EAFE10B94FF4A171C5E70021304643
:10BAC0000AF040FE10B940F24711BDE70A4BDA7F99
:10BAD00082B11A8C2888013A02A91A840CF01FFC42
