:020000040000FA
:100000004045002061210000817200003521000080
:1000100035210000352100003521000000000000DE
:10002000000000000000000000000000951C00001F
:1000300035210000000000003521000035210000BE
:10004000151D0000151D0000151D0000151D0000E8
:10005000151D0000151D0000151D0000151D0000D8
:10006000151D0000151D0000151D0000151D0000C8
:10007000151D0000151D0000151D0000151D0000B8
:10008000151D0000151D0000151D0000151D0000A8
:10009000151D0000151D0000151D0000151D000098
:1000A000151D0000151D0000151D0000151D000088
:1000B000151D0000151D0000151D0000151D000078
:1000C000151D0000151D0000151D0000151D000068
:1000D000151D0000151D0000151D0000151D000058
:1000E000151D0000151D0000151D0000151D000048
:1000F000151D0000151D0000151D0000151D000038
:1001000053B94AB9002908BF00281CBF4FF0FF317E
:100110004FF0FF3000F00CB8ADF1080C6DE904CEE3
:1001200000F008F8DDF804E0DDE9022304B07047D0
:10013000704700BF2DE9F04786468C460846089E6A
:10014000154674461946002B40F0C2808542B2FA2B
:1001500082F245D94AB1C2F1200300FA02FC2EFA1C
:1001600003F3954043EA0C0C94404FEA154EA8B2B5
:10017000BCFBFEF8230C0EFB18CC08FB00F943EA8D
:100180000C43994528D9EB1808F1FF3704D299455B
:1001900002D9A8F102072B44A3EB0903A4B2B3FBD5
:1001A000FEFC0EFB1C330CFB00F044EA0344A042AF
:1001B00014D92C190CF1FF3304D2A04202D9ACF1AE
:1001C00002032C44241A43EA07401EB1D440002302
:1001D00034607360BDE8F0874746DDE76346F1E7CA
:1001E00092BB431B01214FEA154EAFB2B3FBFEFC9D
:1001F000200C0EFB1C330CFB07F840EA0343984528
:1002000062D9EB180CF1FF3004D2984502D9ACF159
:1002100002002B44A3EB0803A4B2B3FBFEFC0EFBCD
:100220001C330CFB07F744EA0344A7424ED92C19B0
:100230000CF1FF3304D2A74202D9ACF102032C44E3
:10024000E41B43EA0040C0E7C2F1200320FA03F1B7
:10025000954090402EFA03F303434FEA154EAFB298
:10026000B1FBFEFC0EFB1C10190C0CFB07F841EA5D
:100270000041884504FA02F422D969180CF1FF30D4
:1002800004D2884502D9ACF102002944A1EB08014F
:100290009BB2B1FBFEFC0EFB1C110CFB07F743EA03
:1002A00001439F420ED9EB180CF1FF3104D29F425B
:1002B00002D9ACF102012B44DB1B41EA004192E779
:1002C0006046E3E76146F7E76046A3E76346B7E7C2
:1002D000834206D916B9002108467BE7C6E900E04B
:1002E000F9E7B3FA83F78FB9834201D3724508D88F
:1002F000BEEB020460EB030301209C461EB9002103
:1003000068E73846FAE7C6E9004CF8E7C7F1200C81
:10031000BB4022FA0CF41C432EFA0CF120FA0CF329
:10032000B84001434FEA14490EFA07F5B3FBF9F858
:100330001FFA84FE09FB18300B0C08FB0EFA43EA87
:1003400000439A4502FA07F240D9E31808F1FF305A
:1003500004D29A4502D9A8F102002344A3EB0A0370
:1003600089B2B3FBF9F809FB183308FB0EFE41EA2A
:1003700003418E452CD9611808F1FF3304D28E4514
:1003800002D9A8F10203214443EA0040A0FB0298ED
:10039000A1EB0E014145CE46434602D306D14D4561
:1003A00004D2B9EB020E68EB04030138002EA6D08C
:1003B000B5EB0E0261EB030101FA0CFC22FA07F324
:1003C0004CEA0303F940C6E9003198E74046C5E727
:1003D0004346D9E7F0B52D4B2D4AC3F800262D48EA
:1003E000C3F8042685B0C3F808264921C3F80C26B3
:1003F000C3F81026C3F81426C3F81826C3F81C2621
:1004000006F0B3FE06F05BFA01A800F07BFC224B7D
:100410001B68834204D02148452106F0A6FEFEE772
:10042000039A1F48492106F0A0FE1E48492106F004
:100430009CFE4FF44041002007F0EDF9044620B146
:100440001948452106F091FEFEE769469DF808002F
:1004500000F02EF8009B039D1D44019B1E8900F0B7
:1004600065FFAF1900F038FF01F0A4FEAB5983F32C
:10047000088884F31488BFF36F8FBFF36F8F7B6896
:1004800098470A48452106F070FEFEE7000001404B
:100490003546526ECE820000D0010020E782000077
:1004A0000A830000398300005E830000918300000E
:1004B00008B5024638B105480023452106F055FE2F
:1004C0006FF0150008BD0860FCE700BFB4830000B2
:1004D0001FB50C46014601AA044807F0A2F818B956
:1004E000019B2360029B636004B010BD8C7C000004
:1004F0002DE9F04F1E46DBB0824BDDF8A0B1D3F8FA
:100500000080DDE96657144600F0B0FE7E4B012204
:10051000C3F800253AA805F007F935B1002F04DD2E
:100520003A4629463AA806F01BFD638927891F44ED
:10053000E3684FF000091F444F4525D80DA93AA89C
:1005400005F064F9704B0022C3F80025C3F80025BC
:10055000BBF1000F04D020220DA9584606F0CFFEB3
:100560000023009332464FF6FF73214607A806F09A
:10057000A7F90546D0B930460C9C00F083F98442B7
:100580001FD94FF0FF3511E0659B649AA7EB090A6C
:100590009A4528BF9A4653464946304606F0F3FD31
:1005A000054638B1584B0022C3F8002528465BB0F9
:1005B000BDE8F08F649952463AA806F0D1FCD144C8
:1005C000BAE7DFF850B1DFF840914FF0FF370DF197
:1005D000160305AA06A907A806F0C0F9041EC0F272
:1005E0008F8040F08280BDF816A0BAF1100F18D1AC
:1005F000BDF81450202DC4D106992B463AAA304696
:1006000006F0C1FD044600287AD12A463AA90DA871
:1006100006F01CFA05463D4B1B688342C6D10125F6
:10062000D5E7BAF1010F3ED1BDF81430202BA8D880
:1006300006993AAA304606F0A6FD044600285FD186
:100640009DF814300293202B09D8DBF80030304F8E
:100650000393039B9C4205DB0023C9F800354FF050
:10066000FF341CE000F002FEC9F800A51DA805F04B
:100670005BF87A6857F8081B12681DA806F070FC32
:1006800015A91DA805F0C2F80022C9F80025029A94
:100690003AA915A806F00CFE18B9C9F800052746B6
:1006A00095E70134D5E7BAF1220F90D17B1C8ED0AB
:1006B000DBF80030BB4215DDBDF81430802B3FF66F
:1006C00060AF06993AAA304606F05DFD0446B8B917
:1006D000FFB2BDF8143000973AAA20210DA800F00F
:1006E0001BF880464FF0FF3771E745B1074B1B6899
:1006F00043451CBF034BD3F80080454656E7012411
:10070000254653E70000002000A00250D001002041
:10071000EC7E0000E87E00002DE9F04196B017461F
:100720001D469DF87020354B0E4653F8321001914E
:1007300003EBC20380465B68186802AA01443023B9
:1007400001A806F09BFB20B14FF0FF3016B0BDE8CA
:10075000F081DDE901431C4403AA06AB214601A850
:1007600006F0B4FB0028EFD1049A072AECD1244903
:10077000059806F09DFD0028E6D1079A082AE3D1E6
:100780002049089806F094FD0028DDD102AA2146F0
:1007900001A806F087FB0028D6D1DDE90132134419
:1007A0009C42D1D1412ACFD13D44302303AA2946CE
:1007B00002A8029706F062FB0028C5D1DDE90232EB
:1007C00013449D42C0D32A4602A906A806F012F996
:1007D0000028B9D12A4602A90EA806F00BF9002874
:1007E000B2D1202EB0D101990B78042BACD1334675
:1007F00006AA0131404600F051FDA7E7EC7E00005B
:10080000E3830000DA8300002DE9F04186B0022383
:10081000DFF86C80ADF800300D466F46002617F803
:10082000010B01A901F010F90446A0B901988168F3
:10083000102302AA103906F0A6FC0446019806F01F
:10084000A1FC44B91022414602A806F031FD40B196
:100850002EB14FF0FF34204606B0BDE8F0810126EE
:10086000DDE7019806F0E5FF0423A0F108012A4620
:10087000019806F088FC0446019806F083FCEAE73C
:10088000BE82000007B506F0F5F86946FFF720FEC6
:1008900038B10548452106F068FC002003B05DF83A
:1008A00004FB0098FAE700BFEB8300002DE9F0415C
:1008B000354B88B0064600200C461D6805F0F4FF55
:1008C00006A9C0B201F0C0F8002857D1214605F0B2
:1008D000EBFF2C2507A9C0B205FB046501F0B4F8B5
:1008E000002833D02C27674306EB0708069BD8F86F
:1008F000101011F0100138D14FF480720192234A88
:100900000092CDE903112A4602910846FFF7F0FD57
:1009100005461F4BF25906989A420CD1D8F80C2084
:10092000B8F808309B1806D28268934203D2194B5C
:100930001B68AB421FD02CB38268002106F04DFC2F
:10094000154A1648452106F010FC13E0079806F0FA
:1009500061FC0746079806F015FC6B1EEA1C13F8AD
:10096000011FB942BED19342F9D11CB1069930465C
:1009700006F064F90125069806F004FC284608B044
:10098000BDE8F081064ADCE700000020D00F00201F
:100990003DB8F396D00100202E840000388400007A
:1009A0002684000073B50D46044600212846CDE993
:1009B000001106F002F930B3164E2368B34203D19A
:1009C00001AA204606F08EF8E36AB34204D16A46D3
:1009D0000121204606F086F8DDE90032934288BF07
:1009E0000193019BAB60019A2946204600F034FB3D
:1009F000094B1A68002A03DD0848572106F0B5FBA9
:100A0000002002B070BD05F10801FFF7FDFEAB68E4
:100A10000193E8E73DB8F396340E002060840000AF
:100A20002DE9F84FDFF878B01B4C1C4D88469146F5
:100A30009A4600260B9B9E4201D300200FE00B9BA1
:100A4000174A9F1BB7F5806F28BF4FF480673B465E
:100A500006EB0A01404606F096FB10B10120BDE806
:100A6000F88F0A993B465A467118484606F0A0FB93
:100A70000028F3D1C4F800563E44C4F80456C4F824
:100A80000856C4F80C56C4F81056C4F81456C4F8E6
:100A90001856C4F81C56CDE7000001403546526E8A
:100AA000D40900202DE9FF418F4B43620E468F4B46
:100AB000036500210446084605F0F6FE04F1200116
:100AC000C0B200F0C1FF0121002005F0EDFE04F1ED
:100AD0004C01C0B200F0B8FF0546204606F043F8CE
:100AE000074668B900221146204605F0E5FF074693
:100AF00000B37F480022572106F037FB01238FE027
:100B00007C488022572106F030FB01239F4284F865
:100B10005830E7D194F858308DF80730042B00F2A4
:100B20008280012B00F2858000F09C80FF2384F8F6
:100B3000583097E0204600F0A7F90028DED068463C
:100B400006F032F86946204606F0CDF818B16A483A
:100B50003A465721D0E7684606F02FF880F00101A9
:100B60006A46C9B2204605F0A7FF02460028C0D158
:100B7000684606F022F8074660BB69462046FFF744
:100B800011FF9DF8073084F85830033B012B06D83D
:100B9000384606F0F6F810B1FF2384F858309DF877
:100BA0000730023B022B0BD8002006F0D8F838B1F2
:100BB000FF2384F858305148452106F0D6FAFEE765
:100BC00094F85830FF2BF6D06A460021204605F0F5
:100BD00073FF93E79DF80780B8F1010F15D1104618
:100BE00002F0D0FF831E022B07460BD84146204659
:100BF000FFF75CFE424B1B68984203D0012814BFEC
:100C00000527012784F8587084E701212046FFF763
:100C10004DFE3B4B1B6898420CBF9DF807300523E7
:100C200084F8583076E7052B80D1002006F0A9F82B
:100C300013E069462046FFF7B5FE94F85830DA1EF7
:100C4000012A05460CD8002006F09BF8054600282E
:100C50007FF46CAF002006F082F8054610B165E71E
:100C6000022BF7D094F85830FF2B04D123484521AC
:100C700006F07BFAFEE7012B10D06A4600212046E1
:100C800005F01AFF054648B1E06C06F07BFA206AD1
:100C900006F078FA284604B0BDE8F081002120462D
:100CA000FFF704FE0746DFF85880D8F80030984276
:100CB0000FD110220021684606F02CFB206A05F0B7
:100CC000FCFD3071236A5B683460D8F80050B36073
:100CD000DAE7E06C06F056FA206A06F053FA002DC7
:100CE00008BF3D46D6E700BFD4050020D401002050
:100CF000D18400008F840000FD840000278500005F
:100D0000D001002038B5064D044660220021284657
:100D100006F000FB21462846FFF7C4FE38BD00BFA1
:100D2000D40D002073B516461D4643B15B79012BE7
:100D300007D121B9204B2A681B689A4217D8002492
:100D400018E0022BFBD12B68012B07D91A4A126835
:100D50009342F4D8B1FA81F14909F0E7EFD131B10A
:100D60000129ECD12979023918BF0121E7E7436A4B
:100D70005C680021002005F097FD01A9C0B200F0D9
:100D800063FE30B10124019806F0FCF9204602B060
:100D900070BD214601982023324606F0F4F904463E
:100DA0000028EFD1002DEED03468044BE41A18BFB0
:100DB0004FF0FF34E7E700BF040000203DB8F39692
:100DC0002DE9F04F074685B00C4601460020164637
:100DD00005F043FE051E50DB3846E46D05F04AFE83
:100DE0005FFA84F96B1E09FB03084FF0000A4FF00D
:100DF000010B4FF0FF349DB9BAF1010F03DD21481B
:100E0000452106F0B2F9631C06D07F2C2ADC0134A0
:100E100040F201133460B380284605B0BDE8F08F7E
:100E20006B1E00930DF10F0201234146384606F078
:100E3000AAF9031E019322DB01220DF10F013846AE
:100E400006F00BFD019B40B15B4501D00AF1010AA0
:100E5000009DA8EB09089B46CDE7B4F1FF3F08BF12
:100E60002C46F5E70223803C7371631004F0010403
:100E70000133013433603471CEE70725CCE7012517
:100E8000CAE700BF3385000038B5816A426D9142E0
:100E900008D0531C8B4205D01348572106F065F942
:100EA000002038BD80291CD910485721F6E7446A34
:100EB000056D04EBC30405EBC30564686D68AC42C3
:100EC00002D00B485721E9E701339A42EFD1914212
:100ED00005D9436A03EBC2035B68A342F1D1012049
:100EE000DFE700231C46F0E7568500008E850000F2
:100EF000BD85000000B589B004A9022006F01FFDE1
:100F00009DF81020012A41D0254B2649032A08BF0D
:100F10000B469DF8132002929DF8122001929DF835
:100F20001120214800924921204A06F01EF906A905
:100F3000052006F004FD9DF81820012A28D0184B42
:100F40001849032A08BF0B469DF81B2002929DF802
:100F50001A2001929DF8192000921348144A492141
:100F600006F003F99DF81030012B13D19DF81230D3
:100F7000032B0FD19DF81830012B0BD00D484921C0
:100F800006F0F3F8022009B05DF804FB0A4BC0E755
:100F9000094BD9E70948492106F0E7F80020F2E7B4
:100FA000E9850000F285000006860000F885000053
:100FB0004786000057860000ED8500007686000019
:100FC00070B54B6814461E4A03F0FF23934286B067
:100FD00006460D462FD10B68012B2CD104A92046C3
:100FE00002F07AFD9DF81020012A26D0154B1649F3
:100FF000032A08BF0B469DF8132002929DF8122089
:1010000001929DF8112000921048114A492106F0E2
:10101000ACF89DF81030032B0DD12146304605F079
:101020000DFE204606F07EFCA968204605F035FD41
:10103000204602F031FD06B070BD064BDBE700BF75
:1010400000010004E9850000F2850000068600002A
:1010500047860000ED8500002DE9F04F054689B078
:101060007D480C464921174606F07FF86B6A01223D
:101070005E6800233344BB42114602F10102F9D3FA
:10108000764F2046396005F098FD08B3E86D05F00D
:10109000DFFCAB6A03F1FF3800233344834202D202
:1010A00008F1FF38F9E73B68434511D36C485721F5
:1010B00006F05BF83A686B4808FB06F302FB066231
:1010C000572106F052F80123E37109B0BDE8F08F13
:1010D00006A9022000F0B8FC07A9052000F0B4FC26
:1010E000079A21462846FFF76BFF6379012B0BD146
:1010F000D7F80080DFF870B13B68DDF81890B8F1E0
:10110000000F11D101232360022363714FF0010806
:101110003B68DDF818A0984549D9504606F032F8EA
:10112000079806F02FF8D0E7226801339B1A9845FC
:101130003AD86B6A196853F8380003EBC803012AE0
:1011400053F8083CA3EB0103A0EB010A049311D16F
:10115000079B0393E368022B08D04946284605F015
:101160006DFD22464946284605F09EFD0399284616
:1011700005F064FD32465146484605F05DFD049B8E
:101180004A464946CDE900A62846FFF749FC2146D4
:10119000284605F01FFD23680133236020B1DBF8EA
:1011A00000300133CBF8003008F1FF38A4E72368A2
:1011B00098454ED36A6ADDF81CB052F83810049195
:1011C0004FEAC803083B11680391D1582A6DD058E3
:1011D0001368A0EB03092379012B38D1039B324616
:1011E000C91A5046059105F027FD059900914B4617
:1011F0005246594601962846FFF712FC21462846DA
:1012000005F0E8FC0223237118B1174A1368013373
:10121000136032464946584605F00EFDDDE90323CA
:1012200051469B1ACDE900965A462846FFF7F8FB2F
:101230002146284605F0CEFC2368013323600123B4
:10124000237130B1084A13680133136001E0022BA7
:10125000DFD008F101085BE78D8600000400002064
:10126000B6860000E5860000340E002070B5094DFA
:101270002B780BB1002070BD074C0126C4F8006527
:1012800004F0F4FA18B92E70C4F80005F2E74FF034
:10129000FF30F0E7D010002000A002502DE9F0410F
:1012A000DFF83080ACB01F4606460C461546FFF707
:1012B000DDFF0123C8F800352A4633460097214652
:1012C00003A806F04FFC0023C8F800352CB0BDE899
:1012D000F08100BF00A00250BFF36F8F72B6124BB7
:1012E0004FF0FF32C3F88020C3F88420C3F8882071
:1012F000C3F88C20C3F89020C3F89420C3F898203A
:10130000C3F89C20C3F88021C3F88421C3F8882146
:10131000C3F88C21C3F89021C3F89421C3F8982115
:10132000C3F89C21704700BF00E100E0164A4FF06F
:10133000FF3301215160C2F84833C2F8083302F587
:10134000C0425160C2F84833C2F8083302F59832FF
:101350005160C2F84833C2F80833A2F508320021C0
:10136000C2F80015C2F8083302F51832C2F80015A9
:10137000C2F80833A2F51042C2F808354FF0804297
:10138000C2F80833704700BF00B00040014B1B6833
:10139000184700BF08000020014B1860704700BFCD
:1013A0000800002007B50B460021024600910348C3
:1013B00000F014F903B05DF804FB00BF8D130000CA
:1013C0002DE9F047058B04462807904611D40229E1
:1013D00005F0070540F0CD80204605F0EBFD78B123
:1013E0000138218B042811D8DFE800F0C3106D8587
:1013F000950001290CBF45F0100545F02005258317
:1014000088F31188BFF36F8FBDE8F08701F0070AFA
:10141000AA4500F0A6800027B9463E46A368002BE7
:1014200000F0BD8041F00801218388F31188BFF3EB
:101430006F8FA168002900F0BB800D68002900F0C3
:10144000B780D1F80480334652462046C047002D6D
:1014500076D02B6829461D46F0E701F007035A1F96
:10146000012A1BD8002221F00701062B276889B228
:10147000C4E9002209D13B4603E0628B013262835A
:101480001B68002BF9D141F002012183204605F0B1
:1014900091FD00287BD041F0200177E0042B0AD198
:1014A00021F0070189B22183204605F083FD10B1A8
:1014B00041F020012183218B01F0070AAA4550D079
:1014C0000027B946AAE7236921F0070141F0060188
:1014D000062DD3F8009021832DD1B9F1000F40D013
:1014E00041F00801218388F31188BFF36F8F3A49D7
:1014F0002046C84729E021F00701236941F0040193
:1015000089B2042DD3F804902183E6D000273E460B
:101510004FF0040A82E721F00701236941F0050139
:1015200089B2052DD3F808902183D6D000273E46F6
:101530004FF0050A72E700273E464FF0060A6DE7B6
:101540002B4687E7B9F1000FD1D14FF02003EFF31D
:10155000118883F31288BFF36F8F238B23F0080366
:101560002383258BEA062ED525F01003238305F06F
:1015700007056669218B002EBFF66FAF0023276831
:10158000C4E9003321F0070141F001012183218BDF
:1015900001F0070AAA454FF000097FF43FAF002F82
:1015A0009BD041F00801218388F31188BFF36F8F2E
:1015B000002FC7D03D68394633465246204605F0D5
:1015C00025FD2F46F4E7AB067FF51AAF25F0200383
:1015D000238305F00705FFE6397000002DE9F04F81
:1015E0008DB01D46531E8246019103934FF00009B2
:1015F000039B5878252803F1010419D11E460020C9
:101600004FF0FF3802360346029044463178039685
:10161000392954D81F2914D8002900F0ED810199E7
:101620002520D04701993078D04709F10209DFE73A
:10163000002800F0E1810199D04709F101090394E4
:10164000D6E7A1F12002192AE9D801A757F822F01C
:10165000B91600001F1600001F160000B916000082
:101660001F160000391700001F1600001F1600008B
:101670001F1600001F16000085170000B916000095
:101680001F16000099170000451700001F160000E4
:101690005317000073170000731700007317000042
:1016A0007317000073170000731700007317000012
:1016B000731700007317000008460136A6E7582983
:1016C00000F0EB80A1F16302D7B2172FA7D8172A39
:1016D000A5D801A757F822F041190000BF17000054
:1016E0001F1600001F1600001F1600009F170000A5
:1016F000BF1700001F1600001F1600009F170000F4
:101700001F1600001F1600001F16000075180000AD
:101710001F1600001F160000151900001F160000FC
:10172000BF1700001F1600001F16000075180000EC
:101730001F1600009F17000001992520D04709F1CE
:10174000010955E7029A02F0FE0202924FF00008EA
:10175000B3E7002C0DDAB8F1000F0DDA029A002A77
:1017600000F0428124EAE4740A2202FB0414303CB3
:10177000A3E7B8F1000FF5DB0A2202FB0812A2F181
:1017800030089AE7B8F1000F55F8042B80F22E814B
:10179000002A80F22D815442022202928DE76829AC
:1017A00003D1682B06D1482387E76C2902D16C2B23
:1017B00000F02081002B7FF432AF0B467DE77A2BBF
:1017C00006D1752955F8046B14D14FF0000B0CE0CD
:1017D0006C2BF6D04C2BF4D1073525F00703752977
:1017E000D3E9006B03F1080506D120283BD1844FD3
:1017F000013C09E04FEAE67BBBF1000FF5DA7642E7
:10180000804F6BEB4B0B013C0DF12D030593002337
:101810000493304659460A220023FEF771FC049BCC
:101820008E46591E049105993032B44601F8012DB7
:10183000BCF10A0F5A4672F1000205910646F346C2
:10184000E7D2C3F1010B30330DEB0306B8F1000F03
:10185000A6F104066DDA029BD9077CD4A8EB0B0332
:10186000A4EB0B0413E02B280ABF674F674F04F16A
:10187000FF34C9E770290FD155F8042B0023FAB9BA
:10188000634E053C6FF004034FF0050B5F4F029A67
:1018900092076FD4A04665E078216C2B03D155F8F0
:1018A000042B002308E04C2BF9D1073525F0070362
:1018B0001D465B6855F8082B232825D1880621D5BD
:1018C000544F023C01F06001A1F1390B0DF12D0ED6
:1018D000002602F00F01092988BF594430310EF863
:1018E000011D102A4FEA121141EA03714FEA131049
:1018F00073F1000306F1FF3C08D2C6F1010B06F1BB
:101900003003A1E7444FDCE7404FDBE766460A4679
:101910000346DEE755F8046B304605F0C2FCB8F12B
:10192000000F834602DB4045A8BFC346374F4FF048
:101930000008A8EB0B03002B92DDA4EB0804A6E73C
:1019400055F8043B8DF81830013C4FF0FF334FF051
:10195000010B06AE9AE7A046EBE70293019920201F
:10196000D047029BB8F10108F7D524EAE472013CA4
:101970009144A41AB84606E0049302920199D04714
:10198000029A049B9046424612F8010B0028F3D1BC
:101990001A46013A15D5002BACBFC7EB03077F42AF
:1019A0005B46013B15D5BBF1000FA8BF5F444F4418
:1019B0002646013E14D5002CA8BF3F1907EB0809A5
:1019C00016E60493029201993020D047049B029AB4
:1019D000DFE70293019916F8010BD047029BE0E77D
:1019E00001992020D047E4E70122D6E6904664E63C
:1019F000144662E64C2360E648460DB0BDE8F08F21
:101A0000278B00008287000084870000FD90000083
:101A10008C870000868700008987000008B54FF09A
:101A20002002EFF3118382F31288BFF36F8F00F06F
:101A3000CBFC034805F0B1FA00F06AF8FCE700BF00
:101A40009287000002F02EB970B5114B1C680D464C
:101A5000DCB1104B196800238B4202DB6FF00100F0
:101A600070BD224612F8106B864202D00133144634
:101A7000F2E7E06810B96FF01200F1E706F058F8ED
:101A80000028F8D02C600020EAE76FF00C00E7E7B0
:101A90000C000020F87E000070B588B005460C46AA
:101AA000C0B269461646FFF7CFFF00281BDB00983F
:101AB000C8B143680293836822680195CDE9033673
:101AC0000023CDE906230593C56805F05BFB6DB1E6
:101AD0002846084901AA05F0A8FD079808B9059B02
:101AE000236008B070BD6FF01500FAE76FF01200C8
:101AF000F7E700BF23720000014803F05DBB00BFA1
:101B00006C7F0000014910220A60704710ED00E070
:101B100072B6404080F31188BFF36F8FBFF34F8FD1
:101B200030BF62B6BFF36F8F704700BF72B64940D7
:101B300081F31188BFF34F8F20BF80F3118862B605
:101B4000704700BF37B505460C46C9B18B68009396
:101B5000D1E900230E48452105F007FB6369009396
:101B6000D4E903230B48452105F0FFFAE2690A484E
:101B7000452105F0FAFAA2690848452105F0F5FA71
:101B80002146284603B0BDE8304003F049B900BF04
:101B9000BB870000EF870000238800003788000023
:101BA00040B2002807DB044A4109012300F01F006E
:101BB000834042F82130704700E100E040B2002845
:101BC0000CDB4309064900F01F002033012282404C
:101BD00041F82320BFF34F8FBFF36F8F704700BFD3
:101BE00000E100E0054B420900F01F0053F82220FD
:101BF000012303FA00F01040704700BF00E100E04D
:101C000040B20028A8BF00F1604001F10101B8BF57
:101C1000064B4FEA4111ACBF00F5614000F00F00E8
:101C2000C9B2B4BF195480F80013704714ED00E036
:101C300030BFFFF7FDBF00BF144A08B5144B22F0B8
:101C40007F029A60BFF34F8FBFF36F8FD3F8882066
:101C500022F47002C3F88820D3F8882042F4A0024E
:101C6000C3F888204FF04042C3F83422BFF34F8FAF
:101C7000BFF36F8F0023E1EE103A03F049F903F050
:101C80008FF900F061FA03F04FF900BF0000000087
:101C900000ED00E01EF0040F0CBFEFF30880EFF33F
:101CA0000980816911F8021C0229FFD001B505F0F5
:101CB000DFFA01BD10F1160F074B08D0984208D388
:101CC0004033834205D98B4203D9044870474033DF
:101CD000F9E70020704700BF401D0020801D002054
:101CE0000446084611461A460023E1EE103A084B16
:101CF000202583F3098863B64FF0000383F311882E
:101D0000BFF36F8FA04785F31188BFF36F8FFEE796
:101D10008045002001B5EFF30580A0F110004FEAE7
:101D2000C0000449014409C99847BDE8014002497F
:101D300008470000BC7C00003D1D0000704700BF4C
:101D40002DE9F041324C0746884632484521154678
:101D500005F00BFAA36ADE0603D52F48452105F0EE
:101D600004FAA36A180703D52C48452105F0FDF9AC
:101D7000274CA36A990728D46FF01506244CA36A50
:101D8000DB0703D52648452105F0EFF9A36A9C0639
:101D900003D52448452105F0E8F91D4CA36AD8066F
:101DA00028D4A36A990725D40020A36A184A9B0661
:101DB00042BF636A23F400536362936A43F0FF03F4
:101DC000936200232B70BDE8F0811748452105F090
:101DD000CCF9666BA36A1A06CED514483246452163
:101DE00005F0C3F9B8F1000FC8D0A36A23F080034F
:101DF000A362C3E763681A05D6D539463046FFF7B4
:101E000059FF0028D0D080F309880220CDE700BF19
:101E100000ED00E06A88000085880000BD880000B1
:101E20000D89000031890000D5880000F28800008B
:101E300010B51D4C1D48452105F097F9A36A9B017B
:101E400003D51B48452105F090F9A36ADC0103D5B1
:101E50001848452105F089F9134CA36A180303D5E6
:101E60001548452105F081F9A36A590303D51348A4
:101E7000452105F07AF90C4CA36A9A0303D5104862
:101E8000452105F072F9A36ADB0303D50D4845210E
:101E900005F06BF9044A936A6FEA03436FEA134350
:101EA0009362002010BD00BF00ED00E065890000D6
:101EB000828900009A890000B9890000DC8900004D
:101EC000068A0000258A000070B5234C06460D46A0
:101ED0002248452105F049F9A36AD90403D52048D1
:101EE000452105F042F9A36A1A0503D51D4845218D
:101EF00005F03BF9184CA36A9B0510D51A484521FB
:101F000005F033F9A26BA36A180408D517484521D8
:101F100005F02BF91EB1A36A23F40043A3620E4C13
:101F2000A36A590503D51248452105F01EF9A36A95
:101F3000DA050BD50F48452105F017F9064A936AD3
:101F4000002043F47F439362287070BDA36A9B0412
:101F5000F4D509484521EFE700ED00E0558A00007F
:101F6000708A0000BD880000868A0000A48A0000F4
:101F7000BE8A0000DE8A0000318900002DE9F041B0
:101F80005D4B5F688AB00546C7F30804002686F3F8
:101F90001188BFF36F8F02F07F43B3F17F4F07D1FA
:101FA00002F00C03082B14D15448452105F0DDF84C
:101FB000002635464FF00008E31E8DF80780092BF8
:101FC00000F28780DFE803F00A7A7E7685858585D2
:101FD000858210074CBF0D460126EBE74848464C6A
:101FE000452105F0C2F88DF80780E36A9A0705D508
:101FF0004448452105F0B9F8002433E0E36A002B9A
:1020000002DA41484521F5E7E36A5B00F4D53F4831
:10201000452105F0AAF86369AA6943F480736361F6
:10202000BFF34F8FBFF36F8F636932F8022C23F435
:1020300080736361BFF34F8FBFF36F8F4DF60273F1
:102040009A4209D0A36ADBB233B30DF10702012132
:102050002846FFF775FE2FE02A682D48452105F038
:1020600084F82C689DF807309BB92022294602A8E5
:1020700005F045F9099B002E38D0C3F3080222B9B8
:102080006FEA53236FEA4323099302A92046FFF71F
:1020900059FD0AB0BDE8F081A36A13F47F4F05D063
:1020A0000DF107010120FFF70FFF05E0A36AB3F56B
:1020B000803FA1D3FFF7BCFE0446D3E70DF1070232
:1020C0000021C5E70DF107010020ECE7114845218B
:1020D00090E71149114A124817F4F87F08BF0A46E1
:1020E000A4F11003452105F040F885E723F4FF73C0
:1020F00023F00103C8E700BF00ED00E0298B0000DA
:10210000598B0000758B00009B8B0000AE8B00008C
:10211000D28B0000F38B0000FB8A0000108B0000C4
:102120001C8C0000024A536943F01003536170474E
:1021300000ED00E0EFF30880EFF3098101B572468E
:10214000FFF71CFF01BD00BF044800232021C21877
:102150000133302B82F80013F9D1704700E100E021
:10216000002080F31488BFF36F8FFFF76BFC002013
:102170000D490860BFF34F8F0C4880F3088800F0CA
:102180002BF8202080F3118809484FF4046140188F
:1021900080F30988EFF314800221084380F3148848
:1021A000BFF36F8FFFF748FD94ED00E0404500203E
:1021B000001500200749D1F890200023C2F3072220
:1021C0001846934200DB7047C1F89830C1F8A00070
:1021D0000133F6E700ED00E008B572B6002383F3A3
:1021E0001388FFF7E7FF144B4FF0FF32C3F880204E
:1021F000C3F88420C3F88820C3F88C20C3F890204B
:10220000C3F89420C3F89820C3F89C20C3F8802119
:10221000C3F88421C3F88821C3F88C21C3F8902126
:10222000C3F89421C3F89821C3F89C2162B6BFF388
:102230004F8FBFF36F8F08BD00E100E0024B034AF0
:102240000348022100F06CB80000042000000020C8
:10225000747F0000F8B5244E00258D420FDA4468E3
:10226000002C3ED09BB104F1FF3C14EA0C0F08D0C7
:102270001E482A46452104F078FF6FF015021046EB
:10228000F8BD1F2CF4D907681CEA070FF0D1202CE9
:102290000768D0F808C05FFA82FE10D9B4F1004F89
:1022A0000FD8013CB4FA84F4C4F11F046400BEF1F9
:1022B000070F4CEA040C06D90D484521DBE708243A
:1022C000F5E73E24F3E727F01F04144344F010041D
:1022D000C6F89820C6F89C404CF00104C6F8A0400F
:1022E000013201350C30B8E700ED00E0388C000019
:1022F000608C0000044B0522C3F89420BFF34F8F7D
:10230000BFF36F8F704700BF00ED00E0BFF35F8F3A
:10231000024B0022C3F89420704700BF00ED00E09C
:1023200010B5034C01232278FFF794FF207010BDF5
:10233000D110002014490868082810B521D8FFF7EB
:10234000E5FF124C49680022904201F10C0105D1D1
:102350000F4B1870FFF7CEFF002010BDC4F8982077
:1023600051F80C3C23F01F03134343F01003C4F84F
:102370009C3051F8043C43F00103C4F8A030013212
:10238000E2E74FF0FF30E8E78C7F000000ED00E06F
:10239000D1100020014B1860704700BF10000020D2
:1023A0004FF02002EFF3118382F31288BFF36F8F97
:1023B000044A0121C2F8401583F31188BFF36F8FDF
:1023C0000020704700E001404FF08043C0B2C3F8E6
:1023D0001C05BFF34F8F0549054BCA6802F4E06244
:1023E0001343CB60BFF34F8F00BFFDE700ED00E06C
:1023F0000400FA0520B1034B800143F001031847A4
:10240000704700BFE07E0000084B70B5C31A0D4650
:1024100007499B10044659430648402204F0C0FF78
:102420002B4601462046BDE8704018474C0E002060
:10243000B76DDBB62C7C000073B50C4C0C4A402306
:10244000041B00930D460B460A49A410614306463F
:10245000094804F0D1FF011E05DA30462B4602B0D0
:10246000BDE87040184702B070BD00BF4C0E0020A0
:1024700069740000B76DDBB62C7C000010B54FF01E
:102480002003EFF3118483F31288BFF36F8F074AA1
:10249000136823F00201DB07116002D4012005F06C
:1024A000BFFA84F31188BFF36F8F10BD9C0E00201C
:1024B000002270B5012104461046FFF7A1FB0F482A
:1024C00001F088FD0E4B984215D105F060FA26699F
:1024D0000C49304604F0BFFD00280BDB01253564B4
:1024E0002469084904F11C0004F0B5FD002801DB53
:1024F000E564002070BD6FF00400FBE73D2500009F
:102500000000AD0BAC7F000070B501460C230948FC
:102510004B43C418D4E90E5600224033A26318443A
:1025200004F02BFF2DB132462B460348BDE8704026
:10253000184770BD4C0E00202C7C000010B1012803
:1025400004D07047034B1B6C5B0701D1FFF7DCBF66
:10255000704700BF4C0E002008B54FF02003EFF38A
:10256000118183F31288BFF36F8F124A136843F00F
:1025700002001060DA0708D481F31188BFF36F8F6F
:102580000120BDE8084005F00FBA4FF08043D3F8B2
:102590000C24D3F80C34D307EED5074804F0EDFE35
:1025A00081F31188BFF36F8F0020BDE80840FFF76B
:1025B000ABBF00BF9C0E00208C0E00202DE9F8431D
:1025C0003649BFF35B8F0746012251E8003F41E8DF
:1025D00000200028F9D1BFF35B8F33B9304931486F
:1025E0004B60CB608A6004F049FD7B1E012B2DD827
:1025F000012F07D14FF08043D3F81C3403F00303BD
:10260000012B23D005F0A3FA054608BB264B1B7807
:10261000F3B14FF080430222C3F808230646DFF8E7
:102620008C904FF080444FF00108D4F81834D4F85F
:102630001824D20316D503F00303012B01D0012F78
:1026400010D12DB386F31188BFF36F8FBDE8F883E7
:102650004FF02003EFF3118683F31288BFF36F8FDF
:102660000125DCE73046FFF761FAD4F81835002B76
:10267000DBD1D4F80421002AD7D0C4F80431D4F82F
:102680000431C4F81885C9F88081C4F80880CCE703
:102690004FF080430222C3F80423D7E7480E0020FE
:1026A000380E0020680E0020E714002000E100E052
:1026B00008B5074805F03CFA38B10648FFF76AFE4E
:1026C0000448FEF769FE002008BD6FF01200FBE72A
:1026D000747C0000D92600000A2838B5074D04464E
:1026E00004D1AB680D215B6828469847AB68034866
:1026F0005B68E1B29847204638BD00BF747C00009B
:1027000030B54068057B01F01F04B2F5001F85B0AD
:1027100044EA451405D1204601F0E0FE002005B052
:1027200030BD0025B2F5800FCDE9025514D1B3F1CB
:10273000007F0CBF042305238DF8083000231946C1
:1027400002AA204601F008FD1F4B984239D1012111
:10275000204601F07BFEE1E7B3F1C06F26D0B3F174
:10276000007F14BF012302238DF808308368CB401B
:10277000D907E3D4B2F1A07FE0D16209012A04F0C5
:102780001F03124A03F5E07318BF4FF0A04252F83E
:102790002330DB07D2D40DF107052946204601F08E
:1027A00001FE0B4B984203D00395C7E70323DBE7F9
:1027B000284601F045FE044B9842F5D06FF00B001F
:1027C000ADE76FF01500AAE70000AD0B0003005065
:1027D0000400AD0B10B501F023FE044668B901F00A
:1027E000F7FD084B98420AD10748214601F0D4FD75
:1027F000224605210620FFF703FA002010BD6FF0E6
:102800000400FBE70000AD0B0D280000420970B585
:10281000034602D0012A17D070BD0D4E32695168AF
:102820000029F9D003F01F0301250C689D40002901
:10283000F2D08A682A4002D04B68304698472CB1C3
:10284000236821461C46F2E7024EE7E72346F8E7F5
:102850005C7C0000447C00002DE9FF4147683B7B25
:1028600001F01F0545EA43150E4628460DF1030108
:10287000144601F097FD14F4403F80460BD12846E2
:1028800001F054FE3D4B984503D19DF8030001F043
:10289000D1FD00200CE00023194602AA2846CDE90C
:1028A000023301F059FC354B984204D06FF015000B
:1028B00004B0BDE8F081804503D19DF8030001F02C
:1028C000B9FDA3034BD540F206332340B3F5837F14
:1028D00019D00CD8062B17D004D8ABB1022BE5D1F8
:1028E000042311E0B3F5807FE0D101230CE040F236
:1028F0000222934227D0B3F5407F26D0B3F5007F64
:10290000D4D1022300E007238DF8043084F480330F
:10291000C3F30043E0068DF8053054BFC4F3401301
:10292000032321038DF8063011D57A680123B340C3
:10293000C2F80835002201A9284601F0BBFC0F4B64
:102940009842A6D0B2E70523DEE70323DCE7620363
:1029500041BF01237A68B340C2F80C35EAE7E306C9
:102960004FF0000354BFC4F3401403241A4601A9D6
:1029700028468DF8044001F0EFFBE0E70000AD0BC6
:1029800000F1744000F5A6000A289ABF024B33F903
:1029900010006FF00F007047A8820000024B0B6020
:1029A00001231360704700BF9C80000000487047FF
:1029B0003080000010B5084C23785BB902690749E4
:1029C000406801F0FBFFFFF7DBFFB0FA80F35B0923
:1029D000237010BD0020FCE7D310002033750000E9
:1029E00037B50D464168B1B1D1E900138468A4B18F
:1029F000D4E9002494B18BB19C4208D10133092B56
:102A000000780ED902465721104804F0AEFB6FF053
:102A1000150003B030BD0B46E8E7224601332344DE
:102A2000EDE78DF8013040F201138DF80000ADF8AC
:102A30000230684600238DF804308DF8055002F00E
:102A40009DF803B0BDE83040FFF79ABFE38C00006B
:102A500010B5084C02F0D2F8A04205D102F0F0F80F
:102A6000054B00221A7010BD4CF2503005F075F87D
:102A7000F0E700BF0000AD0BD31000200C4B9942D3
:102A800010B504460FD14FF02003EFF3118083F30C
:102A90001288BFF36F8F237833B10023237080F344
:102AA0001188BFF36F8F10BDFFF740F8EBE700BF51
:102AB0000000AD0B2DE9F04F814685B00E461C4657
:102AC00090467AB1002B00F092800029426803DB27
:102AD0009269CB1893420BD946482346324645218A
:102AE00004F043FB6FF01505284605B0BDE8F08FF4
:102AF000FFF760FF0546002876D1754205F0030513
:102B0000A54228BF2546D8F1000303F0030308F0CF
:102B1000030758BF5F427F4207F00307A74228BF61
:102B20002746631BE41B24F0030423F0030AA24599
:102B3000C8BFA24603F0030BC8BFA3EB040BBAF156
:102B4000000F19D008EB070372195146184601937C
:102B500004F0DFFF04460146D9F81000FFF78EFFAE
:102B6000254A94423CD1BD4206D0019B52461946AB
:102B700008EB050004F0ACFBBDB1C5F10407F21B86
:102B8000042102A804F0C5FF04460146D9F810004C
:102B9000FFF774FF184B9C4222D107F108032A4625
:102BA0000DEB0301404604F0AAFBBBF1000F16D069
:102BB0000821721952440DEB010004F0AAFF0446EB
:102BC0000146D9F81000FFF759FF0B4B9C4207D183
:102BD0000AEB05005A4602A9404404F090FB064C5B
:102BE0002046FFF7CDFE0546FFF732FF7CE71D4686
:102BF0007AE700BF0B8D00000000AD0B2DE9F34715
:102C000006460F461D4690469AB193B1042B01D952
:102C10009A070ED1BB070CD1002F726803DB9269B3
:102C20007B1993420BD937482B463A46452104F08D
:102C30009CFA6FF01504204602B0BDE8F0873046DC
:102C4000FFF7B8FE044650B904F092FC044648B1C0
:102C5000012004F08DFC2046FFF792FE0446FFF7AA
:102C6000F7FEE8E7032D1ED804213A460DEB0100DC
:102C700004F04FFF044601463069FFF7FFFE224B88
:102C80009C4233D12A46414601A804F038FB042176
:102C90003A460DEB010004F039FF04460146306965
:102CA000FFF7ECFE22E008F06043B3F1005F24D0B0
:102CB000DFF854A0042DA94628BF4FF004094A4666
:102CC000414601A804F01BFB04213A460DEB01002C
:102CD00004F01CFF044601463069FFF7CFFE54455F
:102CE00004D1B5EB0905C8444F44E3D1012004F0F9
:102CF0003FFC002C08BF0446ADE73A462946404653
:102D0000C9E700BF598D00000000AD0B2DE9F84F59
:102D100015460A1ED0F80490804605DBD9F8183015
:102D200051199942174609D934482B46452104F0D8
:102D30001CFA6FF015042046BDE8F88FC2F30B02B1
:102D4000002DF6D0C5F30B031343F2D1FFF732FE8B
:102D50000446F0B904F00CFC0446D0B9DFF8ACA08E
:102D6000D9F81830AB4217D104F0D6FEAB46064670
:102D7000D8F810003146FFF781FE564532D1B5EB49
:102D80000B055F44ECD1012004F0F2FB002C08BFDE
:102D90000446FFF75DFECEE7B5F5803F09D3BBB231
:102DA00053B93946012001F09FFF4FF4803B06469E
:102DB000DEE7B5F5805F09D3C7F30B0030B93946BC
:102DC00001F092FF4FF4805B0646D1E70C480D4EB0
:102DD0002B463A46452104F0C8F90A49D8F81000B4
:102DE000FFF74CFE08482B463A46452104F0BDF952
:102DF0003046FFF7C5FD0446C5E700BFA88D0000BB
:102E0000F78D00000400AD0B1A8E00000000AD0B22
:102E10002DE9F04143681E6A8AB0054607AA0021E1
:102E2000304604F0A6FC041E2EDB079B326819799D
:102E3000186800F04FFD041E26DB00220121292026
:102E4000FEF7DEFE6E682A694749304601F0B6FD9E
:102E5000FFF796FD041E17DBF37A023B012B17D90F
:102E600096F80A80A8F10308B8F1010F8CBF4FF063
:102E700000084FF0010804F060FB041E0BDA3B4829
:102E80002246452104F071F920460AB0BDE8F081E0
:102E90004FF00108EFE7E2B2C4F38014A04504AE9E
:102EA00005AF26D00023012182F0400207A8CDE91A
:102EB0000613ADF8103005968DF8102009938DF8A3
:102EC0001C100897FFF78CFD041E0CD0DCDA284993
:102ED000284A2948B8F1000F08BF0A462346452171
:102EE00004F043F9D0E704F028FB041EEFDBE3070E
:102EF000F9D4FFF7ADFD4FF003080023CDE90683B9
:102F0000089328469F2305968DF81C300997FFF7F4
:102F100051FD014620B1FFF79BFD6FF01204B3E7AE
:102F200007A8FFF75DFD0446FFF792FD002CF4D1E2
:102F30006D684246314605F11C0004F0B9F90446BB
:102F40000028A1D0AB7F03936B7F02932B7F01936B
:102F50009DF8123000939DF810209DF8113007481D
:102F6000452104F002F9D8E733750000438E0000D4
:102F70003D8E0000F4850000588E00006E8E00002B
:102F8000024B0B6001231360704700BFB80E002096
:102F900000487047B880000010B504F0A5FD034C50
:102FA000206004F09DFD6060002010BDB80E002080
:102FB00070B50D462846194616461C4604F0EDFA33
:102FC00040B9084823462A46452104F0CEF86FF060
:102FD000150070BD24B122462946304604F08FF911
:102FE0000020F6E7BB8E00004FF08042D2F81015AB
:102FF000D2F8103501F01E0123F01F030B4343F0FC
:103000000103C2F81035024B00221A70704700BF4E
:10301000D41000204FF08053D3F83031082B20D14A
:103020004FF08042D2F81015CB071AD5D2F81035E0
:1030300001F01E0123F01F030B43C2F81035D2F834
:1030400008315BB1D2F8103523F01F030B4343F076
:103050000103C2F810356FF08B007047024B01225C
:103060001A700020704700BFD41000202DE9F041F5
:103070000F46154604F034FD29460646384604F04E
:103080008CFAB84660B3B7FBF6F306FB137323B9AB
:10309000B5FBF6F406FB145444B114482B463A46EB
:1030A000452104F062F86FF0150413E0AE4211D828
:1030B00004F016FD0E4F0646FFF7ACFF044660B95C
:1030C000404601F041FB3B780BB1FFF78DFFAD1B94
:1030D000B044F1D12046BDE8F0816FF08B04F9E7F0
:1030E00004482B463A464521DBE700BFDD8E000051
:1030F000D4100020BB8E00002DE9F8430E46304668
:10310000194617461C4604F048FA48B91B4823469E
:103110003246452104F029F86FF01500BDE8F88328
:1031200046EA040515F0030504D015482346324647
:103130004521EFE7FCB1DFF850902B19032BA6EBEC
:10314000050806D80F4AD2F80034DB07FBD500206B
:10315000E4E7FFF75FFF58B97B1B4046196801F0B1
:1031600013FB99F800300BB1FFF73EFF043DE4E795
:103170006FF08B00D2E72046D0E700BFBB8E000087
:10318000018F000000E00140D4100020F8B5044693
:1031900007690D4604F0DBFC90B92C4B1B787BB122
:1031A0006426606804F090FAE0B9012004F0EDFBB9
:1031B000013EF6D1F4E786F31188BFF36F8FEFE796
:1031C0004FF02003EFF3118683F31288BFF36F8F64
:1031D0006068314604F078FA90B986F31188BFF33D
:1031E0006F8FEDE74FF02003EFF3118683F3128822
:1031F000BFF36F8F6068314604F066FA0028DAD0BA
:103200003B691D70626838691368C3F84405012082
:10321000C3F848050020C3F82001D3F82051C3F8B3
:1032200058015268D3F85801D20608D5626812686E
:103230000820C2F800054FF48002C3F804230122DD
:103240009A6081F31188BFF36F8FF8BDE7140020F7
:10325000F0B54B79012B26D0032B21D110258B798A
:10326000032B1DD1CE790EB1012E19D10A7912B1DD
:10327000022A15D10E220B684468B3F5164F276851
:1032800067D02DD8B3F5165F66D016D8B3F5966F14
:1032900064D00AD8B3F5967F63D0B3F5167F63D0B8
:1032A0006FF0850054E00025D9E7B3F5166F5ED0C6
:1032B000B3F5965FF4D1384B3CE0B3F5E14F59D00C
:1032C00007D8B3F5615F57D0B3F5964FE8D1334BCC
:1032D00030E047F61224A342E2D14FF4000329E084
:1032E000B3F5613F4AD013D8B3F5963F49D009D81A
:1032F0004DF6C024A34246D0B3F5614FD0D14FF470
:103300006B0317E0B3F5E13FCAD14FF0EB7311E067
:10331000B3F5612F3AD008D8214CA34239D0B3F588
:10332000E12FBDD14FF0E86304E01E4CA342B7D1BA
:103330004FF080530469C7F82435436835431B6850
:103340002A43C3F86C2503C9231D83E8030000202A
:10335000F0BD4FF41D03EDE7134BEBE74FF49E2355
:10336000E8E74FF4A033E5E74FF41C33E2E74FF40E
:103370001D23DFE70D4BDDE70D4BDBE74FF06C73F3
:10338000D8E70C4BD6E74FF46503D3E74FF07063F3
:10339000D0E74FF08063CDE700B0130000A04E00EF
:1033A00090D0030040420F000050270000C075007D
:1033B00000F03A0000903A012DE9F74380460022E0
:1033C00001210220FEF71CFC0220FEF7E9FBD8F8E1
:1033D0000470D8F810603C680021C4F80015C6F8E5
:1033E0000080D7F80C9001AA484604F0C2F9051EE7
:1033F0001EDB019BD9F800201979186800F06AFAE1
:10340000051E15DB311D4046FFF722FF054678B942
:103410007B68990724D506F1180001F0C3F9244B05
:10342000984209D02348452103F09FFE6FF0040520
:10343000284603B0BDE8F083337EDB0003F1804310
:1034400003F5F83304F10C0204F59071C3F810157C
:10345000C3F81425327E01239340174AC2F804357D
:103460000823C4F800353B7A53B9C4F81031D4F8B6
:1034700010317369C4F834350123C4F8383523603A
:103480007B689A075CBF4FF48073C4F804337B6891
:10349000DB0644BF4FF48003C4F804333369C4F837
:1034A00044350023C4F848350123A360E360BFE737
:1034B0000000AD0B488F000000F0014070B5012303
:1034C00083400E4ABFF35B8FDC4352E8001F01EAE2
:1034D000040542E80056002EF7D1BFF35B8F4FF48E
:1034E000803282400648C0F80823BFF35F8FBFF3E5
:1034F0006F8F0B4214BF0120002070BDC40E00204E
:103500000010014070B40E49D1E90034D01AC3183C
:1035100044F1000422F07F46C1E90034A6F500130F
:10352000B3F5400F09D2074B1B681A0A1B069C19FA
:10353000054B42F10005C3E9004570BC01F090BDA8
:1035400038010020C80E00204001002011B3BFF355
:103550005B8F0123104A834052E800CF4CEA030CF2
:1035600042E800C10029F7D1BFF35B8F0B4A4FF44B
:1035700080338340C2F80433094BBFF35B8F1B6871
:10358000BFF35B8FC340DB0742BF064B4FF40032F3
:10359000C3F80021704700BFC40E00200010014096
:1035A000C00E002000E100E00D4B1868010A000683
:1035B000BFF35F8F0B4BD3F80435181841F10001AE
:1035C000B3F5801F0AD2084BD3E90023904271EB78
:1035D000030303D210F1807041F10001704700BF76
:1035E000C80E002000100140400100202DE9F74FD7
:1035F00016461F460446FFF761FF0090FFF7D4FF11
:10360000B04271EB070351D23A4B301A67EB01011C
:10361000984271F100016AD2374B03EB0413D3E9EE
:1036200002239F4208BF96424ED034494FF480395E
:1036300004F1500509FA04F9AD00C1F84893204699
:10364000ADB204F08AF826F07F4B05F1804504F511
:10365000A8732B4A019305F58835DC464FF0030A21
:10366000019B2CF07F4041F82300C1F84493D1F82E
:1036700004856FF00200A0EB0800604420F07F405A
:10368000904221D9286860B1D1F80485A8EB0B00DD
:1036900020F07F40B0F5000F16D9204604F05DF809
:1036A000174A0AEB080C0AF1010AD9E70123154A67
:1036B000BFF35B8FA34052E8000F184342E80001BC
:1036C0000029F8D1BFF35B8F0B490C98230101EB64
:1036D0000412C2E90267C8500D9B536000252046C2
:1036E0000099FFF733FF284603B0BDE8F08F6FF075
:1036F0001505F4E7010080002801002000100140BA
:10370000FDFF7F00C00E002073B5194B194D00243A
:103710004FF0FF304FF0FF31C5F80845C3E9020113
:103720004FF48033C5F80433134B02264FF40032B4
:103730000121C5F804631120C3F880212246FEF759
:103740005FFA1120FEF72CFA0C4A0123AB602B60C4
:1037500013600B4B0B4A0093019400232046FFF7A4
:1037600045FF3046FEF72AFF204602B070BD00BF7D
:10377000280100200010014000E100E0C40E0020FC
:1037800005350000FFFF7F002DE9F7432F4CD4F8EB
:10379000043399070BD5D4F8043143B12C4A0023E4
:1037A000C4F80431D4F80431136801331360D4F839
:1037B0000433DA032AD5BFF35B8F264B53E8002F7F
:1037C00022F0010143E800100028F7D1BFF35B8F1E
:1037D000D30702D4D4F84031C3B10025C4F8405116
:1037E000D4F84031FFF7E0FE4FF02003EFF31182F1
:1037F00083F31288BFF36F8F174BD3E90267B04290
:10380000B94106D282F31188BFF36F8F03B0BDE8D0
:10381000F0834FF0FF384FF0FF39C3E90289D3E955
:1038200000101D604FF48033C4F84833C4F8405191
:10383000D4F8403182F31188BFF36F8F0029E5D0AF
:10384000009032463B4628468847DFE7001001409B
:10385000C80E0020C00E002028010020431C13B514
:1038600022D0012822DD124A124B9042D4BF0446D6
:103870001C46FFF799FE104B0E49D3E90023801A2E
:10388000B0F5000F28BF002404448C4228BF0C462A
:10389000A2180A4900914FF00000019043F1000383
:1038A000FFF7A4FE02B010BD024CE2E70124E0E7FE
:1038B000FEFF7F00FFFF7F0038010020053500007C
:1038C00008B5FFF771FE024B1B68C01A08BD00BFA8
:1038D000380100202DE9F0415A4E00EB810101270B
:1038E000814202D10020BDE8F081046804F07F032A
:1038F000C4F343257F2B4FEA144408BF4FF0FF3336
:10390000222C00F29B80DFE804F0122429442C4092
:1039100044999999994770999999999999999999E7
:10392000737B7E81999999848A8D90939600C2F8D1
:103930000C354FEA531CBCF1010F03F01F0414BFF8
:103940004FF0A04CB44607FA04F4CCF80845012423
:1039500002E0C2F814350024A64624E0C2F8083577
:10396000E7E7C2F8083500244FEA531EBEF1010F05
:1039700014BF4FF0A04EB64603F01F0C07FA0CFC24
:10398000CEF80CC54FF0010E0DE0C2F80C35012445
:10399000EAE7C2F81035DEE7C2F80835002DDAD1C3
:1039A0000024A646062550F804CB0CF40058B8F1C4
:1039B000000F4FEA0525CCF3C11803F01F0C4FEAA6
:1039C00053131CBF01244FF0000E45EA8805012B5C
:1039D0000CBF33464FF0A04345EA0E050CF5E07CE2
:1039E00045EA440543F82C507AE7C2F80C35D5E790
:1039F000C2F860350468C4F38034002CC7D098E75F
:103A0000C2F86435F6E7C2F86835F3E7C2F86C35FA
:103A1000F0E7C2F8243501244FF0000EC3E7C2F8E6
:103A2000283586E7C2F83035F5E7C2F83435F2E7D5
:103A3000C2F83835EFE7C2F83C35ECE76FF08500A7
:103A400051E700BF0003005030B50C490C4D0B6826
:103A50000246002405EB0310D0F80808C0B218B9DC
:103A600004B10B60002007E00133072B4FF0010485
:103A7000F0D90B606FF01B00136030BDCC0E00203E
:103A800000E00140034808B5452103F06EFB00202B
:103A9000FEF79AFC8A8F000030B5816885B0103936
:103AA00021F00704054603F0B5FB102201466846E5
:103AB00003F030FC07491022684603F020FC102375
:103AC0006A462146284603F073FB003818BF0120E0
:103AD00005B030BDBE82000030B50D46816887B0AC
:103AE000102302AA1039044603F04DFB002802DA25
:103AF000012007B030BD102202A9204603F0ADFE20
:103B000000283AD11E49102202A803F0D1FB002858
:103B10000CBF012302232B70204603F08AFE0123F1
:103B200001460DF10702204603F02DFB0028DFDBE4
:103B30009DF8073003F00F021B096A702B710122F8
:103B40000DF10701204603F088FE10B96B78042BB5
:103B500003D901236B7000232B71A268183A22F05D
:103B60000702083AA91C204603F08AFE0028BFD1AC
:103B7000E91C204603F0DDFEBBE70323CBE700BFD3
:103B8000BE8200007FB505466946022003F0D7FEDD
:103B9000044610B1FF2004B070BD02A9052003F057
:103BA000CEFE012836D129482A46492103F0DDFA04
:103BB000274B02938DF80C409DF800509DF808604B
:103BC000244C00222078294603F039FE48B360785F
:103BD000314603F034FE20B3A378042B03D09DF8C4
:103BE000031099421DD1E378042B03D09DF80B10EC
:103BF000994216D12379042B0FD16379022B1BD163
:103C0000154A1648492103F0B0FA6079831E022B49
:103C1000C1D9BFE70028CFD0BCE79DF80210994278
:103C2000EBD00132032A04F10604CBD10C48492120
:103C300003F09BFA0120AEE7032B05D0094A0A499D
:103C4000042B08BF0A46DCE7084ADAE7CF8F0000FA
:103C50000301030342900000B18F00001A9000009E
:103C60002D900000B68F0000C88F0000AC8F0000C0
:103C70004FF08053D3F83021082A06D1D3F83431DD
:103C8000052B02D8024AD05C70470020704700BF65
:103C90005A900000024AD2F80034002BFBD0704743
:103CA00000E0014010B54FF08053D3F83021082ACE
:103CB0004ED14FF080420021C2F80C11C2F8101111
:103CC000C2F8381502F54042D3F80414C2F82015A2
:103CD000D3F80814C2F82415D3F80C14C2F8281528
:103CE000D3F81014C2F82C15D3F81414C2F83015F8
:103CF000D3F81814C2F83415D3F81C14C2F84015C0
:103D0000D3F82014C2F84415D3F82414C2F8481587
:103D1000D3F82814C2F84C15D3F82C14C2F8501557
:103D2000D3F83014C2F85415D3F83414C2F860151F
:103D3000D3F83814C2F86415D3F83C14C2F86815E7
:103D4000D3F84014C2F86C15D3F84434C2F8703577
:103D5000FFF78EFF18B1434B434AC3F88C26FFF799
:103D600087FF18B1414BFB22C3F81825FFF780FFEE
:103D700070B14FF080414FF08053D1F8E42ED3F86A
:103D8000583222F00F0203F00F031343C1F8E43E50
:103D9000FFF76EFF20B1364B4FF40072C3F8402698
:103DA0004FF08053D3F83031082B09D14FF08043C6
:103DB000D3F80024D20744BF6FF00102C3F80024F7
:103DC0002C4AD2F8883043F47003C2F88830BFF32D
:103DD0004F8FBFF36F8F4FF08053D3F83021082AF5
:103DE0000ED1D3F83431052B02D8234AD35C3BB132
:103DF0004FF01023D3F808224FF08043C3F8582522
:103E00004FF01023D3F80022002A03DBD3F804324A
:103E1000002B22DA194901234FF01020C1F8043594
:103E20001224FFF737FFC0F80042FFF733FFC0F856
:103E30000442FFF72FFF0023C1F80435FFF72AFFE4
:103E4000BFF34F8F0B490E4BCA6802F4E062134375
:103E5000CB60BFF34F8F00BFFDE70A4B0A4A1A60E1
:103E600010BD00BF005000404881030000F000403A
:103E70000090024000ED00E05490000000E001409E
:103E80000400FA05300000200090D00370B5012531
:103E90000268BFF35B8FB2FA82F3C3F11F03DBB298
:103EA00005FA03F422EA040450E8006F964204D1B4
:103EB00040E8004CBCF1000FF6D1BFF35B8FE7D1B7
:103EC00001480B7070BD00BF0000AD0B10B503685A
:103ED000CB40DB0714D401238B400268BFF35B8F18
:103EE00043EA020150E8004F944204D140E8001C2C
:103EF000BCF1000FF6D1BFF35B8FEED1014810BDCE
:103F00000148FCE70000AD0B0400AD0BF7B504461B
:103F100018B1012822D003B0F0BD4FF08043022237
:103F2000C3F80823C3F80401D3F804210122DA609E
:103F3000074601238DF8073042F210754FF0804696
:103F4000CCB1012CE7D1C7B3D6F80C3403F0010390
:103F50003B70D6F80C34DA0321D516E04FF08043DD
:103F60000022C3F80803C3F80021D3F800215860E9
:103F70000DF10707DDE7B7B1D6F8183403F00303F6
:103F80003B60D6F81834D803C5D59DF80700012842
:103F900003D103F0FAFC013DD2D1012CBBD10C4B73
:103FA00000225A71B7E7D6F81834D903B3D50120E7
:103FB00003F0EBFC013DF6D1ADE7D6F80C34DB03A2
:103FC000EDD5012003F0E1FC013DF6D1E7E700BFAC
:103FD000D00E0020044B1A7922B9012218609A8071
:103FE0000248704702487047D00E00200000AD0B19
:103FF0000C00AD0B10B54FF08043D3F800216AB12F
:104000000022C3F80021D3F800210122C3F80823BD
:10401000114B587910B95A711B6898474FF080437B
:10402000D3F8042172B10022C3F80421D3F804218B
:10403000D3F81824D3F81814920704D10122C3F836
:1040400018259A6010BD0222C3F80823024BBDE870
:1040500010401B6801201847D00E0020036803F0B1
:104060001F025B09012B0260024818BF4FF0A040FD
:10407000704700BF00030050034B083033F81000B6
:10408000C0F34010704700BF3400002070B500F14D
:1040900008030C4C34F81330DA0505460E4607D5F4
:1040A000C3F3432304EBC30254F8333052689847F8
:1040B000A3682BB1E26831462846BDE87040184736
:1040C00070BD00BF3400002010B4134A083032F82D
:1040D0001030D9051CD5C3F3432123F4F85322F83B
:1040E000103002F10E04002034F8023F13F4807FF8
:1040F00003D0C3F3432399420AD001303028F3D1CF
:10410000002342F8313005485DF8044BFFF7DEBE6E
:104110005DF8044B704700BF34000020A800002069
:1041200038B50246FFF7A8FF094C02F1080540B177
:1041300034F8153007495B0B03F5A273002041F8F2
:1041400023001046FFF7C0FF002324F8153038BDC8
:1041500034000020006000402DE9FF41044616466F
:104160001D4601B34E4F00F1080837F818309B0781
:1041700002D5FFF781FF10BB0023CDE900338DF896
:104180000E308DF80F300DF10F020B4620460DF169
:104190000E0103F047FC37F8183023F0020343F018
:1041A000010327F8183046B33D4B96F800C07268FB
:1041B00004F1080733F81710880702D5AAB1394867
:1041C0001DE021F02001C904C90C23F8171062B1C9
:1041D000BCF1030FF3D872681678BCF1000F11D14F
:1041E000314A06F5A27642F826C033F8172022F0AD
:1041F0001C0242EA8C0223F8172045BB2B4804B06E
:10420000BDE8F081B20002F1804202F5C04241EA0D
:104210004631D2F8100520F00300C2F81005D2F89C
:10422000100520F44F3020F44070C2F81005200231
:10423000D2F810E500F47C5040EA0C4040EA0E0051
:1042400041F0200123F81710C2F81005CDE7D5E999
:1042500000672046FFF738FF002ECFD0104DD5E97C
:104260000023964201D19F4218D011480DF10F0151
:10427000FFF70CFE0D4B9842C1D19DF80F2045F879
:10428000326005EBC20308345F6035F8143043EA4E
:10429000422343F4807325F81430AFE70022EEE7A1
:1042A000340000200400AD0B006000400000AD0BA6
:1042B000A8000020F0B5044685B0154619B3334E6A
:1042C00000F1080736F81720930703D4FFF7D4FE50
:1042D000002858D112F01C0F02D04B78012B52D07D
:1042E00001238DF80F300023CDE900134A1C8B1CED
:1042F00020460DF10F0103F095FB36F8173043F01F
:10430000030326F8173015B9214805B0F0BD1F4E3C
:1043100004F1080736F81700830734D595F800C074
:104320006146890020F0200001F18041C00401F5C0
:10433000C041C00C26F817000023C1F810356A7878
:10434000002AE1D0D1F81035AD7823F4991323F485
:10435000F853C1F81035D1F810E5230203F47C536B
:10436000120402F4403243EA0E0313432A0502F416
:10437000801240EA4C30134340F0200026F817002A
:10438000C1F81035C0E70348BFE700BF3400002084
:104390000000AD0B0400AD0B014BC3E902017047F7
:1043A0003400002008B50246FFF766FE38B1054B21
:1043B0000548083233F812305B0B0B7008BD034818
:1043C000FCE700BF340000200000AD0B0400AD0B83
:1043D00038B50F4C94F87850BDB96022294604F1E5
:1043E000100002F097FF0620FDF7DAFB094B0A48A0
:1043F000C3F87C51D3F87C214FF00042C3F804236A
:10440000012384F87830636738BD0448FCE700BFB7
:1044100034000020006000400000AD0B0500AD0B33
:10442000034B93F87800003818BF0120704700BF95
:104430003400002001460148FFF748BDA4000020D9
:1044400001460148FFF722BDA400002037B504460D
:10445000FFF712FE04F108021E4B33F81230E8B1E8
:1044600013F002051AD15B0B9A0002F1804000F5AF
:10447000C24002F1804202F5C04205600068D2F8F5
:10448000100540F00100C2F8100529B1012202FA1E
:1044900003F3114AC2F8043303B030BDC3F38203FF
:1044A000042B12D0052B12D001A80194FFF7D6FDE2
:1044B000019BD0F81015D94001F0010102312046CE
:1044C00003B0BDE8304003F0F6BA0321F7E702215C
:1044D000F5E700BF340000200060004008B5024648
:1044E000FFF7CAFDC0B102F108010E4B33F81130DD
:1044F000990711D45B0B01229A409B000A4903F1F2
:10450000804303F5C043C1F80823D3F8102522F0F7
:104510000302C3F8102508BDBDE80840002110467D
:1045200003F0C9BA340000200060004013B50E4B00
:1045300000F10802044633F81230DB0711D5FFF70B
:10454000CDFF2046FFF7ECFD01A80194FFF786FDA3
:10455000019B03F5E073022240F82320034802B0D8
:1045600010BD0348FBE700BF340000200000AD0B86
:104570000400AD0B2DE9F04F684B694869490026EE
:1045800087B0012234461D6835B1D0F80453154276
:104590001EBF1C601D68164304338B424FEA420263
:1045A000F1D1DFF87C91D9F87C31002B00F09980B3
:1045B0004FF0A043D3F820250492C3F82025D3F868
:1045C00020280592C3F820284FF000080DF1100AAA
:1045D0004FEA481300934FF0010B49E0009B524A09
:1045E00094FAA4F4B4FA84F41C44E00804F1080337
:1045F000039432F813701AF8003004F007020BFA33
:1046000002F223EA02030AF8003003A8FFF726FDAE
:10461000039B03F5E073B90850F82330C7F3820514
:104620004A072F46C3F301432CD520463946DDB255
:10463000FFF72CFD03A80394FFF710FD039B03F580
:10464000E07350F82330C3F301439D4207D10021AA
:10465000204603F030FA2946204603F02CFA03A83E
:104660000394FFF7FBFC039B0BFA03F3C0F8203520
:104670005AF82840002CB1D1B8F1000F1DD14FF0ED
:104680000108A5E7022B0CD10321204603F013FA01
:1046900005F00503012BE2D139462046FFF7F6FC71
:1046A000DDE702212046019303F005FA032DF3D044
:1046B000019B032BD3D1022DEDE74FF0A042C9F8A7
:1046C0007C41D9F87C311949D2F820350493C2F8DD
:1046D0002035D1F8202505921343C1F820257FF419
:1046E00073AF012416B907B0BDE8F08F96FAA6F3B0
:1046F000B3FA83F304FA03F29B0003F1804303F55A
:10470000C04326EA0206D3F81005D3F81015C0F30B
:104710000520C1F30141FFF7B9FCE3E70061004068
:104720000060004020610040340000200003005081
:10473000044AD2F80034DB07FBD50160BFF35F8F7A
:10474000704700BF00E001404FF080531A69B0FB92
:10475000F2F302FB130373B9084B0222C3F80425DA
:10476000C3F80805D3F80024D207FBD5002204487B
:10477000C3F8042570470348704700BF00E00140BC
:104780000000AD0B0A00AD0B10B5054C0123C4F8B9
:104790000435FFF7CDFF0023C4F8043510BD00BF7A
:1047A00000E0014001460148FFF770BBB000002067
:1047B000036803F01F025B09012B0260024818BF67
:1047C0004FF0A040704700BF0003005070B500F0EC
:1047D0006044B4F1005F66D1840764D1344D95F82C
:1047E0003040012C01D09C425FD12C6804BB022BCD
:1047F000304B0BBFC3F81025C3F80425C3F81405CC
:10480000C3F808050BBFC3F81815C3F80C15082228
:1048100004220021C3F8001102F1804303F5243380
:1048200001221A60234AD2F80031002BFBD00DE0A0
:10483000AE68204C66B1022BE8606961EA612BD159
:10484000C4F81025C4F81405C4F818151A4870BD2A
:10485000022B85F830300CBF082304232961AA619C
:10486000A86003F180430BBFC4F81025C4F80425E9
:10487000C4F81405C4F808050CBFC4F81815C4F82A
:104880000C150C49002203F52433C1F80021012244
:10489000C1F804231A60D9E7C4F80425C4F8080550
:1048A000C4F80C15D2E70548D1E70548CFE700BFAB
:1048B000D80E0020009002400000AD0B0A00AD0BA6
:1048C0000B00AD0B38B5074D6424D5F8003133B972
:1048D0000A2003F05AF8013CF7D1034838BD0348D9
:1048E000FCE700BF009002400700AD0B0000AD0BDD
:1048F000084B9A685A621A699A629A69DA62DA68A7
:104900009A6032B15A691A61DA699A610022DA60F2
:1049100070477047D80E002010B50E4B0238D3F800
:104920003C26D3F83836072813D8DFE800F0110FFB
:104930000D0B0A080604100EC871100C8871100ABD
:1049400048710A711A0ECA701A0C8A701A0A4A70D3
:104950000B7010BD00900240023807281FD8DFE816
:1049600000F02927251123211F04CB791B068A7902
:1049700043EA02434A7943EA02230A7913430E4A7F
:10498000C2F83C36CB781B068A7843EA02434A7861
:1049900043EA02230A781343074AC2F838367047BD
:1049A0000023E4E70023E5E70023E6E70023EBE745
:1049B0000023ECE70023EDE700900240F7B56B4ED3
:1049C00096F8303004461546002B40F0CA80C27C71
:1049D0001AB1037D002B40F084802379FF2B00F077
:1049E000C3806079FF2800F0BF80A079FF2800F025
:1049F000BB80E079FF2800F0B780002A42D101A8EF
:104A00000193FFF7D5FE019B03F5E07340F20237F7
:104A100040F8237001A863790193FFF7C9FE019B59
:104A200003F5E07340F8237001A8A3790193FFF721
:104A3000BFFE019B03F5E07340F8237001A8E37902
:104A40000193FFF7B5FE019B03F5E07340F8237077
:104A5000237AFF2B08D001A80193FFF7A9FE019B41
:104A600003F5E07340F82370637AFF2B0AD001A8A6
:104A70000193FFF79DFE019B03F5E07340F20232C4
:104A800040F82320237D63BB2379FF2B18BF1A46F0
:104A9000374B08BF4FF0FF32C3F824256279FF2A55
:104AA00008BF4FF0FF32C3F82825A279FF2A08BFBC
:104AB0004FF0FF32C3F83025E279FF2A08BF4FF0EC
:104AC000FF32C3F83425227AFF2A08BF4FF0FF32A5
:104AD000C3F83825627AFF2A08BF4FF0FF32C3F8C7
:104AE0003C25234A2368C2F84035237BE77AA07A25
:104AF0009B0143EAC7030343607B43EAC013C2F848
:104B00004435D2F80006A37B20F07F4020F0FF0060
:104B10000343E07B43EA0063207C43EA4063607C1C
:104B200043EA0073C2F80036E37C86F83130012393
:104B3000C6E90015C2F8083311B12920FDF730F895
:104B40000B4B01220021C6E9021186F83020C3F880
:104B50000025C3F800111A6003B0BDE8F040FFF76C
:104B6000B1BE044803B0F0BD0348FBE7D80E0020F7
:104B7000009002400500AD0B0400AD0B70B514466B
:104B8000194A92F83020012A05462BD1174E0022EF
:104B9000C6F8002111B14078FFF7DEFE0123C6F808
:104BA0000833AB786A781B0343EA02232A7813435D
:104BB000EA7843EA42332A7943EA82336A7943EA5C
:104BC000C233C6F83436FFF77DFE094B984208D051
:104BD0000023C6F800311CB168782146FFF79CFE1F
:104BE000044870BD0448FCE7D80E00200090024045
:104BF0000700AD0B0000AD0B0B00AD0B1FB50D4A50
:104C000002920DF107020023114602A88DF8073029
:104C1000ADF80C30FFF7B2FF074B984206D19DF874
:104C2000073013F0010F054B18BF184605B05DF8AB
:104C300004FB00BF050200010000AD0B0B00AD0B33
:104C40002DE9F0412920FCF7B9FF244B244DD3F87E
:104C5000342602F44032B2F5803F04BF214AC3F843
:104C600034264FF080510122C3F808231A61D1F88D
:104C70003011082908BF5A65184B0022C3F80025D7
:104C8000C3F8002195F831201ABBD3F82405D3F8D6
:104C90002885D3F83075D3F83465D3F83845D3F880
:104CA0003C15C0B202F024FF5FFA88F002F020FF4A
:104CB000F8B202F01DFFF0B202F01AFFE0B2FF28D6
:104CC000C9B201D002F014FFFF2902D0084602F059
:104CD0000FFF002385F83030BDE8F08100900240DE
:104CE000D80E0020000103008B0721D1124A13685F
:104CF0001BB192F83030012B1CD1042382F83030E4
:104D00000E4BC3F81C150021C3F82005C3F8001191
:104D10000121D960106840B9D3F800110029FBD0F7
:104D2000012382F8303006487047C3F80413FAE7CD
:104D30000448704704487047D80E00200090024095
:104D40000000AD0B0A00AD0B0B00AD0B10B5174BFF
:104D5000D3F80021E2B10022154CC3F8002194F8E9
:104D60003020032A15D0042A15D0022A04D10123A9
:104D700084F82030FFF7BCFDA36813B9012384F841
:104D80003030D4E9003100209847002384F82030E7
:104D900010BD0223ECE7032284F82020D3F81C2561
:104DA0006262D3F8203584F82830E5E700900240AD
:104DB000D80E002010B5144C144A15490323236162
:104DC0006361144BA261E3614FF4806323620023AB
:104DD000A3626362E36222660F4A62661022A266E1
:104DE000E01D2367E366636702F051FABFF35F8F4C
:104DF0000A49204602F04BFABFF35F8F2023A371CC
:104E0000BFF35F8F10BD00BF0C0F00208990000022
:104E100092900000E7100020D7100020969000002C
:104E200073B504460D464FF02003EFF3118683F36C
:104E30001288BFF36F8F042896BF124B124B53F8A2
:104E400020300022009245210246104802F08DF9E0
:104E50003DB1EB69C3F308031BB10D48452102F0D6
:104E600084F90C4B0C480022452102F07EF92946BA
:104E70002046FEF707FE86F31188BFF36F8F02B05E
:104E800070BD00BF088100009D900000AB90000045
:104E9000D8900000FE900000069100000F4B70B506
:104EA00053F82040013053F82060A64200D870BD6E
:104EB000D4E90035284698476DB138B10028B8BF0D
:104EC0004042EB68FF28A8BFFF201870EA685378BB
:104ED00043F0010353700834E7E700BF1C81000072
:104EE00008B5094B012203201A70FFF7D7FF00F025
:104EF00013F90420FFF7D2FFFBF76CFA034A137B88
:104F000023F00103137308BDE714002048010020BB
:104F100008B50348034A0021121A02F014FE08BD26
:104F200028010020E814002008B50020FFF7B6FF94
:104F3000184B83F30888184C636943F4007363616A
:104F40000025E02384F82230E57725766576A5767E
:104F500084F82050636A43F4E023636284F82350AA
:104F6000FDF7E0F8FCF7CEFD4FF0FF33A362E362FC
:104F7000FDF7E0F9FDF762F902F0D9FD0120FFF736
:104F80008DFF0220FFF78AFF04482B462A46294658
:104F9000FCF7A6FE401D002000ED00E0E14E000001
:104FA00008B50648064A0749121A02F0CEFDBDE8C8
:104FB0000840054A0549064802F0C7BD0000002028
:104FC00028010020A091000000000000A091000036
:104FD00000000020034B1B680BB9FEF771BC0020DA
:104FE000704700BFB40F002010B50E4B1C689C42E8
:104FF00004D1FFF7EFFF6FF0004010BDFFF7EAFFAD
:10500000002CF8D0D4E904321B1A62EBE072B3F141
:10501000004F72F10001EEDA002AACBF1846002002
:10502000EBE700BFB400002030B570B10B4B5B68FC
:1050300098420AD0036843B1D3E90421D0E904457A
:10504000121941EB0501C3E90421D0E900321360D4
:105050005A600023C0E9003330BD00BFB400002017
:105060002DE9F84303464FF02002EFF3118482F359
:105070001288BFF36F8F254FDFF89490D9F80000A6
:10508000DFF890C03B604845DCE9001E4FEAE3755D
:105090000CD058B1D0E90486434575EB060217DA07
:1050A000B8EB030266EB0506C0E9042659184EEB7F
:1050B0000505CCE9001500253D60FFF795FF294661
:1050C000FEF7CCFB84F31188BFF36F8FBDE8F88344
:1050D00018EB01014EEBE873CCE90013002200232A
:1050E000C0E90423FFF7A0FF84F31188BFF36F8F9B
:1050F000836898474FF02003EFF3118483F31288FD
:10510000BFF36F8F3B68A3EB0803B7E7B40F002032
:10511000B4000020C8010020014801F03EBF00BFDC
:105120007091000010B50A4C23681BB10123236065
:10513000002010BD00F052F80028F7D001380628F2
:1051400003D8044B53F8200010BD034810BD00BF26
:10515000B80F002034810000FE8FFFFFBFF34F8F98
:105160000549064BCA6802F4E0621343CB60BFF303
:105170004F8F00BFFDE700BF00ED00E00400FA051F
:1051800010B40A4B0A490B4C4FF0FE32C3F800240E
:105190004968C3F80424C3F80824C3F80C24002386
:1051A000C4F800355DF8044B084700BF00B002505A
:1051B000BC00002000A00250D0E90012014BC3E95E
:1051C00000127047BC00002038B131B10144002208
:1051D0000346013088421A70FAD1704738B500F0A2
:1051E0002FF820B1032400F063F8204638BD00F00A
:1051F00031F898B900F0ACF898B90F4DD5F82839C6
:105200001B0EF02B08D1D5F8242A0C4B9A420AD059
:10521000072400F017F8E6E70624FAE704242046FE
:1052200038BD0024F5E7012000F092F8044600287C
:10523000F7D1C5F80C0AD8E700B002500000E02012
:105240000020704700207047014BC3F8040A7047E4
:1052500000B0025010B5114800F048F800B110BD80
:105260000F4800F043F80028F9D10E4C204600F01A
:105270003DF80028F3D10C4B0C481C6000F036F8C8
:1052800001460028EBD100F02DF8044608B1204675
:1052900010BD00F03FF82046FAE700BFD000002024
:1052A000C4000020CC000020D4000020C800002052
:1052B00008B5084800F024F8074800F021F807482E
:1052C00000F01EF8064800F01BF8BDE8084000F0AA
:1052D0000BB800BFD0000020C4000020CC0000208C
:1052E000C800002000207047704700BF08B5034B7E
:1052F00002681B6810689847002008BDE000002085
:1053000008B5034B02685B6810689847002008BD29
:10531000E000002070B5094C094D2069AB68984742
:1053200018B1084B08485B689847084AEB68206941
:1053300000211160BDE87040184700BFF000002058
:10534000E0000020BC00002050810000BC0F0020C5
:10535000F8B51A4D1A4E0446B26828699047E8B964
:10536000184F3B684CB1A3B1012B19D0013B3B60F6
:105370002869F36898470020F8BD43B9124A012113
:10538000C2F800151149D1F81029002AFBD10133C8
:105390003B60F368286998470020F8BD0C48F8BDC9
:1053A0000A4AD2F81039002BFBD1074A6FF07E4031
:1053B000C2F80035FFF748FF3B68D7E7F000002050
:1053C000E0000020BC0F002000A0025000B00250FE
:1053D000E98FFFFF10B5044650B1636813F0685FB2
:1053E00005D0064A934202D000232360626010BDBC
:1053F000034B04485B689847EFE700BF2C5F5CA94C
:10540000BC00002070810000C8B143680D4A93427F
:1054100013D013F0685F0ED0012350E8002F194617
:1054200040E8001C9CF0000FF7D1012AF5D0BFF333
:105430005F8F0020704704487047044870476FF43E
:10544000E04070472C5F5CA9E98FFFFFEA8FFFFF08
:1054500080B14368094A93420AD013F0685F05D0CF
:10546000BFF35F8F002303601846704704487047FE
:10547000044870476FF4E040704700BF2C5F5CA9A0
:10548000E98FFFFFEA8FFFFF10B5044620B1044B00
:1054900063600022226010BD0248FFF771FEF6E74C
:1054A0003A00003A9881000030B10268034B04488A
:1054B0009A4208BF0020704702487047DD55AABBDA
:1054C0008208F0007108F00038B50D460446B0B10E
:1054D000A0220021043002F05EFB95B1082229468B
:1054E00004F1640002F05DFB082205F1200104F1E3
:1054F000840002F056FB044B2360002038BD0348B3
:10550000FCE70348FAE700BFDD55AABB7108F000CD
:105510008308F0002DE9F74305460E4699461146EB
:10552000FFF7C2FF0446002840F08480002E00F000
:105530008580002900F08480B9F1200F40F082803E
:1055400005F14404082205F10408204602F029FB75
:1055500005F1240708223146404602F022FB06F1FD
:1055600020010822384602F01CFB02A94FF480708B
:1055700041F8049D02F009FB002865D1334A4FF43D
:1055800080731360012193600823314A00F02EFBE1
:105590000121084605232F4A00F028FB0823424634
:1055A00001211C2000F022FB08233A4601210320A0
:1055B00000F01CFB224608230121022000F016FB0C
:1055C0000823254A01211A2000F010FB0523234A55
:1055D00001211B2000F00AFB0823214A012114208D
:1055E00000F004FB08231F4A0121152000F0FEFAF9
:1055F000082305F164020121162000F0F7FA0823C0
:1056000005F184020121172000F0F0FA0823164A60
:1056100001210B2000F0EAFA00F044FB0446019857
:1056200000F0D2FA114B002C18BF1C46A4212846CA
:1056300002F0B3FA204603B0BDE8F0830C4CF9E762
:105640000C4CF7E70C4CF5E7084CEFE790B0025034
:10565000FC81000074820000BC81000060820000B8
:105660002082000040820000DC8100008408F000FD
:105670007608F0008008F0008108F0000C4BC26949
:105680001A60826943F8042C426943F8082C0269C5
:1056900043F80C2CC26843F8102C826843F8142C91
:1056A000426843F8182C026843F81C2C704700BF6E
:1056B0005CB602500C4B1B68C3610C4B1B688361CA
:1056C0000B4B1B6843610B4B1B6803610A4B1B6848
:1056D000C3600A4B1B688360094B1B684360094B1E
:1056E0001B680360704700BF5CB6025058B602509A
:1056F00054B6025050B602504CB6025048B6025052
:1057000044B6025040B6025030B10268034B044820
:105710009A4208BF0020704702487047DD55AABB77
:105720000202F0000002F00038B5044668B1051D21
:105730007021284602F031FA28462022044902F05E
:1057400028FA044B2360002038BD0348FCE700BF63
:1057500088820000DD55AABB0002F0002DE9F0436D
:10576000284B04460E4615460FCB85B06F4687E89A
:105770000F002DB94FF00009484605B0BDE8F08391
:105780002046FFF7C1FF81460028F5D1231D019374
:10579000636AA3BB236F8BB1C3F14008A84528BF40
:1057A000A84604F1300031461844424602F0F1F9AF
:1057B000236F434446442367A5EB0805226F402A24
:1057C00006D104F13001384600F0AEFB0023236718
:1057D00005F03F0835F03F0505D031462A463846EA
:1057E00000F0A2FB2E44B8F1000FC3D04246314670
:1057F00004F1300002F0CDF9C4F87080BCE7DFF8A6
:105800000890B9E7D07E00000C02F0002DE9FF41BE
:10581000144B04460E460FCB6F4687E80F00204618
:10582000FFF772FF8046B0B9CEB1636A251D0195BE
:105830003BB901236362226F04F13001384600F066
:1058400073FB2B46043E243453F8042B12BAA342B4
:1058500046F8042FF8D1404604B0BDE8F081DFF8E7
:105860000880F8E7D07E00000502F000084B1B68B6
:105870001B0EF02B08D1074B1A68074B9A4205D133
:10588000064B0020186070470520704706207047BF
:1058900028B9025024BA02500000E0200CBA02508D
:1058A000002230B549001346023840F6FC7502F17B
:1058B000A05404F52C44A400904202F10102CABF96
:1058C000236025605B181E2AF1D1044A13600B4443
:1058D0005360034B034A1A6030BD00BF78B00250DA
:1058E00084B0025020F80F0030B51E4B85B01A4628
:1058F000196800910099CC07FAD500F1A05000F585
:105900002C408000016813680193019BD807FAD5E9
:10591000154B164C1868164D1F30202390FBF3F0E2
:105920000138002810DA00230130400153B1A0F102
:1059300020014FF00042134204D1013888424FEA5F
:105940005202F8D105B030BD13680393039BDB0707
:10595000FAD5431823602B680293029B002BE3D1F6
:105960000138DEE7B4B00250ACB00250E4B00250EF
:10597000DCB00250F0B51D6885B001F01F040DB910
:105980001F2C25D1154D2E462F680197019FFF072B
:10599000FAD500F1A05000F52C4080000068356871
:1059A0000395039DED07FAD50D4D00EB61102860BE
:1059B0000C48006802901F2C18BFC94302980FBF03
:1059C000106001F01F0100FA01F11160002119605F
:1059D00010684300C00F136005B0F0BDB4B00250B2
:1059E000E4B00250DCB002500C4B18603F3020F0A5
:1059F0003F008901403058609960D9601961596150
:105A000099611C330648196082B002680192019ABC
:105A1000D207FAD5196002B0704700BF90B00250AB
:105A2000B4B0025038B5A0F12003B3F5426F05467B
:105A30002CD88F2826D800F1470300F16604DB0636
:105A40004FEA541400D0013464013F34A4090134F6
:105A500011B1A1421AD30C46E3004FF48050B0FBC1
:105A6000F3F0202828BF202002B11060084B01224B
:105A70001A602146FFF714FF28462146FFF7B4FFBE
:105A8000002038BD00F11F046409DDE70148F8E794
:105A90001CB802502221F000F0B5454B89B01D46DC
:105AA0001C680194019CE407FAD5424BDFF80CE135
:105AB000DFF80CC113449B0000241A680B181E2B3E
:105AC00088BFC0F11E011F320B1852095343B3F5B2
:105AD000806F82BF4FF48061B1FBF2F1091A00F1CF
